{
  "abi": [
    {
      "inputs": [],
      "name": "BONE",
      "outputs": [
        {
          "internalType": "uint256",
          "name": "",
          "type": "uint256"
        }
      ],
      "stateMutability": "view",
      "type": "function"
    },
    {
      "inputs": [],
      "name": "BPOW_PRECISION",
      "outputs": [
        {
          "internalType": "uint256",
          "name": "",
          "type": "uint256"
        }
      ],
      "stateMutability": "view",
      "type": "function"
    },
    {
      "inputs": [],
      "name": "EXIT_FEE",
      "outputs": [
        {
          "internalType": "uint256",
          "name": "",
          "type": "uint256"
        }
      ],
      "stateMutability": "view",
      "type": "function"
    },
    {
      "inputs": [],
      "name": "INIT_POOL_SUPPLY",
      "outputs": [
        {
          "internalType": "uint256",
          "name": "",
          "type": "uint256"
        }
      ],
      "stateMutability": "view",
      "type": "function"
    },
    {
      "inputs": [],
      "name": "MAX_BOUND_TOKENS",
      "outputs": [
        {
          "internalType": "uint256",
          "name": "",
          "type": "uint256"
        }
      ],
      "stateMutability": "view",
      "type": "function"
    },
    {
      "inputs": [],
      "name": "MAX_BPOW_BASE",
      "outputs": [
        {
          "internalType": "uint256",
          "name": "",
          "type": "uint256"
        }
      ],
      "stateMutability": "view",
      "type": "function"
    },
    {
      "inputs": [],
      "name": "MAX_FEE",
      "outputs": [
        {
          "internalType": "uint256",
          "name": "",
          "type": "uint256"
        }
      ],
      "stateMutability": "view",
      "type": "function"
    },
    {
      "inputs": [],
      "name": "MAX_IN_RATIO",
      "outputs": [
        {
          "internalType": "uint256",
          "name": "",
          "type": "uint256"
        }
      ],
      "stateMutability": "view",
      "type": "function"
    },
    {
      "inputs": [],
      "name": "MAX_OUT_RATIO",
      "outputs": [
        {
          "internalType": "uint256",
          "name": "",
          "type": "uint256"
        }
      ],
      "stateMutability": "view",
      "type": "function"
    },
    {
      "inputs": [],
      "name": "MAX_TOTAL_WEIGHT",
      "outputs": [
        {
          "internalType": "uint256",
          "name": "",
          "type": "uint256"
        }
      ],
      "stateMutability": "view",
      "type": "function"
    },
    {
      "inputs": [],
      "name": "MAX_WEIGHT",
      "outputs": [
        {
          "internalType": "uint256",
          "name": "",
          "type": "uint256"
        }
      ],
      "stateMutability": "view",
      "type": "function"
    },
    {
      "inputs": [],
      "name": "MIN_BALANCE",
      "outputs": [
        {
          "internalType": "uint256",
          "name": "",
          "type": "uint256"
        }
      ],
      "stateMutability": "view",
      "type": "function"
    },
    {
      "inputs": [],
      "name": "MIN_BOUND_TOKENS",
      "outputs": [
        {
          "internalType": "uint256",
          "name": "",
          "type": "uint256"
        }
      ],
      "stateMutability": "view",
      "type": "function"
    },
    {
      "inputs": [],
      "name": "MIN_BPOW_BASE",
      "outputs": [
        {
          "internalType": "uint256",
          "name": "",
          "type": "uint256"
        }
      ],
      "stateMutability": "view",
      "type": "function"
    },
    {
      "inputs": [],
      "name": "MIN_FEE",
      "outputs": [
        {
          "internalType": "uint256",
          "name": "",
          "type": "uint256"
        }
      ],
      "stateMutability": "view",
      "type": "function"
    },
    {
      "inputs": [],
      "name": "MIN_WEIGHT",
      "outputs": [
        {
          "internalType": "uint256",
          "name": "",
          "type": "uint256"
        }
      ],
      "stateMutability": "view",
      "type": "function"
    }
  ],
  "bytecode": "608060405234801561001057600080fd5b50610269806100206000396000f3fe608060405234801561001057600080fd5b50600436106101005760003560e01c8063b7b800a411610097578063c36596a611610066578063c36596a614610127578063c6580d1214610177578063e4a28a5214610105578063ec0930211461017f57610100565b8063b7b800a414610157578063ba019dab1461015f578063bc063e1a14610167578063bc694ea21461016f57610100565b8063867378c5116100d3578063867378c5146101375780639381cd2b1461013f578063992e2a9214610147578063b0e0d1361461014f57610100565b806309a3bbe414610105578063189d00ca1461011f578063218b53821461012757806376c7a3c71461012f575b600080fd5b61010d610187565b60408051918252519081900360200190f35b61010d610194565b61010d6101a8565b61010d6101b4565b61010d6101c6565b61010d6101da565b61010d6101e7565b61010d6101f3565b61010d6101f8565b61010d6101fd565b61010d610202565b61010d610212565b61010d61021e565b61010d610223565b6802b5e3af16b188000081565b6402540be400670de0b6b3a76400005b0481565b670de0b6b3a764000081565b620f4240670de0b6b3a76400006101a4565b64e8d4a51000670de0b6b3a76400006101a4565b68056bc75e2d6310000081565b6704a03ce68d21555681565b600881565b600281565b600181565b600a670de0b6b3a76400006101a4565b671bc16d674ec7ffff81565b600081565b6002670de0b6b3a76400006101a456fea26469706673582212200ee13b3e0f5bcd304023c0039f84c8c1c4dde725574e8ee9cfca60972d79e70764736f6c634300060c0033",
  "bytecodeSha1": "add7e973ba88c5163f70c3dc1c9f40c1d864630c",
  "compiler": {
    "evm_version": "istanbul",
    "optimizer": {
      "enabled": true,
      "runs": 200
    },
    "version": "0.6.12+commit.27d51765"
  },
  "contractName": "BNum",
  "language": "Solidity",
  "natspec": {
    "kind": "dev",
    "methods": {},
    "version": 1
  },
  "opcodes": "PUSH1 0x80 PUSH1 0x40 MSTORE CALLVALUE DUP1 ISZERO PUSH2 0x10 JUMPI PUSH1 0x0 DUP1 REVERT JUMPDEST POP PUSH1 0x4 CALLDATASIZE LT PUSH2 0x100 JUMPI PUSH1 0x0 CALLDATALOAD PUSH1 0xE0 SHR DUP1 PUSH4 0xB7B800A4 GT PUSH2 0x97 JUMPI DUP1 PUSH4 0xC36596A6 GT PUSH2 0x66 JUMPI DUP1 PUSH4 0xC36596A6 EQ PUSH2 0x127 JUMPI DUP1 PUSH4 0xC6580D12 EQ PUSH2 0x177 JUMPI DUP1 PUSH4 0xE4A28A52 EQ PUSH2 0x105 JUMPI DUP1 PUSH4 0xEC093021 EQ PUSH2 0x17F JUMPI PUSH2 0x100 JUMP JUMPDEST DUP1 PUSH4 0xB7B800A4 EQ PUSH2 0x157 JUMPI DUP1 PUSH4 0xBA019DAB EQ PUSH2 0x15F JUMPI DUP1 PUSH4 0xBC063E1A EQ PUSH2 0x167 JUMPI DUP1 PUSH4 0xBC694EA2 EQ PUSH2 0x16F JUMPI PUSH2 0x100 JUMP JUMPDEST DUP1 PUSH4 0x867378C5 GT PUSH2 0xD3 JUMPI DUP1 PUSH4 0x867378C5 EQ PUSH2 0x137 JUMPI DUP1 PUSH4 0x9381CD2B EQ PUSH2 0x13F JUMPI DUP1 PUSH4 0x992E2A92 EQ PUSH2 0x147 JUMPI DUP1 PUSH4 0xB0E0D136 EQ PUSH2 0x14F JUMPI PUSH2 0x100 JUMP JUMPDEST DUP1 PUSH4 0x9A3BBE4 EQ PUSH2 0x105 JUMPI DUP1 PUSH4 0x189D00CA EQ PUSH2 0x11F JUMPI DUP1 PUSH4 0x218B5382 EQ PUSH2 0x127 JUMPI DUP1 PUSH4 0x76C7A3C7 EQ PUSH2 0x12F JUMPI JUMPDEST PUSH1 0x0 DUP1 REVERT JUMPDEST PUSH2 0x10D PUSH2 0x187 JUMP JUMPDEST PUSH1 0x40 DUP1 MLOAD SWAP2 DUP3 MSTORE MLOAD SWAP1 DUP2 SWAP1 SUB PUSH1 0x20 ADD SWAP1 RETURN JUMPDEST PUSH2 0x10D PUSH2 0x194 JUMP JUMPDEST PUSH2 0x10D PUSH2 0x1A8 JUMP JUMPDEST PUSH2 0x10D PUSH2 0x1B4 JUMP JUMPDEST PUSH2 0x10D PUSH2 0x1C6 JUMP JUMPDEST PUSH2 0x10D PUSH2 0x1DA JUMP JUMPDEST PUSH2 0x10D PUSH2 0x1E7 JUMP JUMPDEST PUSH2 0x10D PUSH2 0x1F3 JUMP JUMPDEST PUSH2 0x10D PUSH2 0x1F8 JUMP JUMPDEST PUSH2 0x10D PUSH2 0x1FD JUMP JUMPDEST PUSH2 0x10D PUSH2 0x202 JUMP JUMPDEST PUSH2 0x10D PUSH2 0x212 JUMP JUMPDEST PUSH2 0x10D PUSH2 0x21E JUMP JUMPDEST PUSH2 0x10D PUSH2 0x223 JUMP JUMPDEST PUSH9 0x2B5E3AF16B1880000 DUP2 JUMP JUMPDEST PUSH5 0x2540BE400 PUSH8 0xDE0B6B3A7640000 JUMPDEST DIV DUP2 JUMP JUMPDEST PUSH8 0xDE0B6B3A7640000 DUP2 JUMP JUMPDEST PUSH3 0xF4240 PUSH8 0xDE0B6B3A7640000 PUSH2 0x1A4 JUMP JUMPDEST PUSH5 0xE8D4A51000 PUSH8 0xDE0B6B3A7640000 PUSH2 0x1A4 JUMP JUMPDEST PUSH9 0x56BC75E2D63100000 DUP2 JUMP JUMPDEST PUSH8 0x4A03CE68D215556 DUP2 JUMP JUMPDEST PUSH1 0x8 DUP2 JUMP JUMPDEST PUSH1 0x2 DUP2 JUMP JUMPDEST PUSH1 0x1 DUP2 JUMP JUMPDEST PUSH1 0xA PUSH8 0xDE0B6B3A7640000 PUSH2 0x1A4 JUMP JUMPDEST PUSH8 0x1BC16D674EC7FFFF DUP2 JUMP JUMPDEST PUSH1 0x0 DUP2 JUMP JUMPDEST PUSH1 0x2 PUSH8 0xDE0B6B3A7640000 PUSH2 0x1A4 JUMP INVALID LOG2 PUSH5 0x6970667358 0x22 SLT KECCAK256 0xE 0xE1 EXTCODESIZE RETURNDATACOPY 0xF JUMPDEST 0xCD ADDRESS BLOCKHASH 0x23 0xC0 SUB SWAP16 DUP5 0xC8 0xC1 0xC4 0xDD 0xE7 0x25 JUMPI 0x4E DUP15 0xE9 0xCF 0xCA PUSH1 0x97 0x2D PUSH26 0xE70764736F6C634300060C003300000000000000000000000000 ",
  "sha1": "83b7dfaf7dd51299316b068b80890479cc0ec9df",
  "source": "// https://github.com/balancer-labs/balancer-core/blob/master/contracts/BNum.sol\n\n// This program is free software: you can redistribute it and/or modify\n// it under the terms of the GNU General Public License as published by\n// the Free Software Foundation, either version 3 of the License, or\n// (at your option) any later version.\n\n// This program is distributed in the hope that it will be useful,\n// but WITHOUT ANY WARRANTY; without even the implied warranty of\n// MERCHANTABILITY or FITNESS FOR A PARTICULAR PURPOSE.  See the\n// GNU General Public License for more details.\n\n// You should have received a copy of the GNU General Public License\n// along with this program.  If not, see <http://www.gnu.org/licenses/>.\n\npragma solidity 0.6.12;\n\nimport './BConst.sol';\n\ncontract BNum is BConst {\n  function btoi(uint a) internal pure returns (uint) {\n    return a / BONE;\n  }\n\n  function bfloor(uint a) internal pure returns (uint) {\n    return btoi(a) * BONE;\n  }\n\n  function badd(uint a, uint b) internal pure returns (uint) {\n    uint c = a + b;\n    require(c >= a, 'ERR_ADD_OVERFLOW');\n    return c;\n  }\n\n  function bsub(uint a, uint b) internal pure returns (uint) {\n    (uint c, bool flag) = bsubSign(a, b);\n    require(!flag, 'ERR_SUB_UNDERFLOW');\n    return c;\n  }\n\n  function bsubSign(uint a, uint b) internal pure returns (uint, bool) {\n    if (a >= b) {\n      return (a - b, false);\n    } else {\n      return (b - a, true);\n    }\n  }\n\n  function bmul(uint a, uint b) internal pure returns (uint) {\n    uint c0 = a * b;\n    require(a == 0 || c0 / a == b, 'ERR_MUL_OVERFLOW');\n    uint c1 = c0 + (BONE / 2);\n    require(c1 >= c0, 'ERR_MUL_OVERFLOW');\n    uint c2 = c1 / BONE;\n    return c2;\n  }\n\n  function bdiv(uint a, uint b) internal pure returns (uint) {\n    require(b != 0, 'ERR_DIV_ZERO');\n    uint c0 = a * BONE;\n    require(a == 0 || c0 / a == BONE, 'ERR_DIV_INTERNAL'); // bmul overflow\n    uint c1 = c0 + (b / 2);\n    require(c1 >= c0, 'ERR_DIV_INTERNAL'); //  badd require\n    uint c2 = c1 / b;\n    return c2;\n  }\n\n  // DSMath.wpow\n  function bpowi(uint a, uint n) internal pure returns (uint) {\n    uint z = n % 2 != 0 ? a : BONE;\n\n    for (n /= 2; n != 0; n /= 2) {\n      a = bmul(a, a);\n\n      if (n % 2 != 0) {\n        z = bmul(z, a);\n      }\n    }\n    return z;\n  }\n\n  // Compute b^(e.w) by splitting it into (b^e)*(b^0.w).\n  // Use `bpowi` for `b^e` and `bpowK` for k iterations\n  // of approximation of b^0.w\n  function bpow(uint base, uint exp) internal pure returns (uint) {\n    require(base >= MIN_BPOW_BASE, 'ERR_BPOW_BASE_TOO_LOW');\n    require(base <= MAX_BPOW_BASE, 'ERR_BPOW_BASE_TOO_HIGH');\n\n    uint whole = bfloor(exp);\n    uint remain = bsub(exp, whole);\n\n    uint wholePow = bpowi(base, btoi(whole));\n\n    if (remain == 0) {\n      return wholePow;\n    }\n\n    uint partialResult = bpowApprox(base, remain, BPOW_PRECISION);\n    return bmul(wholePow, partialResult);\n  }\n\n  function bpowApprox(\n    uint base,\n    uint exp,\n    uint precision\n  ) internal pure returns (uint) {\n    // term 0:\n    uint a = exp;\n    (uint x, bool xneg) = bsubSign(base, BONE);\n    uint term = BONE;\n    uint sum = term;\n    bool negative = false;\n\n    // term(k) = numer / denom\n    //         = (product(a - i - 1, i=1-->k) * x^k) / (k!)\n    // each iteration, multiply previous term by (a-(k-1)) * x / k\n    // continue until term is less than precision\n    for (uint i = 1; term >= precision; i++) {\n      uint bigK = i * BONE;\n      (uint c, bool cneg) = bsubSign(a, bsub(bigK, BONE));\n      term = bmul(term, bmul(c, x));\n      term = bdiv(term, bigK);\n      if (term == 0) break;\n\n      if (xneg) negative = !negative;\n      if (cneg) negative = !negative;\n      if (negative) {\n        sum = bsub(sum, term);\n      } else {\n        sum = badd(sum, term);\n      }\n    }\n\n    return sum;\n  }\n}\n",
  "sourcePath": "contracts/utils/BNum.sol",
  "type": "contract"
}