{
  "abi": [
    {
      "inputs": [
        {
          "internalType": "address",
          "name": "_router",
          "type": "address"
        },
        {
          "internalType": "address",
          "name": "_dahliabank",
          "type": "address"
        },
        {
          "internalType": "address",
          "name": "_werc20",
          "type": "address"
        }
      ],
      "stateMutability": "nonpayable",
      "type": "constructor"
    },
    {
      "inputs": [
        {
          "internalType": "address",
          "name": "",
          "type": "address"
        },
        {
          "internalType": "address",
          "name": "",
          "type": "address"
        },
        {
          "internalType": "uint256[]",
          "name": "",
          "type": "uint256[]"
        },
        {
          "internalType": "uint256[]",
          "name": "",
          "type": "uint256[]"
        },
        {
          "internalType": "bytes",
          "name": "",
          "type": "bytes"
        }
      ],
      "name": "onERC1155BatchReceived",
      "outputs": [
        {
          "internalType": "bytes4",
          "name": "",
          "type": "bytes4"
        }
      ],
      "stateMutability": "nonpayable",
      "type": "function"
    },
    {
      "inputs": [
        {
          "internalType": "address",
          "name": "",
          "type": "address"
        },
        {
          "internalType": "address",
          "name": "",
          "type": "address"
        },
        {
          "internalType": "uint256",
          "name": "",
          "type": "uint256"
        },
        {
          "internalType": "uint256",
          "name": "",
          "type": "uint256"
        },
        {
          "internalType": "bytes",
          "name": "",
          "type": "bytes"
        }
      ],
      "name": "onERC1155Received",
      "outputs": [
        {
          "internalType": "bytes4",
          "name": "",
          "type": "bytes4"
        }
      ],
      "stateMutability": "nonpayable",
      "type": "function"
    },
    {
      "inputs": [
        {
          "internalType": "bytes4",
          "name": "interfaceId",
          "type": "bytes4"
        }
      ],
      "name": "supportsInterface",
      "outputs": [
        {
          "internalType": "bool",
          "name": "",
          "type": "bool"
        }
      ],
      "stateMutability": "view",
      "type": "function"
    },
    {
      "inputs": [
        {
          "internalType": "address",
          "name": "sender",
          "type": "address"
        },
        {
          "internalType": "uint256",
          "name": "amount0",
          "type": "uint256"
        },
        {
          "internalType": "uint256",
          "name": "amount1",
          "type": "uint256"
        },
        {
          "internalType": "bytes",
          "name": "data",
          "type": "bytes"
        }
      ],
      "name": "uniswapV2Call",
      "outputs": [],
      "stateMutability": "nonpayable",
      "type": "function"
    }
  ],
  "bytecode": "60e060405234801561001057600080fd5b5060405161167c38038061167c8339818101604052606081101561003357600080fd5b50805160208201516040909201519091906100546301ffc9a760e01b61008b565b610064630271189760e51b61008b565b6001600160601b0319606093841b811660805291831b821660a05290911b1660c05261010f565b6001600160e01b031980821614156100ea576040805162461bcd60e51b815260206004820152601c60248201527f4552433136353a20696e76616c696420696e7465726661636520696400000000604482015290519081900360640190fd5b6001600160e01b0319166000908152602081905260409020805460ff19166001179055565b60805160601c60a05160601c60c05160601c61152461015860003980610731525080610500528061059b528061065b5250806103ff5280610cec5280610e0452506115246000f3fe608060405234801561001057600080fd5b506004361061004c5760003560e01c806301ffc9a71461005157806310d1e85c1461008c578063bc197c8114610118578063f23a6e611461025c575b600080fd5b6100786004803603602081101561006757600080fd5b50356001600160e01b0319166102ef565b604080519115158252519081900360200190f35b610116600480360360808110156100a257600080fd5b6001600160a01b038235169160208101359160408201359190810190608081016060820135600160201b8111156100d857600080fd5b8201836020820111156100ea57600080fd5b803590602001918460018302840111600160201b8311171561010b57600080fd5b50909250905061030e565b005b61023f600480360360a081101561012e57600080fd5b6001600160a01b038235811692602081013590911691810190606081016040820135600160201b81111561016157600080fd5b82018360208201111561017357600080fd5b803590602001918460208302840111600160201b8311171561019457600080fd5b919390929091602081019035600160201b8111156101b157600080fd5b8201836020820111156101c357600080fd5b803590602001918460208302840111600160201b831117156101e457600080fd5b919390929091602081019035600160201b81111561020157600080fd5b82018360208201111561021357600080fd5b803590602001918460018302840111600160201b8311171561023457600080fd5b5090925090506111c1565b604080516001600160e01b03199092168252519081900360200190f35b61023f600480360360a081101561027257600080fd5b6001600160a01b03823581169260208101359091169160408201359160608101359181019060a081016080820135600160201b8111156102b157600080fd5b8201836020820111156102c357600080fd5b803590602001918460018302840111600160201b831117156102e457600080fd5b5090925090506111d5565b6001600160e01b03191660009081526020819052604090205460ff1690565b6000806000336001600160a01b0316630dfe16816040518163ffffffff1660e01b815260040160206040518083038186803b15801561034c57600080fd5b505afa158015610360573d6000803e3d6000fd5b505050506040513d602081101561037657600080fd5b50516040805163d21220a760e01b81529051919250600091339163d21220a7916004808301926020929190829003018186803b1580156103b557600080fd5b505afa1580156103c9573d6000803e3d6000fd5b505050506040513d60208110156103df57600080fd5b5051905087156103f4578193508792506103fb565b8093508692505b60007f00000000000000000000000000000000000000000000000000000000000000006001600160a01b031663c45a01556040518163ffffffff1660e01b815260040160206040518083038186803b15801561045657600080fd5b505afa15801561046a573d6000803e3d6000fd5b505050506040513d602081101561048057600080fd5b5051905061048f8184846111e7565b6001600160a01b0316336001600160a01b0316146104a957fe5b8815806104b4575087155b6104ba57fe5b505050600080858560208110156104d057600080fd5b506040805163519f509960e01b815291356004830181905290519092506000918291829182916001600160a01b037f0000000000000000000000000000000000000000000000000000000000000000169163519f5099916024808301926080929190829003018186803b15801561054657600080fd5b505afa15801561055a573d6000803e3d6000fd5b505050506040513d608081101561057057600080fd5b508051602080830151604080850151606090950151815163095ea7b360e01b81526001600160a01b037f00000000000000000000000000000000000000000000000000000000000000008116600483015260001960248301529251959a50929850949650939450928b169263095ea7b392604480830193928290030181600087803b1580156105fe57600080fd5b505af1158015610612573d6000803e3d6000fd5b505050506040513d602081101561062857600080fd5b505060408051631e6f47ab60e21b8152600481018790526001600160a01b038a81166024830152600019604483015291517f0000000000000000000000000000000000000000000000000000000000000000909216916379bd1eac9160648082019260009290919082900301818387803b1580156106a557600080fd5b505af11580156106b9573d6000803e3d6000fd5b50505050826001600160a01b031663a4775772836040518263ffffffff1660e01b81526004018082815260200191505060206040518083038186803b15801561070157600080fd5b505afa158015610715573d6000803e3d6000fd5b505050506040513d602081101561072b57600080fd5b505195507f00000000000000000000000000000000000000000000000000000000000000006001600160a01b0390811690841614156107d857826001600160a01b0316639dc29fac83836040518363ffffffff1660e01b815260040180836001600160a01b0316815260200182815260200192505050600060405180830381600087803b1580156107bb57600080fd5b505af11580156107cf573d6000803e3d6000fd5b50505050610853565b826001600160a01b031663b390c0ab83836040518363ffffffff1660e01b81526004018083815260200182815260200192505050602060405180830381600087803b15801561082657600080fd5b505af115801561083a573d6000803e3d6000fd5b505050506040513d602081101561085057600080fd5b50505b6040805163a9059cbb60e01b81526001600160a01b0388166004820181905260248201849052915163a9059cbb916044808201926020929091908290030181600087803b1580156108a357600080fd5b505af11580156108b7573d6000803e3d6000fd5b505050506040513d60208110156108cd57600080fd5b50506040805163226bf2d160e21b815230600482015281516001600160a01b038916926389afcb4492602480820193918290030181600087803b15801561091357600080fd5b505af1158015610927573d6000803e3d6000fd5b505050506040513d604081101561093d57600080fd5b506000955061096f94506001935061096992506103e591506109639050876103e86112a7565b90611309565b90611370565b9050600080836001600160a01b0316630dfe16816040518163ffffffff1660e01b815260040160206040518083038186803b1580156109ad57600080fd5b505afa1580156109c1573d6000803e3d6000fd5b505050506040513d60208110156109d757600080fd5b50516040805163d21220a760e01b815290519192506000916001600160a01b0387169163d21220a7916004808301926020929190829003018186803b158015610a1f57600080fd5b505afa158015610a33573d6000803e3d6000fd5b505050506040513d6020811015610a4957600080fd5b5051604080516370a0823160e01b815230600482015290519192506000916001600160a01b038516916370a08231916024808301926020929190829003018186803b158015610a9757600080fd5b505afa158015610aab573d6000803e3d6000fd5b505050506040513d6020811015610ac157600080fd5b5051604080516370a0823160e01b815230600482015290519192506000916001600160a01b038516916370a08231916024808301926020929190829003018186803b158015610b0f57600080fd5b505afa158015610b23573d6000803e3d6000fd5b505050506040513d6020811015610b3957600080fd5b505190506001600160a01b03848116908a161415610bf9578294506000828711610b635786610b65565b825b9050896001600160a01b031663a9059cbb33836040518363ffffffff1660e01b815260040180836001600160a01b0316815260200182815260200192505050602060405180830381600087803b158015610bbe57600080fd5b505af1158015610bd2573d6000803e3d6000fd5b505050506040513d6020811015610be857600080fd5b5051610bf057fe5b90950394610c9d565b8394506000818711610c0b5786610c0d565b815b9050896001600160a01b031663a9059cbb33836040518363ffffffff1660e01b815260040180836001600160a01b0316815260200182815260200192505050602060405180830381600087803b158015610c6657600080fd5b505af1158015610c7a573d6000803e3d6000fd5b505050506040513d6020811015610c9057600080fd5b5051610c9857fe5b909503945b886001600160a01b0316846001600160a01b03161480610cce5750886001600160a01b0316836001600160a01b0316145b610cd757600080fd5b50505050806001600160a01b031663095ea7b37f00000000000000000000000000000000000000000000000000000000000000006000196040518363ffffffff1660e01b815260040180836001600160a01b0316815260200182815260200192505050602060405180830381600087803b158015610d5457600080fd5b505af1158015610d68573d6000803e3d6000fd5b505050506040513d6020811015610d7e57600080fd5b50508115610fa15760408051600280825260608083018452926020830190803683370190505090508181600081518110610db457fe5b60200260200101906001600160a01b031690816001600160a01b0316815250508581600181518110610de257fe5b60200260200101906001600160a01b031690816001600160a01b0316815250507f00000000000000000000000000000000000000000000000000000000000000006001600160a01b0316638803dbee8460001984336000196040518663ffffffff1660e01b81526004018086815260200185815260200180602001846001600160a01b03168152602001838152602001828103825285818151815260200191508051906020019060200280838360005b83811015610eaa578181015183820152602001610e92565b505050509050019650505050505050600060405180830381600087803b158015610ed357600080fd5b505af1158015610ee7573d6000803e3d6000fd5b505050506040513d6000823e601f3d908101601f191682016040526020811015610f1057600080fd5b8101908080516040519392919084600160201b821115610f2f57600080fd5b908301906020820185811115610f4457600080fd5b82518660208202830111600160201b82111715610f6057600080fd5b82525081516020918201928201910280838360005b83811015610f8d578181015183820152602001610f75565b5050505090500160405250505050506110ab565b846001600160a01b031663a9059cbb8b876001600160a01b03166370a08231306040518263ffffffff1660e01b815260040180826001600160a01b0316815260200191505060206040518083038186803b158015610ffe57600080fd5b505afa158015611012573d6000803e3d6000fd5b505050506040513d602081101561102857600080fd5b5051604080516001600160e01b031960e086901b1681526001600160a01b03909316600484015260248301919091525160448083019260209291908290030181600087803b15801561107957600080fd5b505af115801561108d573d6000803e3d6000fd5b505050506040513d60208110156110a357600080fd5b50516110ab57fe5b806001600160a01b031663a9059cbb8b836001600160a01b03166370a08231306040518263ffffffff1660e01b815260040180826001600160a01b0316815260200191505060206040518083038186803b15801561110857600080fd5b505afa15801561111c573d6000803e3d6000fd5b505050506040513d602081101561113257600080fd5b5051604080516001600160e01b031960e086901b1681526001600160a01b03909316600484015260248301919091525160448083019260209291908290030181600087803b15801561118357600080fd5b505af1158015611197573d6000803e3d6000fd5b505050506040513d60208110156111ad57600080fd5b50516111b557fe5b50505050505050505050565b63bc197c8160e01b98975050505050505050565b63f23a6e6160e01b9695505050505050565b60008060006111f685856113ca565b604080516bffffffffffffffffffffffff19606094851b811660208084019190915293851b81166034830152825160288184030181526048830184528051908501206001600160f81b031960688401529a90941b9093166069840152607d8301989098527fb3b8ff62960acea3a88039ebcf80699f15786f1b17cebd82802f7375827a339c609d808401919091528851808403909101815260bd909201909752805196019590952095945050505050565b6000826112b657506000611303565b828202828482816112c357fe5b04146113005760405162461bcd60e51b81526004018080602001828103825260218152602001806114ce6021913960400191505060405180910390fd5b90505b92915050565b600080821161135f576040805162461bcd60e51b815260206004820152601a60248201527f536166654d6174683a206469766973696f6e206279207a65726f000000000000604482015290519081900360640190fd5b81838161136857fe5b049392505050565b600082820183811015611300576040805162461bcd60e51b815260206004820152601b60248201527f536166654d6174683a206164646974696f6e206f766572666c6f770000000000604482015290519081900360640190fd5b600080826001600160a01b0316846001600160a01b0316141561141e5760405162461bcd60e51b81526004018080602001828103825260258152602001806114a96025913960400191505060405180910390fd5b826001600160a01b0316846001600160a01b03161061143e578284611441565b83835b90925090506001600160a01b0382166114a1576040805162461bcd60e51b815260206004820152601e60248201527f556e697377617056324c6962726172793a205a45524f5f414444524553530000604482015290519081900360640190fd5b925092905056fe556e697377617056324c6962726172793a204944454e544943414c5f414444524553534553536166654d6174683a206d756c7469706c69636174696f6e206f766572666c6f77a26469706673582212203db154e77cc0307fa8c787e1b0b14cbb25320417fec59b47a1743b148aa33c9264736f6c634300060c0033",
  "bytecodeSha1": "9af3069d5f6b5946ed40e977694b664b816409aa",
  "compiler": {
    "evm_version": "istanbul",
    "optimizer": {
      "enabled": true,
      "runs": 200
    },
    "version": "0.6.12+commit.27d51765"
  },
  "contractName": "DahliaLiquidator",
  "language": "Solidity",
  "natspec": {
    "kind": "dev",
    "methods": {
      "supportsInterface(bytes4)": {
        "details": "See {IERC165-supportsInterface}. Time complexity O(1), guaranteed to always use less than 30 000 gas."
      }
    },
    "version": 1
  },
  "opcodes": "PUSH1 0x80 PUSH1 0x40 MSTORE CALLVALUE DUP1 ISZERO PUSH2 0x10 JUMPI PUSH1 0x0 DUP1 REVERT JUMPDEST POP PUSH1 0x4 CALLDATASIZE LT PUSH2 0x4C JUMPI PUSH1 0x0 CALLDATALOAD PUSH1 0xE0 SHR DUP1 PUSH4 0x1FFC9A7 EQ PUSH2 0x51 JUMPI DUP1 PUSH4 0x10D1E85C EQ PUSH2 0x8C JUMPI DUP1 PUSH4 0xBC197C81 EQ PUSH2 0x118 JUMPI DUP1 PUSH4 0xF23A6E61 EQ PUSH2 0x25C JUMPI JUMPDEST PUSH1 0x0 DUP1 REVERT JUMPDEST PUSH2 0x78 PUSH1 0x4 DUP1 CALLDATASIZE SUB PUSH1 0x20 DUP2 LT ISZERO PUSH2 0x67 JUMPI PUSH1 0x0 DUP1 REVERT JUMPDEST POP CALLDATALOAD PUSH1 0x1 PUSH1 0x1 PUSH1 0xE0 SHL SUB NOT AND PUSH2 0x2EF JUMP JUMPDEST PUSH1 0x40 DUP1 MLOAD SWAP2 ISZERO ISZERO DUP3 MSTORE MLOAD SWAP1 DUP2 SWAP1 SUB PUSH1 0x20 ADD SWAP1 RETURN JUMPDEST PUSH2 0x116 PUSH1 0x4 DUP1 CALLDATASIZE SUB PUSH1 0x80 DUP2 LT ISZERO PUSH2 0xA2 JUMPI PUSH1 0x0 DUP1 REVERT JUMPDEST PUSH1 0x1 PUSH1 0x1 PUSH1 0xA0 SHL SUB DUP3 CALLDATALOAD AND SWAP2 PUSH1 0x20 DUP2 ADD CALLDATALOAD SWAP2 PUSH1 0x40 DUP3 ADD CALLDATALOAD SWAP2 SWAP1 DUP2 ADD SWAP1 PUSH1 0x80 DUP2 ADD PUSH1 0x60 DUP3 ADD CALLDATALOAD PUSH1 0x1 PUSH1 0x20 SHL DUP2 GT ISZERO PUSH2 0xD8 JUMPI PUSH1 0x0 DUP1 REVERT JUMPDEST DUP3 ADD DUP4 PUSH1 0x20 DUP3 ADD GT ISZERO PUSH2 0xEA JUMPI PUSH1 0x0 DUP1 REVERT JUMPDEST DUP1 CALLDATALOAD SWAP1 PUSH1 0x20 ADD SWAP2 DUP5 PUSH1 0x1 DUP4 MUL DUP5 ADD GT PUSH1 0x1 PUSH1 0x20 SHL DUP4 GT OR ISZERO PUSH2 0x10B JUMPI PUSH1 0x0 DUP1 REVERT JUMPDEST POP SWAP1 SWAP3 POP SWAP1 POP PUSH2 0x30E JUMP JUMPDEST STOP JUMPDEST PUSH2 0x23F PUSH1 0x4 DUP1 CALLDATASIZE SUB PUSH1 0xA0 DUP2 LT ISZERO PUSH2 0x12E JUMPI PUSH1 0x0 DUP1 REVERT JUMPDEST PUSH1 0x1 PUSH1 0x1 PUSH1 0xA0 SHL SUB DUP3 CALLDATALOAD DUP2 AND SWAP3 PUSH1 0x20 DUP2 ADD CALLDATALOAD SWAP1 SWAP2 AND SWAP2 DUP2 ADD SWAP1 PUSH1 0x60 DUP2 ADD PUSH1 0x40 DUP3 ADD CALLDATALOAD PUSH1 0x1 PUSH1 0x20 SHL DUP2 GT ISZERO PUSH2 0x161 JUMPI PUSH1 0x0 DUP1 REVERT JUMPDEST DUP3 ADD DUP4 PUSH1 0x20 DUP3 ADD GT ISZERO PUSH2 0x173 JUMPI PUSH1 0x0 DUP1 REVERT JUMPDEST DUP1 CALLDATALOAD SWAP1 PUSH1 0x20 ADD SWAP2 DUP5 PUSH1 0x20 DUP4 MUL DUP5 ADD GT PUSH1 0x1 PUSH1 0x20 SHL DUP4 GT OR ISZERO PUSH2 0x194 JUMPI PUSH1 0x0 DUP1 REVERT JUMPDEST SWAP2 SWAP4 SWAP1 SWAP3 SWAP1 SWAP2 PUSH1 0x20 DUP2 ADD SWAP1 CALLDATALOAD PUSH1 0x1 PUSH1 0x20 SHL DUP2 GT ISZERO PUSH2 0x1B1 JUMPI PUSH1 0x0 DUP1 REVERT JUMPDEST DUP3 ADD DUP4 PUSH1 0x20 DUP3 ADD GT ISZERO PUSH2 0x1C3 JUMPI PUSH1 0x0 DUP1 REVERT JUMPDEST DUP1 CALLDATALOAD SWAP1 PUSH1 0x20 ADD SWAP2 DUP5 PUSH1 0x20 DUP4 MUL DUP5 ADD GT PUSH1 0x1 PUSH1 0x20 SHL DUP4 GT OR ISZERO PUSH2 0x1E4 JUMPI PUSH1 0x0 DUP1 REVERT JUMPDEST SWAP2 SWAP4 SWAP1 SWAP3 SWAP1 SWAP2 PUSH1 0x20 DUP2 ADD SWAP1 CALLDATALOAD PUSH1 0x1 PUSH1 0x20 SHL DUP2 GT ISZERO PUSH2 0x201 JUMPI PUSH1 0x0 DUP1 REVERT JUMPDEST DUP3 ADD DUP4 PUSH1 0x20 DUP3 ADD GT ISZERO PUSH2 0x213 JUMPI PUSH1 0x0 DUP1 REVERT JUMPDEST DUP1 CALLDATALOAD SWAP1 PUSH1 0x20 ADD SWAP2 DUP5 PUSH1 0x1 DUP4 MUL DUP5 ADD GT PUSH1 0x1 PUSH1 0x20 SHL DUP4 GT OR ISZERO PUSH2 0x234 JUMPI PUSH1 0x0 DUP1 REVERT JUMPDEST POP SWAP1 SWAP3 POP SWAP1 POP PUSH2 0x11C1 JUMP JUMPDEST PUSH1 0x40 DUP1 MLOAD PUSH1 0x1 PUSH1 0x1 PUSH1 0xE0 SHL SUB NOT SWAP1 SWAP3 AND DUP3 MSTORE MLOAD SWAP1 DUP2 SWAP1 SUB PUSH1 0x20 ADD SWAP1 RETURN JUMPDEST PUSH2 0x23F PUSH1 0x4 DUP1 CALLDATASIZE SUB PUSH1 0xA0 DUP2 LT ISZERO PUSH2 0x272 JUMPI PUSH1 0x0 DUP1 REVERT JUMPDEST PUSH1 0x1 PUSH1 0x1 PUSH1 0xA0 SHL SUB DUP3 CALLDATALOAD DUP2 AND SWAP3 PUSH1 0x20 DUP2 ADD CALLDATALOAD SWAP1 SWAP2 AND SWAP2 PUSH1 0x40 DUP3 ADD CALLDATALOAD SWAP2 PUSH1 0x60 DUP2 ADD CALLDATALOAD SWAP2 DUP2 ADD SWAP1 PUSH1 0xA0 DUP2 ADD PUSH1 0x80 DUP3 ADD CALLDATALOAD PUSH1 0x1 PUSH1 0x20 SHL DUP2 GT ISZERO PUSH2 0x2B1 JUMPI PUSH1 0x0 DUP1 REVERT JUMPDEST DUP3 ADD DUP4 PUSH1 0x20 DUP3 ADD GT ISZERO PUSH2 0x2C3 JUMPI PUSH1 0x0 DUP1 REVERT JUMPDEST DUP1 CALLDATALOAD SWAP1 PUSH1 0x20 ADD SWAP2 DUP5 PUSH1 0x1 DUP4 MUL DUP5 ADD GT PUSH1 0x1 PUSH1 0x20 SHL DUP4 GT OR ISZERO PUSH2 0x2E4 JUMPI PUSH1 0x0 DUP1 REVERT JUMPDEST POP SWAP1 SWAP3 POP SWAP1 POP PUSH2 0x11D5 JUMP JUMPDEST PUSH1 0x1 PUSH1 0x1 PUSH1 0xE0 SHL SUB NOT AND PUSH1 0x0 SWAP1 DUP2 MSTORE PUSH1 0x20 DUP2 SWAP1 MSTORE PUSH1 0x40 SWAP1 KECCAK256 SLOAD PUSH1 0xFF AND SWAP1 JUMP JUMPDEST PUSH1 0x0 DUP1 PUSH1 0x0 CALLER PUSH1 0x1 PUSH1 0x1 PUSH1 0xA0 SHL SUB AND PUSH4 0xDFE1681 PUSH1 0x40 MLOAD DUP2 PUSH4 0xFFFFFFFF AND PUSH1 0xE0 SHL DUP2 MSTORE PUSH1 0x4 ADD PUSH1 0x20 PUSH1 0x40 MLOAD DUP1 DUP4 SUB DUP2 DUP7 DUP1 EXTCODESIZE ISZERO DUP1 ISZERO PUSH2 0x34C JUMPI PUSH1 0x0 DUP1 REVERT JUMPDEST POP GAS STATICCALL ISZERO DUP1 ISZERO PUSH2 0x360 JUMPI RETURNDATASIZE PUSH1 0x0 DUP1 RETURNDATACOPY RETURNDATASIZE PUSH1 0x0 REVERT JUMPDEST POP POP POP POP PUSH1 0x40 MLOAD RETURNDATASIZE PUSH1 0x20 DUP2 LT ISZERO PUSH2 0x376 JUMPI PUSH1 0x0 DUP1 REVERT JUMPDEST POP MLOAD PUSH1 0x40 DUP1 MLOAD PUSH4 0xD21220A7 PUSH1 0xE0 SHL DUP2 MSTORE SWAP1 MLOAD SWAP2 SWAP3 POP PUSH1 0x0 SWAP2 CALLER SWAP2 PUSH4 0xD21220A7 SWAP2 PUSH1 0x4 DUP1 DUP4 ADD SWAP3 PUSH1 0x20 SWAP3 SWAP2 SWAP1 DUP3 SWAP1 SUB ADD DUP2 DUP7 DUP1 EXTCODESIZE ISZERO DUP1 ISZERO PUSH2 0x3B5 JUMPI PUSH1 0x0 DUP1 REVERT JUMPDEST POP GAS STATICCALL ISZERO DUP1 ISZERO PUSH2 0x3C9 JUMPI RETURNDATASIZE PUSH1 0x0 DUP1 RETURNDATACOPY RETURNDATASIZE PUSH1 0x0 REVERT JUMPDEST POP POP POP POP PUSH1 0x40 MLOAD RETURNDATASIZE PUSH1 0x20 DUP2 LT ISZERO PUSH2 0x3DF JUMPI PUSH1 0x0 DUP1 REVERT JUMPDEST POP MLOAD SWAP1 POP DUP8 ISZERO PUSH2 0x3F4 JUMPI DUP2 SWAP4 POP DUP8 SWAP3 POP PUSH2 0x3FB JUMP JUMPDEST DUP1 SWAP4 POP DUP7 SWAP3 POP JUMPDEST PUSH1 0x0 PUSH32 0x0 PUSH1 0x1 PUSH1 0x1 PUSH1 0xA0 SHL SUB AND PUSH4 0xC45A0155 PUSH1 0x40 MLOAD DUP2 PUSH4 0xFFFFFFFF AND PUSH1 0xE0 SHL DUP2 MSTORE PUSH1 0x4 ADD PUSH1 0x20 PUSH1 0x40 MLOAD DUP1 DUP4 SUB DUP2 DUP7 DUP1 EXTCODESIZE ISZERO DUP1 ISZERO PUSH2 0x456 JUMPI PUSH1 0x0 DUP1 REVERT JUMPDEST POP GAS STATICCALL ISZERO DUP1 ISZERO PUSH2 0x46A JUMPI RETURNDATASIZE PUSH1 0x0 DUP1 RETURNDATACOPY RETURNDATASIZE PUSH1 0x0 REVERT JUMPDEST POP POP POP POP PUSH1 0x40 MLOAD RETURNDATASIZE PUSH1 0x20 DUP2 LT ISZERO PUSH2 0x480 JUMPI PUSH1 0x0 DUP1 REVERT JUMPDEST POP MLOAD SWAP1 POP PUSH2 0x48F DUP2 DUP5 DUP5 PUSH2 0x11E7 JUMP JUMPDEST PUSH1 0x1 PUSH1 0x1 PUSH1 0xA0 SHL SUB AND CALLER PUSH1 0x1 PUSH1 0x1 PUSH1 0xA0 SHL SUB AND EQ PUSH2 0x4A9 JUMPI INVALID JUMPDEST DUP9 ISZERO DUP1 PUSH2 0x4B4 JUMPI POP DUP8 ISZERO JUMPDEST PUSH2 0x4BA JUMPI INVALID JUMPDEST POP POP POP PUSH1 0x0 DUP1 DUP6 DUP6 PUSH1 0x20 DUP2 LT ISZERO PUSH2 0x4D0 JUMPI PUSH1 0x0 DUP1 REVERT JUMPDEST POP PUSH1 0x40 DUP1 MLOAD PUSH4 0x519F5099 PUSH1 0xE0 SHL DUP2 MSTORE SWAP2 CALLDATALOAD PUSH1 0x4 DUP4 ADD DUP2 SWAP1 MSTORE SWAP1 MLOAD SWAP1 SWAP3 POP PUSH1 0x0 SWAP2 DUP3 SWAP2 DUP3 SWAP2 DUP3 SWAP2 PUSH1 0x1 PUSH1 0x1 PUSH1 0xA0 SHL SUB PUSH32 0x0 AND SWAP2 PUSH4 0x519F5099 SWAP2 PUSH1 0x24 DUP1 DUP4 ADD SWAP3 PUSH1 0x80 SWAP3 SWAP2 SWAP1 DUP3 SWAP1 SUB ADD DUP2 DUP7 DUP1 EXTCODESIZE ISZERO DUP1 ISZERO PUSH2 0x546 JUMPI PUSH1 0x0 DUP1 REVERT JUMPDEST POP GAS STATICCALL ISZERO DUP1 ISZERO PUSH2 0x55A JUMPI RETURNDATASIZE PUSH1 0x0 DUP1 RETURNDATACOPY RETURNDATASIZE PUSH1 0x0 REVERT JUMPDEST POP POP POP POP PUSH1 0x40 MLOAD RETURNDATASIZE PUSH1 0x80 DUP2 LT ISZERO PUSH2 0x570 JUMPI PUSH1 0x0 DUP1 REVERT JUMPDEST POP DUP1 MLOAD PUSH1 0x20 DUP1 DUP4 ADD MLOAD PUSH1 0x40 DUP1 DUP6 ADD MLOAD PUSH1 0x60 SWAP1 SWAP6 ADD MLOAD DUP2 MLOAD PUSH4 0x95EA7B3 PUSH1 0xE0 SHL DUP2 MSTORE PUSH1 0x1 PUSH1 0x1 PUSH1 0xA0 SHL SUB PUSH32 0x0 DUP2 AND PUSH1 0x4 DUP4 ADD MSTORE PUSH1 0x0 NOT PUSH1 0x24 DUP4 ADD MSTORE SWAP3 MLOAD SWAP6 SWAP11 POP SWAP3 SWAP9 POP SWAP5 SWAP7 POP SWAP4 SWAP5 POP SWAP3 DUP12 AND SWAP3 PUSH4 0x95EA7B3 SWAP3 PUSH1 0x44 DUP1 DUP4 ADD SWAP4 SWAP3 DUP3 SWAP1 SUB ADD DUP2 PUSH1 0x0 DUP8 DUP1 EXTCODESIZE ISZERO DUP1 ISZERO PUSH2 0x5FE JUMPI PUSH1 0x0 DUP1 REVERT JUMPDEST POP GAS CALL ISZERO DUP1 ISZERO PUSH2 0x612 JUMPI RETURNDATASIZE PUSH1 0x0 DUP1 RETURNDATACOPY RETURNDATASIZE PUSH1 0x0 REVERT JUMPDEST POP POP POP POP PUSH1 0x40 MLOAD RETURNDATASIZE PUSH1 0x20 DUP2 LT ISZERO PUSH2 0x628 JUMPI PUSH1 0x0 DUP1 REVERT JUMPDEST POP POP PUSH1 0x40 DUP1 MLOAD PUSH4 0x1E6F47AB PUSH1 0xE2 SHL DUP2 MSTORE PUSH1 0x4 DUP2 ADD DUP8 SWAP1 MSTORE PUSH1 0x1 PUSH1 0x1 PUSH1 0xA0 SHL SUB DUP11 DUP2 AND PUSH1 0x24 DUP4 ADD MSTORE PUSH1 0x0 NOT PUSH1 0x44 DUP4 ADD MSTORE SWAP2 MLOAD PUSH32 0x0 SWAP1 SWAP3 AND SWAP2 PUSH4 0x79BD1EAC SWAP2 PUSH1 0x64 DUP1 DUP3 ADD SWAP3 PUSH1 0x0 SWAP3 SWAP1 SWAP2 SWAP1 DUP3 SWAP1 SUB ADD DUP2 DUP4 DUP8 DUP1 EXTCODESIZE ISZERO DUP1 ISZERO PUSH2 0x6A5 JUMPI PUSH1 0x0 DUP1 REVERT JUMPDEST POP GAS CALL ISZERO DUP1 ISZERO PUSH2 0x6B9 JUMPI RETURNDATASIZE PUSH1 0x0 DUP1 RETURNDATACOPY RETURNDATASIZE PUSH1 0x0 REVERT JUMPDEST POP POP POP POP DUP3 PUSH1 0x1 PUSH1 0x1 PUSH1 0xA0 SHL SUB AND PUSH4 0xA4775772 DUP4 PUSH1 0x40 MLOAD DUP3 PUSH4 0xFFFFFFFF AND PUSH1 0xE0 SHL DUP2 MSTORE PUSH1 0x4 ADD DUP1 DUP3 DUP2 MSTORE PUSH1 0x20 ADD SWAP2 POP POP PUSH1 0x20 PUSH1 0x40 MLOAD DUP1 DUP4 SUB DUP2 DUP7 DUP1 EXTCODESIZE ISZERO DUP1 ISZERO PUSH2 0x701 JUMPI PUSH1 0x0 DUP1 REVERT JUMPDEST POP GAS STATICCALL ISZERO DUP1 ISZERO PUSH2 0x715 JUMPI RETURNDATASIZE PUSH1 0x0 DUP1 RETURNDATACOPY RETURNDATASIZE PUSH1 0x0 REVERT JUMPDEST POP POP POP POP PUSH1 0x40 MLOAD RETURNDATASIZE PUSH1 0x20 DUP2 LT ISZERO PUSH2 0x72B JUMPI PUSH1 0x0 DUP1 REVERT JUMPDEST POP MLOAD SWAP6 POP PUSH32 0x0 PUSH1 0x1 PUSH1 0x1 PUSH1 0xA0 SHL SUB SWAP1 DUP2 AND SWAP1 DUP5 AND EQ ISZERO PUSH2 0x7D8 JUMPI DUP3 PUSH1 0x1 PUSH1 0x1 PUSH1 0xA0 SHL SUB AND PUSH4 0x9DC29FAC DUP4 DUP4 PUSH1 0x40 MLOAD DUP4 PUSH4 0xFFFFFFFF AND PUSH1 0xE0 SHL DUP2 MSTORE PUSH1 0x4 ADD DUP1 DUP4 PUSH1 0x1 PUSH1 0x1 PUSH1 0xA0 SHL SUB AND DUP2 MSTORE PUSH1 0x20 ADD DUP3 DUP2 MSTORE PUSH1 0x20 ADD SWAP3 POP POP POP PUSH1 0x0 PUSH1 0x40 MLOAD DUP1 DUP4 SUB DUP2 PUSH1 0x0 DUP8 DUP1 EXTCODESIZE ISZERO DUP1 ISZERO PUSH2 0x7BB JUMPI PUSH1 0x0 DUP1 REVERT JUMPDEST POP GAS CALL ISZERO DUP1 ISZERO PUSH2 0x7CF JUMPI RETURNDATASIZE PUSH1 0x0 DUP1 RETURNDATACOPY RETURNDATASIZE PUSH1 0x0 REVERT JUMPDEST POP POP POP POP PUSH2 0x853 JUMP JUMPDEST DUP3 PUSH1 0x1 PUSH1 0x1 PUSH1 0xA0 SHL SUB AND PUSH4 0xB390C0AB DUP4 DUP4 PUSH1 0x40 MLOAD DUP4 PUSH4 0xFFFFFFFF AND PUSH1 0xE0 SHL DUP2 MSTORE PUSH1 0x4 ADD DUP1 DUP4 DUP2 MSTORE PUSH1 0x20 ADD DUP3 DUP2 MSTORE PUSH1 0x20 ADD SWAP3 POP POP POP PUSH1 0x20 PUSH1 0x40 MLOAD DUP1 DUP4 SUB DUP2 PUSH1 0x0 DUP8 DUP1 EXTCODESIZE ISZERO DUP1 ISZERO PUSH2 0x826 JUMPI PUSH1 0x0 DUP1 REVERT JUMPDEST POP GAS CALL ISZERO DUP1 ISZERO PUSH2 0x83A JUMPI RETURNDATASIZE PUSH1 0x0 DUP1 RETURNDATACOPY RETURNDATASIZE PUSH1 0x0 REVERT JUMPDEST POP POP POP POP PUSH1 0x40 MLOAD RETURNDATASIZE PUSH1 0x20 DUP2 LT ISZERO PUSH2 0x850 JUMPI PUSH1 0x0 DUP1 REVERT JUMPDEST POP POP JUMPDEST PUSH1 0x40 DUP1 MLOAD PUSH4 0xA9059CBB PUSH1 0xE0 SHL DUP2 MSTORE PUSH1 0x1 PUSH1 0x1 PUSH1 0xA0 SHL SUB DUP9 AND PUSH1 0x4 DUP3 ADD DUP2 SWAP1 MSTORE PUSH1 0x24 DUP3 ADD DUP5 SWAP1 MSTORE SWAP2 MLOAD PUSH4 0xA9059CBB SWAP2 PUSH1 0x44 DUP1 DUP3 ADD SWAP3 PUSH1 0x20 SWAP3 SWAP1 SWAP2 SWAP1 DUP3 SWAP1 SUB ADD DUP2 PUSH1 0x0 DUP8 DUP1 EXTCODESIZE ISZERO DUP1 ISZERO PUSH2 0x8A3 JUMPI PUSH1 0x0 DUP1 REVERT JUMPDEST POP GAS CALL ISZERO DUP1 ISZERO PUSH2 0x8B7 JUMPI RETURNDATASIZE PUSH1 0x0 DUP1 RETURNDATACOPY RETURNDATASIZE PUSH1 0x0 REVERT JUMPDEST POP POP POP POP PUSH1 0x40 MLOAD RETURNDATASIZE PUSH1 0x20 DUP2 LT ISZERO PUSH2 0x8CD JUMPI PUSH1 0x0 DUP1 REVERT JUMPDEST POP POP PUSH1 0x40 DUP1 MLOAD PUSH4 0x226BF2D1 PUSH1 0xE2 SHL DUP2 MSTORE ADDRESS PUSH1 0x4 DUP3 ADD MSTORE DUP2 MLOAD PUSH1 0x1 PUSH1 0x1 PUSH1 0xA0 SHL SUB DUP10 AND SWAP3 PUSH4 0x89AFCB44 SWAP3 PUSH1 0x24 DUP1 DUP3 ADD SWAP4 SWAP2 DUP3 SWAP1 SUB ADD DUP2 PUSH1 0x0 DUP8 DUP1 EXTCODESIZE ISZERO DUP1 ISZERO PUSH2 0x913 JUMPI PUSH1 0x0 DUP1 REVERT JUMPDEST POP GAS CALL ISZERO DUP1 ISZERO PUSH2 0x927 JUMPI RETURNDATASIZE PUSH1 0x0 DUP1 RETURNDATACOPY RETURNDATASIZE PUSH1 0x0 REVERT JUMPDEST POP POP POP POP PUSH1 0x40 MLOAD RETURNDATASIZE PUSH1 0x40 DUP2 LT ISZERO PUSH2 0x93D JUMPI PUSH1 0x0 DUP1 REVERT JUMPDEST POP PUSH1 0x0 SWAP6 POP PUSH2 0x96F SWAP5 POP PUSH1 0x1 SWAP4 POP PUSH2 0x969 SWAP3 POP PUSH2 0x3E5 SWAP2 POP PUSH2 0x963 SWAP1 POP DUP8 PUSH2 0x3E8 PUSH2 0x12A7 JUMP JUMPDEST SWAP1 PUSH2 0x1309 JUMP JUMPDEST SWAP1 PUSH2 0x1370 JUMP JUMPDEST SWAP1 POP PUSH1 0x0 DUP1 DUP4 PUSH1 0x1 PUSH1 0x1 PUSH1 0xA0 SHL SUB AND PUSH4 0xDFE1681 PUSH1 0x40 MLOAD DUP2 PUSH4 0xFFFFFFFF AND PUSH1 0xE0 SHL DUP2 MSTORE PUSH1 0x4 ADD PUSH1 0x20 PUSH1 0x40 MLOAD DUP1 DUP4 SUB DUP2 DUP7 DUP1 EXTCODESIZE ISZERO DUP1 ISZERO PUSH2 0x9AD JUMPI PUSH1 0x0 DUP1 REVERT JUMPDEST POP GAS STATICCALL ISZERO DUP1 ISZERO PUSH2 0x9C1 JUMPI RETURNDATASIZE PUSH1 0x0 DUP1 RETURNDATACOPY RETURNDATASIZE PUSH1 0x0 REVERT JUMPDEST POP POP POP POP PUSH1 0x40 MLOAD RETURNDATASIZE PUSH1 0x20 DUP2 LT ISZERO PUSH2 0x9D7 JUMPI PUSH1 0x0 DUP1 REVERT JUMPDEST POP MLOAD PUSH1 0x40 DUP1 MLOAD PUSH4 0xD21220A7 PUSH1 0xE0 SHL DUP2 MSTORE SWAP1 MLOAD SWAP2 SWAP3 POP PUSH1 0x0 SWAP2 PUSH1 0x1 PUSH1 0x1 PUSH1 0xA0 SHL SUB DUP8 AND SWAP2 PUSH4 0xD21220A7 SWAP2 PUSH1 0x4 DUP1 DUP4 ADD SWAP3 PUSH1 0x20 SWAP3 SWAP2 SWAP1 DUP3 SWAP1 SUB ADD DUP2 DUP7 DUP1 EXTCODESIZE ISZERO DUP1 ISZERO PUSH2 0xA1F JUMPI PUSH1 0x0 DUP1 REVERT JUMPDEST POP GAS STATICCALL ISZERO DUP1 ISZERO PUSH2 0xA33 JUMPI RETURNDATASIZE PUSH1 0x0 DUP1 RETURNDATACOPY RETURNDATASIZE PUSH1 0x0 REVERT JUMPDEST POP POP POP POP PUSH1 0x40 MLOAD RETURNDATASIZE PUSH1 0x20 DUP2 LT ISZERO PUSH2 0xA49 JUMPI PUSH1 0x0 DUP1 REVERT JUMPDEST POP MLOAD PUSH1 0x40 DUP1 MLOAD PUSH4 0x70A08231 PUSH1 0xE0 SHL DUP2 MSTORE ADDRESS PUSH1 0x4 DUP3 ADD MSTORE SWAP1 MLOAD SWAP2 SWAP3 POP PUSH1 0x0 SWAP2 PUSH1 0x1 PUSH1 0x1 PUSH1 0xA0 SHL SUB DUP6 AND SWAP2 PUSH4 0x70A08231 SWAP2 PUSH1 0x24 DUP1 DUP4 ADD SWAP3 PUSH1 0x20 SWAP3 SWAP2 SWAP1 DUP3 SWAP1 SUB ADD DUP2 DUP7 DUP1 EXTCODESIZE ISZERO DUP1 ISZERO PUSH2 0xA97 JUMPI PUSH1 0x0 DUP1 REVERT JUMPDEST POP GAS STATICCALL ISZERO DUP1 ISZERO PUSH2 0xAAB JUMPI RETURNDATASIZE PUSH1 0x0 DUP1 RETURNDATACOPY RETURNDATASIZE PUSH1 0x0 REVERT JUMPDEST POP POP POP POP PUSH1 0x40 MLOAD RETURNDATASIZE PUSH1 0x20 DUP2 LT ISZERO PUSH2 0xAC1 JUMPI PUSH1 0x0 DUP1 REVERT JUMPDEST POP MLOAD PUSH1 0x40 DUP1 MLOAD PUSH4 0x70A08231 PUSH1 0xE0 SHL DUP2 MSTORE ADDRESS PUSH1 0x4 DUP3 ADD MSTORE SWAP1 MLOAD SWAP2 SWAP3 POP PUSH1 0x0 SWAP2 PUSH1 0x1 PUSH1 0x1 PUSH1 0xA0 SHL SUB DUP6 AND SWAP2 PUSH4 0x70A08231 SWAP2 PUSH1 0x24 DUP1 DUP4 ADD SWAP3 PUSH1 0x20 SWAP3 SWAP2 SWAP1 DUP3 SWAP1 SUB ADD DUP2 DUP7 DUP1 EXTCODESIZE ISZERO DUP1 ISZERO PUSH2 0xB0F JUMPI PUSH1 0x0 DUP1 REVERT JUMPDEST POP GAS STATICCALL ISZERO DUP1 ISZERO PUSH2 0xB23 JUMPI RETURNDATASIZE PUSH1 0x0 DUP1 RETURNDATACOPY RETURNDATASIZE PUSH1 0x0 REVERT JUMPDEST POP POP POP POP PUSH1 0x40 MLOAD RETURNDATASIZE PUSH1 0x20 DUP2 LT ISZERO PUSH2 0xB39 JUMPI PUSH1 0x0 DUP1 REVERT JUMPDEST POP MLOAD SWAP1 POP PUSH1 0x1 PUSH1 0x1 PUSH1 0xA0 SHL SUB DUP5 DUP2 AND SWAP1 DUP11 AND EQ ISZERO PUSH2 0xBF9 JUMPI DUP3 SWAP5 POP PUSH1 0x0 DUP3 DUP8 GT PUSH2 0xB63 JUMPI DUP7 PUSH2 0xB65 JUMP JUMPDEST DUP3 JUMPDEST SWAP1 POP DUP10 PUSH1 0x1 PUSH1 0x1 PUSH1 0xA0 SHL SUB AND PUSH4 0xA9059CBB CALLER DUP4 PUSH1 0x40 MLOAD DUP4 PUSH4 0xFFFFFFFF AND PUSH1 0xE0 SHL DUP2 MSTORE PUSH1 0x4 ADD DUP1 DUP4 PUSH1 0x1 PUSH1 0x1 PUSH1 0xA0 SHL SUB AND DUP2 MSTORE PUSH1 0x20 ADD DUP3 DUP2 MSTORE PUSH1 0x20 ADD SWAP3 POP POP POP PUSH1 0x20 PUSH1 0x40 MLOAD DUP1 DUP4 SUB DUP2 PUSH1 0x0 DUP8 DUP1 EXTCODESIZE ISZERO DUP1 ISZERO PUSH2 0xBBE JUMPI PUSH1 0x0 DUP1 REVERT JUMPDEST POP GAS CALL ISZERO DUP1 ISZERO PUSH2 0xBD2 JUMPI RETURNDATASIZE PUSH1 0x0 DUP1 RETURNDATACOPY RETURNDATASIZE PUSH1 0x0 REVERT JUMPDEST POP POP POP POP PUSH1 0x40 MLOAD RETURNDATASIZE PUSH1 0x20 DUP2 LT ISZERO PUSH2 0xBE8 JUMPI PUSH1 0x0 DUP1 REVERT JUMPDEST POP MLOAD PUSH2 0xBF0 JUMPI INVALID JUMPDEST SWAP1 SWAP6 SUB SWAP5 PUSH2 0xC9D JUMP JUMPDEST DUP4 SWAP5 POP PUSH1 0x0 DUP2 DUP8 GT PUSH2 0xC0B JUMPI DUP7 PUSH2 0xC0D JUMP JUMPDEST DUP2 JUMPDEST SWAP1 POP DUP10 PUSH1 0x1 PUSH1 0x1 PUSH1 0xA0 SHL SUB AND PUSH4 0xA9059CBB CALLER DUP4 PUSH1 0x40 MLOAD DUP4 PUSH4 0xFFFFFFFF AND PUSH1 0xE0 SHL DUP2 MSTORE PUSH1 0x4 ADD DUP1 DUP4 PUSH1 0x1 PUSH1 0x1 PUSH1 0xA0 SHL SUB AND DUP2 MSTORE PUSH1 0x20 ADD DUP3 DUP2 MSTORE PUSH1 0x20 ADD SWAP3 POP POP POP PUSH1 0x20 PUSH1 0x40 MLOAD DUP1 DUP4 SUB DUP2 PUSH1 0x0 DUP8 DUP1 EXTCODESIZE ISZERO DUP1 ISZERO PUSH2 0xC66 JUMPI PUSH1 0x0 DUP1 REVERT JUMPDEST POP GAS CALL ISZERO DUP1 ISZERO PUSH2 0xC7A JUMPI RETURNDATASIZE PUSH1 0x0 DUP1 RETURNDATACOPY RETURNDATASIZE PUSH1 0x0 REVERT JUMPDEST POP POP POP POP PUSH1 0x40 MLOAD RETURNDATASIZE PUSH1 0x20 DUP2 LT ISZERO PUSH2 0xC90 JUMPI PUSH1 0x0 DUP1 REVERT JUMPDEST POP MLOAD PUSH2 0xC98 JUMPI INVALID JUMPDEST SWAP1 SWAP6 SUB SWAP5 JUMPDEST DUP9 PUSH1 0x1 PUSH1 0x1 PUSH1 0xA0 SHL SUB AND DUP5 PUSH1 0x1 PUSH1 0x1 PUSH1 0xA0 SHL SUB AND EQ DUP1 PUSH2 0xCCE JUMPI POP DUP9 PUSH1 0x1 PUSH1 0x1 PUSH1 0xA0 SHL SUB AND DUP4 PUSH1 0x1 PUSH1 0x1 PUSH1 0xA0 SHL SUB AND EQ JUMPDEST PUSH2 0xCD7 JUMPI PUSH1 0x0 DUP1 REVERT JUMPDEST POP POP POP POP DUP1 PUSH1 0x1 PUSH1 0x1 PUSH1 0xA0 SHL SUB AND PUSH4 0x95EA7B3 PUSH32 0x0 PUSH1 0x0 NOT PUSH1 0x40 MLOAD DUP4 PUSH4 0xFFFFFFFF AND PUSH1 0xE0 SHL DUP2 MSTORE PUSH1 0x4 ADD DUP1 DUP4 PUSH1 0x1 PUSH1 0x1 PUSH1 0xA0 SHL SUB AND DUP2 MSTORE PUSH1 0x20 ADD DUP3 DUP2 MSTORE PUSH1 0x20 ADD SWAP3 POP POP POP PUSH1 0x20 PUSH1 0x40 MLOAD DUP1 DUP4 SUB DUP2 PUSH1 0x0 DUP8 DUP1 EXTCODESIZE ISZERO DUP1 ISZERO PUSH2 0xD54 JUMPI PUSH1 0x0 DUP1 REVERT JUMPDEST POP GAS CALL ISZERO DUP1 ISZERO PUSH2 0xD68 JUMPI RETURNDATASIZE PUSH1 0x0 DUP1 RETURNDATACOPY RETURNDATASIZE PUSH1 0x0 REVERT JUMPDEST POP POP POP POP PUSH1 0x40 MLOAD RETURNDATASIZE PUSH1 0x20 DUP2 LT ISZERO PUSH2 0xD7E JUMPI PUSH1 0x0 DUP1 REVERT JUMPDEST POP POP DUP2 ISZERO PUSH2 0xFA1 JUMPI PUSH1 0x40 DUP1 MLOAD PUSH1 0x2 DUP1 DUP3 MSTORE PUSH1 0x60 DUP1 DUP4 ADD DUP5 MSTORE SWAP3 PUSH1 0x20 DUP4 ADD SWAP1 DUP1 CALLDATASIZE DUP4 CALLDATACOPY ADD SWAP1 POP POP SWAP1 POP DUP2 DUP2 PUSH1 0x0 DUP2 MLOAD DUP2 LT PUSH2 0xDB4 JUMPI INVALID JUMPDEST PUSH1 0x20 MUL PUSH1 0x20 ADD ADD SWAP1 PUSH1 0x1 PUSH1 0x1 PUSH1 0xA0 SHL SUB AND SWAP1 DUP2 PUSH1 0x1 PUSH1 0x1 PUSH1 0xA0 SHL SUB AND DUP2 MSTORE POP POP DUP6 DUP2 PUSH1 0x1 DUP2 MLOAD DUP2 LT PUSH2 0xDE2 JUMPI INVALID JUMPDEST PUSH1 0x20 MUL PUSH1 0x20 ADD ADD SWAP1 PUSH1 0x1 PUSH1 0x1 PUSH1 0xA0 SHL SUB AND SWAP1 DUP2 PUSH1 0x1 PUSH1 0x1 PUSH1 0xA0 SHL SUB AND DUP2 MSTORE POP POP PUSH32 0x0 PUSH1 0x1 PUSH1 0x1 PUSH1 0xA0 SHL SUB AND PUSH4 0x8803DBEE DUP5 PUSH1 0x0 NOT DUP5 CALLER PUSH1 0x0 NOT PUSH1 0x40 MLOAD DUP7 PUSH4 0xFFFFFFFF AND PUSH1 0xE0 SHL DUP2 MSTORE PUSH1 0x4 ADD DUP1 DUP7 DUP2 MSTORE PUSH1 0x20 ADD DUP6 DUP2 MSTORE PUSH1 0x20 ADD DUP1 PUSH1 0x20 ADD DUP5 PUSH1 0x1 PUSH1 0x1 PUSH1 0xA0 SHL SUB AND DUP2 MSTORE PUSH1 0x20 ADD DUP4 DUP2 MSTORE PUSH1 0x20 ADD DUP3 DUP2 SUB DUP3 MSTORE DUP6 DUP2 DUP2 MLOAD DUP2 MSTORE PUSH1 0x20 ADD SWAP2 POP DUP1 MLOAD SWAP1 PUSH1 0x20 ADD SWAP1 PUSH1 0x20 MUL DUP1 DUP4 DUP4 PUSH1 0x0 JUMPDEST DUP4 DUP2 LT ISZERO PUSH2 0xEAA JUMPI DUP2 DUP2 ADD MLOAD DUP4 DUP3 ADD MSTORE PUSH1 0x20 ADD PUSH2 0xE92 JUMP JUMPDEST POP POP POP POP SWAP1 POP ADD SWAP7 POP POP POP POP POP POP POP PUSH1 0x0 PUSH1 0x40 MLOAD DUP1 DUP4 SUB DUP2 PUSH1 0x0 DUP8 DUP1 EXTCODESIZE ISZERO DUP1 ISZERO PUSH2 0xED3 JUMPI PUSH1 0x0 DUP1 REVERT JUMPDEST POP GAS CALL ISZERO DUP1 ISZERO PUSH2 0xEE7 JUMPI RETURNDATASIZE PUSH1 0x0 DUP1 RETURNDATACOPY RETURNDATASIZE PUSH1 0x0 REVERT JUMPDEST POP POP POP POP PUSH1 0x40 MLOAD RETURNDATASIZE PUSH1 0x0 DUP3 RETURNDATACOPY PUSH1 0x1F RETURNDATASIZE SWAP1 DUP2 ADD PUSH1 0x1F NOT AND DUP3 ADD PUSH1 0x40 MSTORE PUSH1 0x20 DUP2 LT ISZERO PUSH2 0xF10 JUMPI PUSH1 0x0 DUP1 REVERT JUMPDEST DUP2 ADD SWAP1 DUP1 DUP1 MLOAD PUSH1 0x40 MLOAD SWAP4 SWAP3 SWAP2 SWAP1 DUP5 PUSH1 0x1 PUSH1 0x20 SHL DUP3 GT ISZERO PUSH2 0xF2F JUMPI PUSH1 0x0 DUP1 REVERT JUMPDEST SWAP1 DUP4 ADD SWAP1 PUSH1 0x20 DUP3 ADD DUP6 DUP2 GT ISZERO PUSH2 0xF44 JUMPI PUSH1 0x0 DUP1 REVERT JUMPDEST DUP3 MLOAD DUP7 PUSH1 0x20 DUP3 MUL DUP4 ADD GT PUSH1 0x1 PUSH1 0x20 SHL DUP3 GT OR ISZERO PUSH2 0xF60 JUMPI PUSH1 0x0 DUP1 REVERT JUMPDEST DUP3 MSTORE POP DUP2 MLOAD PUSH1 0x20 SWAP2 DUP3 ADD SWAP3 DUP3 ADD SWAP2 MUL DUP1 DUP4 DUP4 PUSH1 0x0 JUMPDEST DUP4 DUP2 LT ISZERO PUSH2 0xF8D JUMPI DUP2 DUP2 ADD MLOAD DUP4 DUP3 ADD MSTORE PUSH1 0x20 ADD PUSH2 0xF75 JUMP JUMPDEST POP POP POP POP SWAP1 POP ADD PUSH1 0x40 MSTORE POP POP POP POP POP PUSH2 0x10AB JUMP JUMPDEST DUP5 PUSH1 0x1 PUSH1 0x1 PUSH1 0xA0 SHL SUB AND PUSH4 0xA9059CBB DUP12 DUP8 PUSH1 0x1 PUSH1 0x1 PUSH1 0xA0 SHL SUB AND PUSH4 0x70A08231 ADDRESS PUSH1 0x40 MLOAD DUP3 PUSH4 0xFFFFFFFF AND PUSH1 0xE0 SHL DUP2 MSTORE PUSH1 0x4 ADD DUP1 DUP3 PUSH1 0x1 PUSH1 0x1 PUSH1 0xA0 SHL SUB AND DUP2 MSTORE PUSH1 0x20 ADD SWAP2 POP POP PUSH1 0x20 PUSH1 0x40 MLOAD DUP1 DUP4 SUB DUP2 DUP7 DUP1 EXTCODESIZE ISZERO DUP1 ISZERO PUSH2 0xFFE JUMPI PUSH1 0x0 DUP1 REVERT JUMPDEST POP GAS STATICCALL ISZERO DUP1 ISZERO PUSH2 0x1012 JUMPI RETURNDATASIZE PUSH1 0x0 DUP1 RETURNDATACOPY RETURNDATASIZE PUSH1 0x0 REVERT JUMPDEST POP POP POP POP PUSH1 0x40 MLOAD RETURNDATASIZE PUSH1 0x20 DUP2 LT ISZERO PUSH2 0x1028 JUMPI PUSH1 0x0 DUP1 REVERT JUMPDEST POP MLOAD PUSH1 0x40 DUP1 MLOAD PUSH1 0x1 PUSH1 0x1 PUSH1 0xE0 SHL SUB NOT PUSH1 0xE0 DUP7 SWAP1 SHL AND DUP2 MSTORE PUSH1 0x1 PUSH1 0x1 PUSH1 0xA0 SHL SUB SWAP1 SWAP4 AND PUSH1 0x4 DUP5 ADD MSTORE PUSH1 0x24 DUP4 ADD SWAP2 SWAP1 SWAP2 MSTORE MLOAD PUSH1 0x44 DUP1 DUP4 ADD SWAP3 PUSH1 0x20 SWAP3 SWAP2 SWAP1 DUP3 SWAP1 SUB ADD DUP2 PUSH1 0x0 DUP8 DUP1 EXTCODESIZE ISZERO DUP1 ISZERO PUSH2 0x1079 JUMPI PUSH1 0x0 DUP1 REVERT JUMPDEST POP GAS CALL ISZERO DUP1 ISZERO PUSH2 0x108D JUMPI RETURNDATASIZE PUSH1 0x0 DUP1 RETURNDATACOPY RETURNDATASIZE PUSH1 0x0 REVERT JUMPDEST POP POP POP POP PUSH1 0x40 MLOAD RETURNDATASIZE PUSH1 0x20 DUP2 LT ISZERO PUSH2 0x10A3 JUMPI PUSH1 0x0 DUP1 REVERT JUMPDEST POP MLOAD PUSH2 0x10AB JUMPI INVALID JUMPDEST DUP1 PUSH1 0x1 PUSH1 0x1 PUSH1 0xA0 SHL SUB AND PUSH4 0xA9059CBB DUP12 DUP4 PUSH1 0x1 PUSH1 0x1 PUSH1 0xA0 SHL SUB AND PUSH4 0x70A08231 ADDRESS PUSH1 0x40 MLOAD DUP3 PUSH4 0xFFFFFFFF AND PUSH1 0xE0 SHL DUP2 MSTORE PUSH1 0x4 ADD DUP1 DUP3 PUSH1 0x1 PUSH1 0x1 PUSH1 0xA0 SHL SUB AND DUP2 MSTORE PUSH1 0x20 ADD SWAP2 POP POP PUSH1 0x20 PUSH1 0x40 MLOAD DUP1 DUP4 SUB DUP2 DUP7 DUP1 EXTCODESIZE ISZERO DUP1 ISZERO PUSH2 0x1108 JUMPI PUSH1 0x0 DUP1 REVERT JUMPDEST POP GAS STATICCALL ISZERO DUP1 ISZERO PUSH2 0x111C JUMPI RETURNDATASIZE PUSH1 0x0 DUP1 RETURNDATACOPY RETURNDATASIZE PUSH1 0x0 REVERT JUMPDEST POP POP POP POP PUSH1 0x40 MLOAD RETURNDATASIZE PUSH1 0x20 DUP2 LT ISZERO PUSH2 0x1132 JUMPI PUSH1 0x0 DUP1 REVERT JUMPDEST POP MLOAD PUSH1 0x40 DUP1 MLOAD PUSH1 0x1 PUSH1 0x1 PUSH1 0xE0 SHL SUB NOT PUSH1 0xE0 DUP7 SWAP1 SHL AND DUP2 MSTORE PUSH1 0x1 PUSH1 0x1 PUSH1 0xA0 SHL SUB SWAP1 SWAP4 AND PUSH1 0x4 DUP5 ADD MSTORE PUSH1 0x24 DUP4 ADD SWAP2 SWAP1 SWAP2 MSTORE MLOAD PUSH1 0x44 DUP1 DUP4 ADD SWAP3 PUSH1 0x20 SWAP3 SWAP2 SWAP1 DUP3 SWAP1 SUB ADD DUP2 PUSH1 0x0 DUP8 DUP1 EXTCODESIZE ISZERO DUP1 ISZERO PUSH2 0x1183 JUMPI PUSH1 0x0 DUP1 REVERT JUMPDEST POP GAS CALL ISZERO DUP1 ISZERO PUSH2 0x1197 JUMPI RETURNDATASIZE PUSH1 0x0 DUP1 RETURNDATACOPY RETURNDATASIZE PUSH1 0x0 REVERT JUMPDEST POP POP POP POP PUSH1 0x40 MLOAD RETURNDATASIZE PUSH1 0x20 DUP2 LT ISZERO PUSH2 0x11AD JUMPI PUSH1 0x0 DUP1 REVERT JUMPDEST POP MLOAD PUSH2 0x11B5 JUMPI INVALID JUMPDEST POP POP POP POP POP POP POP POP POP POP JUMP JUMPDEST PUSH4 0xBC197C81 PUSH1 0xE0 SHL SWAP9 SWAP8 POP POP POP POP POP POP POP POP JUMP JUMPDEST PUSH4 0xF23A6E61 PUSH1 0xE0 SHL SWAP7 SWAP6 POP POP POP POP POP POP JUMP JUMPDEST PUSH1 0x0 DUP1 PUSH1 0x0 PUSH2 0x11F6 DUP6 DUP6 PUSH2 0x13CA JUMP JUMPDEST PUSH1 0x40 DUP1 MLOAD PUSH12 0xFFFFFFFFFFFFFFFFFFFFFFFF NOT PUSH1 0x60 SWAP5 DUP6 SHL DUP2 AND PUSH1 0x20 DUP1 DUP5 ADD SWAP2 SWAP1 SWAP2 MSTORE SWAP4 DUP6 SHL DUP2 AND PUSH1 0x34 DUP4 ADD MSTORE DUP3 MLOAD PUSH1 0x28 DUP2 DUP5 SUB ADD DUP2 MSTORE PUSH1 0x48 DUP4 ADD DUP5 MSTORE DUP1 MLOAD SWAP1 DUP6 ADD KECCAK256 PUSH1 0x1 PUSH1 0x1 PUSH1 0xF8 SHL SUB NOT PUSH1 0x68 DUP5 ADD MSTORE SWAP11 SWAP1 SWAP5 SHL SWAP1 SWAP4 AND PUSH1 0x69 DUP5 ADD MSTORE PUSH1 0x7D DUP4 ADD SWAP9 SWAP1 SWAP9 MSTORE PUSH32 0xB3B8FF62960ACEA3A88039EBCF80699F15786F1B17CEBD82802F7375827A339C PUSH1 0x9D DUP1 DUP5 ADD SWAP2 SWAP1 SWAP2 MSTORE DUP9 MLOAD DUP1 DUP5 SUB SWAP1 SWAP2 ADD DUP2 MSTORE PUSH1 0xBD SWAP1 SWAP3 ADD SWAP1 SWAP8 MSTORE DUP1 MLOAD SWAP7 ADD SWAP6 SWAP1 SWAP6 KECCAK256 SWAP6 SWAP5 POP POP POP POP POP JUMP JUMPDEST PUSH1 0x0 DUP3 PUSH2 0x12B6 JUMPI POP PUSH1 0x0 PUSH2 0x1303 JUMP JUMPDEST DUP3 DUP3 MUL DUP3 DUP5 DUP3 DUP2 PUSH2 0x12C3 JUMPI INVALID JUMPDEST DIV EQ PUSH2 0x1300 JUMPI PUSH1 0x40 MLOAD PUSH3 0x461BCD PUSH1 0xE5 SHL DUP2 MSTORE PUSH1 0x4 ADD DUP1 DUP1 PUSH1 0x20 ADD DUP3 DUP2 SUB DUP3 MSTORE PUSH1 0x21 DUP2 MSTORE PUSH1 0x20 ADD DUP1 PUSH2 0x14CE PUSH1 0x21 SWAP2 CODECOPY PUSH1 0x40 ADD SWAP2 POP POP PUSH1 0x40 MLOAD DUP1 SWAP2 SUB SWAP1 REVERT JUMPDEST SWAP1 POP JUMPDEST SWAP3 SWAP2 POP POP JUMP JUMPDEST PUSH1 0x0 DUP1 DUP3 GT PUSH2 0x135F JUMPI PUSH1 0x40 DUP1 MLOAD PUSH3 0x461BCD PUSH1 0xE5 SHL DUP2 MSTORE PUSH1 0x20 PUSH1 0x4 DUP3 ADD MSTORE PUSH1 0x1A PUSH1 0x24 DUP3 ADD MSTORE PUSH32 0x536166654D6174683A206469766973696F6E206279207A65726F000000000000 PUSH1 0x44 DUP3 ADD MSTORE SWAP1 MLOAD SWAP1 DUP2 SWAP1 SUB PUSH1 0x64 ADD SWAP1 REVERT JUMPDEST DUP2 DUP4 DUP2 PUSH2 0x1368 JUMPI INVALID JUMPDEST DIV SWAP4 SWAP3 POP POP POP JUMP JUMPDEST PUSH1 0x0 DUP3 DUP3 ADD DUP4 DUP2 LT ISZERO PUSH2 0x1300 JUMPI PUSH1 0x40 DUP1 MLOAD PUSH3 0x461BCD PUSH1 0xE5 SHL DUP2 MSTORE PUSH1 0x20 PUSH1 0x4 DUP3 ADD MSTORE PUSH1 0x1B PUSH1 0x24 DUP3 ADD MSTORE PUSH32 0x536166654D6174683A206164646974696F6E206F766572666C6F770000000000 PUSH1 0x44 DUP3 ADD MSTORE SWAP1 MLOAD SWAP1 DUP2 SWAP1 SUB PUSH1 0x64 ADD SWAP1 REVERT JUMPDEST PUSH1 0x0 DUP1 DUP3 PUSH1 0x1 PUSH1 0x1 PUSH1 0xA0 SHL SUB AND DUP5 PUSH1 0x1 PUSH1 0x1 PUSH1 0xA0 SHL SUB AND EQ ISZERO PUSH2 0x141E JUMPI PUSH1 0x40 MLOAD PUSH3 0x461BCD PUSH1 0xE5 SHL DUP2 MSTORE PUSH1 0x4 ADD DUP1 DUP1 PUSH1 0x20 ADD DUP3 DUP2 SUB DUP3 MSTORE PUSH1 0x25 DUP2 MSTORE PUSH1 0x20 ADD DUP1 PUSH2 0x14A9 PUSH1 0x25 SWAP2 CODECOPY PUSH1 0x40 ADD SWAP2 POP POP PUSH1 0x40 MLOAD DUP1 SWAP2 SUB SWAP1 REVERT JUMPDEST DUP3 PUSH1 0x1 PUSH1 0x1 PUSH1 0xA0 SHL SUB AND DUP5 PUSH1 0x1 PUSH1 0x1 PUSH1 0xA0 SHL SUB AND LT PUSH2 0x143E JUMPI DUP3 DUP5 PUSH2 0x1441 JUMP JUMPDEST DUP4 DUP4 JUMPDEST SWAP1 SWAP3 POP SWAP1 POP PUSH1 0x1 PUSH1 0x1 PUSH1 0xA0 SHL SUB DUP3 AND PUSH2 0x14A1 JUMPI PUSH1 0x40 DUP1 MLOAD PUSH3 0x461BCD PUSH1 0xE5 SHL DUP2 MSTORE PUSH1 0x20 PUSH1 0x4 DUP3 ADD MSTORE PUSH1 0x1E PUSH1 0x24 DUP3 ADD MSTORE PUSH32 0x556E697377617056324C6962726172793A205A45524F5F414444524553530000 PUSH1 0x44 DUP3 ADD MSTORE SWAP1 MLOAD SWAP1 DUP2 SWAP1 SUB PUSH1 0x64 ADD SWAP1 REVERT JUMPDEST SWAP3 POP SWAP3 SWAP1 POP JUMP INVALID SSTORE PUSH15 0x697377617056324C6962726172793A KECCAK256 0x49 DIFFICULTY GASLIMIT 0x4E SLOAD 0x49 NUMBER COINBASE 0x4C 0x5F COINBASE DIFFICULTY DIFFICULTY MSTORE GASLIMIT MSTORE8 MSTORE8 GASLIMIT MSTORE8 MSTORE8 PUSH2 0x6665 0x4D PUSH2 0x7468 GASPRICE KECCAK256 PUSH14 0x756C7469706C69636174696F6E20 PUSH16 0x766572666C6F77A26469706673582212 KECCAK256 RETURNDATASIZE 0xB1 SLOAD 0xE7 PUSH29 0xC0307FA8C787E1B0B14CBB25320417FEC59B47A1743B148AA33C926473 PUSH16 0x6C634300060C00330000000000000000 ",
  "sha1": "2fadc202f402c15b8e8375ed74318e5c07fea281",
  "source": "//SPDX-License-Identifier: Unlicense\npragma solidity 0.6.12;\n\nimport 'OpenZeppelin/openzeppelin-contracts@3.2.0/contracts/token/ERC20/IERC20.sol';\nimport 'OpenZeppelin/openzeppelin-contracts@3.4.0/contracts/math/SafeMath.sol';\nimport './utils/ERC1155NaiveReceiver.sol';\nimport '../interfaces/IBank.sol';\nimport '../interfaces/IWERC20.sol'; \nimport '../interfaces/IUniswapV2Callee.sol';\nimport '../interfaces/IUniswapV2Pair.sol';\nimport '../interfaces/IUniswapV2Router02.sol';\nimport '../interfaces/IWStakingRewards.sol';\nimport '../interfaces/IERC20Wrapper.sol';\nimport './libraries/UniswapV2Library.sol';\n \n\ncontract DahliaLiquidator is IUniswapV2Callee, ERC1155NaiveReceiver {\n    using SafeMath for uint; \n\n    address immutable router;\n    address immutable dahliabank;\n    address immutable werc20; \n\n    constructor(address _router, address _dahliabank, address _werc20) public {\n        router = _router;\n        dahliabank = _dahliabank;\n        werc20 = _werc20;\n    }\n\n    function uniswapV2Call(address sender, uint amount0, uint amount1, bytes calldata data) external override {\n        address tokenBorrow;\n        uint amountOut;\n\n        {\n        address token0 = IUniswapV2Pair(msg.sender).token0();\n        address token1 = IUniswapV2Pair(msg.sender).token1();\n        if (amount0 > 0) {\n            tokenBorrow = token0; \n            amountOut = amount0;\n        } else {\n            tokenBorrow = token1; \n            amountOut = amount1;\n        }\n        address factory = IUniswapV2Router02(router).factory();\n        assert(msg.sender == UniswapV2Library.pairFor(factory, token0, token1)); // ensure that msg.sender is actually a V2 pair\n        assert(amount0 == 0 || amount1 == 0); // this strategy is unidirectional\n        }\n\n        // Liquidate position\n        IUniswapV2Pair under; \n        {\n            (uint positionID) = abi.decode(data, (uint));\n            // collToken is the wrapped contract, collId is the lp address\n            (address _, address collToken, uint collId, uint collateralSize) = IBank(dahliabank).getPositionInfo(positionID); \n            // approve\n            IERC20(tokenBorrow).approve(dahliabank, uint(-1)); \n            // liquidate call\n            IBank(dahliabank).liquidate(positionID, tokenBorrow, uint(-1));\n            // get underlying lp\n            under = IUniswapV2Pair(IERC20Wrapper(collToken).getUnderlyingToken(collId)); \n            if (collToken == werc20) {\n                IWERC20(collToken).burn(address(collId), collateralSize); \n            } else {\n                IWStakingRewards(collToken).burn(collId, collateralSize);\n            }\n            // withdraw lp\n            under.transfer(address(under), collateralSize);\n            under.burn(address(this));\n        }\n        uint amountIn = amountOut.mul(1000).div(997).add(1);\n        address tokenToSwap;\n        \n        {\n        // How much token borrowed to return with a tip?\n        address token0 = under.token0();\n        address token1 = under.token1();\n        uint bal0 = IERC20(token0).balanceOf(address(this)); \n        uint bal1 = IERC20(token1).balanceOf(address(this)); \n        if (token0 == tokenBorrow) {\n            tokenToSwap = token1; \n            uint send = amountIn > bal0 ? bal0 : amountIn; \n            assert(IERC20(tokenBorrow).transfer(msg.sender, send));\n            amountIn = amountIn - send;\n        } else {\n            tokenToSwap = token0;\n            uint send = amountIn > bal1 ? bal1 : amountIn;\n            assert(IERC20(tokenBorrow).transfer(msg.sender, send));\n            amountIn = amountIn - send; \n        }\n        require(token0 == tokenBorrow || token1 == tokenBorrow);\n        }\n\n        IERC20(tokenToSwap).approve(router, uint(-1)); \n        if (amountIn > 0) {\n            address[] memory path = new address[](2);\n            path[0] = tokenToSwap;\n            path[1] = tokenBorrow;\n            IUniswapV2Router02(router).swapTokensForExactTokens(amountIn, uint(-1), path, msg.sender, uint(-1));\n        } else {\n            assert(IERC20(tokenBorrow).transfer(sender, IERC20(tokenBorrow).balanceOf(address(this)))); \n        }\n\n        assert(IERC20(tokenToSwap).transfer(sender, IERC20(tokenToSwap).balanceOf(address(this))));\n    }\n}",
  "sourcePath": "contracts/Liquidate.sol",
  "type": "contract"
}