{
  "abi": [
    {
      "anonymous": false,
      "inputs": [
        {
          "indexed": false,
          "internalType": "address",
          "name": "governor",
          "type": "address"
        }
      ],
      "name": "AcceptGovernor",
      "type": "event"
    },
    {
      "anonymous": false,
      "inputs": [
        {
          "indexed": false,
          "internalType": "address",
          "name": "governor",
          "type": "address"
        }
      ],
      "name": "SetGovernor",
      "type": "event"
    },
    {
      "anonymous": false,
      "inputs": [
        {
          "indexed": false,
          "internalType": "address",
          "name": "pendingGovernor",
          "type": "address"
        }
      ],
      "name": "SetPendingGovernor",
      "type": "event"
    },
    {
      "inputs": [],
      "name": "acceptGovernor",
      "outputs": [],
      "stateMutability": "nonpayable",
      "type": "function"
    },
    {
      "inputs": [],
      "name": "governor",
      "outputs": [
        {
          "internalType": "address",
          "name": "",
          "type": "address"
        }
      ],
      "stateMutability": "view",
      "type": "function"
    },
    {
      "inputs": [],
      "name": "pendingGovernor",
      "outputs": [
        {
          "internalType": "address",
          "name": "",
          "type": "address"
        }
      ],
      "stateMutability": "view",
      "type": "function"
    },
    {
      "inputs": [
        {
          "internalType": "address",
          "name": "_pendingGovernor",
          "type": "address"
        }
      ],
      "name": "setPendingGovernor",
      "outputs": [],
      "stateMutability": "nonpayable",
      "type": "function"
    }
  ],
  "bytecode": "608060405234801561001057600080fd5b50610275806100206000396000f3fe608060405234801561001057600080fd5b506004361061004c5760003560e01c80630c340a2414610051578063e3056a3414610075578063e58bb6391461007d578063f235757f14610087575b600080fd5b6100596100ad565b604080516001600160a01b039092168252519081900360200190f35b6100596100c2565b6100856100d1565b005b6100856004803603602081101561009d57600080fd5b50356001600160a01b0316610193565b6000546201000090046001600160a01b031681565b6001546001600160a01b031681565b6001546001600160a01b03163314610130576040805162461bcd60e51b815260206004820152601860248201527f6e6f74207468652070656e64696e6720676f7665726e6f720000000000000000604482015290519081900360640190fd5b600180546001600160a01b03191690556000805462010000600160b01b031916336201000081029190911790915560408051918252517fd345d81ce68c70b119a17eee79dc1421700bd9cb21ca148a62dc90983964e82f916020908290030190a1565b6000546201000090046001600160a01b031633146101eb576040805162461bcd60e51b815260206004820152601060248201526f3737ba103a34329033b7bb32b93737b960811b604482015290519081900360640190fd5b600180546001600160a01b0383166001600160a01b0319909116811790915560408051918252517f964dea888b00b2ab53f13dfe7ca334b46e99338c222ae232d98547a1da019f609181900360200190a15056fea26469706673582212204a317eef558c23a5c2398131efc42356af32b51213a8361ce01353ce5a84bbf464736f6c634300060c0033",
  "bytecodeSha1": "3ae018a37d853033129215db810e662afcdb3d2d",
  "compiler": {
    "evm_version": "istanbul",
    "optimizer": {
      "enabled": true,
      "runs": 200
    },
    "version": "0.6.12+commit.27d51765"
  },
  "contractName": "Governable",
  "language": "Solidity",
  "natspec": {
    "kind": "dev",
    "methods": {
      "acceptGovernor()": {
        "details": "Accept to become the new governor. Must be called by the pending governor."
      },
      "setPendingGovernor(address)": {
        "details": "Set the pending governor, which will be the governor once accepted.",
        "params": {
          "_pendingGovernor": "The address to become the pending governor."
        }
      }
    },
    "version": 1
  },
  "opcodes": "PUSH1 0x80 PUSH1 0x40 MSTORE CALLVALUE DUP1 ISZERO PUSH2 0x10 JUMPI PUSH1 0x0 DUP1 REVERT JUMPDEST POP PUSH1 0x4 CALLDATASIZE LT PUSH2 0x4C JUMPI PUSH1 0x0 CALLDATALOAD PUSH1 0xE0 SHR DUP1 PUSH4 0xC340A24 EQ PUSH2 0x51 JUMPI DUP1 PUSH4 0xE3056A34 EQ PUSH2 0x75 JUMPI DUP1 PUSH4 0xE58BB639 EQ PUSH2 0x7D JUMPI DUP1 PUSH4 0xF235757F EQ PUSH2 0x87 JUMPI JUMPDEST PUSH1 0x0 DUP1 REVERT JUMPDEST PUSH2 0x59 PUSH2 0xAD JUMP JUMPDEST PUSH1 0x40 DUP1 MLOAD PUSH1 0x1 PUSH1 0x1 PUSH1 0xA0 SHL SUB SWAP1 SWAP3 AND DUP3 MSTORE MLOAD SWAP1 DUP2 SWAP1 SUB PUSH1 0x20 ADD SWAP1 RETURN JUMPDEST PUSH2 0x59 PUSH2 0xC2 JUMP JUMPDEST PUSH2 0x85 PUSH2 0xD1 JUMP JUMPDEST STOP JUMPDEST PUSH2 0x85 PUSH1 0x4 DUP1 CALLDATASIZE SUB PUSH1 0x20 DUP2 LT ISZERO PUSH2 0x9D JUMPI PUSH1 0x0 DUP1 REVERT JUMPDEST POP CALLDATALOAD PUSH1 0x1 PUSH1 0x1 PUSH1 0xA0 SHL SUB AND PUSH2 0x193 JUMP JUMPDEST PUSH1 0x0 SLOAD PUSH3 0x10000 SWAP1 DIV PUSH1 0x1 PUSH1 0x1 PUSH1 0xA0 SHL SUB AND DUP2 JUMP JUMPDEST PUSH1 0x1 SLOAD PUSH1 0x1 PUSH1 0x1 PUSH1 0xA0 SHL SUB AND DUP2 JUMP JUMPDEST PUSH1 0x1 SLOAD PUSH1 0x1 PUSH1 0x1 PUSH1 0xA0 SHL SUB AND CALLER EQ PUSH2 0x130 JUMPI PUSH1 0x40 DUP1 MLOAD PUSH3 0x461BCD PUSH1 0xE5 SHL DUP2 MSTORE PUSH1 0x20 PUSH1 0x4 DUP3 ADD MSTORE PUSH1 0x18 PUSH1 0x24 DUP3 ADD MSTORE PUSH32 0x6E6F74207468652070656E64696E6720676F7665726E6F720000000000000000 PUSH1 0x44 DUP3 ADD MSTORE SWAP1 MLOAD SWAP1 DUP2 SWAP1 SUB PUSH1 0x64 ADD SWAP1 REVERT JUMPDEST PUSH1 0x1 DUP1 SLOAD PUSH1 0x1 PUSH1 0x1 PUSH1 0xA0 SHL SUB NOT AND SWAP1 SSTORE PUSH1 0x0 DUP1 SLOAD PUSH3 0x10000 PUSH1 0x1 PUSH1 0xB0 SHL SUB NOT AND CALLER PUSH3 0x10000 DUP2 MUL SWAP2 SWAP1 SWAP2 OR SWAP1 SWAP2 SSTORE PUSH1 0x40 DUP1 MLOAD SWAP2 DUP3 MSTORE MLOAD PUSH32 0xD345D81CE68C70B119A17EEE79DC1421700BD9CB21CA148A62DC90983964E82F SWAP2 PUSH1 0x20 SWAP1 DUP3 SWAP1 SUB ADD SWAP1 LOG1 JUMP JUMPDEST PUSH1 0x0 SLOAD PUSH3 0x10000 SWAP1 DIV PUSH1 0x1 PUSH1 0x1 PUSH1 0xA0 SHL SUB AND CALLER EQ PUSH2 0x1EB JUMPI PUSH1 0x40 DUP1 MLOAD PUSH3 0x461BCD PUSH1 0xE5 SHL DUP2 MSTORE PUSH1 0x20 PUSH1 0x4 DUP3 ADD MSTORE PUSH1 0x10 PUSH1 0x24 DUP3 ADD MSTORE PUSH16 0x3737BA103A34329033B7BB32B93737B9 PUSH1 0x81 SHL PUSH1 0x44 DUP3 ADD MSTORE SWAP1 MLOAD SWAP1 DUP2 SWAP1 SUB PUSH1 0x64 ADD SWAP1 REVERT JUMPDEST PUSH1 0x1 DUP1 SLOAD PUSH1 0x1 PUSH1 0x1 PUSH1 0xA0 SHL SUB DUP4 AND PUSH1 0x1 PUSH1 0x1 PUSH1 0xA0 SHL SUB NOT SWAP1 SWAP2 AND DUP2 OR SWAP1 SWAP2 SSTORE PUSH1 0x40 DUP1 MLOAD SWAP2 DUP3 MSTORE MLOAD PUSH32 0x964DEA888B00B2AB53F13DFE7CA334B46E99338C222AE232D98547A1DA019F60 SWAP2 DUP2 SWAP1 SUB PUSH1 0x20 ADD SWAP1 LOG1 POP JUMP INVALID LOG2 PUSH5 0x6970667358 0x22 SLT KECCAK256 0x4A BALANCE PUSH31 0xEF558C23A5C2398131EFC42356AF32B51213A8361CE01353CE5A84BBF46473 PUSH16 0x6C634300060C00330000000000000000 ",
  "sha1": "d44a918507f37b4d690805989142630b4916db34",
  "source": "// SPDX-License-Identifier: MIT\n\npragma solidity 0.6.12;\n\nimport 'OpenZeppelin/openzeppelin-contracts@3.4.0/contracts/proxy/Initializable.sol';\n\ncontract Governable is Initializable {\n  event SetGovernor(address governor);\n  event SetPendingGovernor(address pendingGovernor);\n  event AcceptGovernor(address governor);\n\n  address public governor; // The current governor.\n  address public pendingGovernor; // The address pending to become the governor once accepted.\n\n  bytes32[64] _gap; // reserve space for upgrade\n\n  modifier onlyGov() {\n    require(msg.sender == governor, 'not the governor');\n    _;\n  }\n\n  /// @dev Initialize using msg.sender as the first governor.\n  function __Governable__init() internal initializer {\n    governor = msg.sender;\n    pendingGovernor = address(0);\n    emit SetGovernor(msg.sender);\n  }\n\n  /// @dev Set the pending governor, which will be the governor once accepted.\n  /// @param _pendingGovernor The address to become the pending governor.\n  function setPendingGovernor(address _pendingGovernor) external onlyGov {\n    pendingGovernor = _pendingGovernor;\n    emit SetPendingGovernor(_pendingGovernor);\n  }\n\n  /// @dev Accept to become the new governor. Must be called by the pending governor.\n  function acceptGovernor() external {\n    require(msg.sender == pendingGovernor, 'not the pending governor');\n    pendingGovernor = address(0);\n    governor = msg.sender;\n    emit AcceptGovernor(msg.sender);\n  }\n}\n",
  "sourcePath": "contracts/Governable.sol",
  "type": "contract"
}