{
  "abi": [
    {
      "inputs": [
        {
          "internalType": "address",
          "name": "_factory",
          "type": "address"
        }
      ],
      "stateMutability": "nonpayable",
      "type": "constructor"
    },
    {
      "inputs": [
        {
          "internalType": "address",
          "name": "tokenA",
          "type": "address"
        },
        {
          "internalType": "address",
          "name": "tokenB",
          "type": "address"
        },
        {
          "internalType": "uint256",
          "name": "amountADesired",
          "type": "uint256"
        },
        {
          "internalType": "uint256",
          "name": "amountBDesired",
          "type": "uint256"
        },
        {
          "internalType": "uint256",
          "name": "amountAMin",
          "type": "uint256"
        },
        {
          "internalType": "uint256",
          "name": "amountBMin",
          "type": "uint256"
        },
        {
          "internalType": "address",
          "name": "to",
          "type": "address"
        },
        {
          "internalType": "uint256",
          "name": "deadline",
          "type": "uint256"
        }
      ],
      "name": "addLiquidity",
      "outputs": [
        {
          "internalType": "uint256",
          "name": "amountA",
          "type": "uint256"
        },
        {
          "internalType": "uint256",
          "name": "amountB",
          "type": "uint256"
        },
        {
          "internalType": "uint256",
          "name": "liquidity",
          "type": "uint256"
        }
      ],
      "stateMutability": "nonpayable",
      "type": "function"
    },
    {
      "inputs": [],
      "name": "factory",
      "outputs": [
        {
          "internalType": "address",
          "name": "",
          "type": "address"
        }
      ],
      "stateMutability": "view",
      "type": "function"
    },
    {
      "inputs": [
        {
          "internalType": "uint256",
          "name": "amountOut",
          "type": "uint256"
        },
        {
          "internalType": "uint256",
          "name": "reserveIn",
          "type": "uint256"
        },
        {
          "internalType": "uint256",
          "name": "reserveOut",
          "type": "uint256"
        }
      ],
      "name": "getAmountIn",
      "outputs": [
        {
          "internalType": "uint256",
          "name": "amountIn",
          "type": "uint256"
        }
      ],
      "stateMutability": "pure",
      "type": "function"
    },
    {
      "inputs": [
        {
          "internalType": "uint256",
          "name": "amountIn",
          "type": "uint256"
        },
        {
          "internalType": "uint256",
          "name": "reserveIn",
          "type": "uint256"
        },
        {
          "internalType": "uint256",
          "name": "reserveOut",
          "type": "uint256"
        }
      ],
      "name": "getAmountOut",
      "outputs": [
        {
          "internalType": "uint256",
          "name": "amountOut",
          "type": "uint256"
        }
      ],
      "stateMutability": "pure",
      "type": "function"
    },
    {
      "inputs": [
        {
          "internalType": "uint256",
          "name": "amountOut",
          "type": "uint256"
        },
        {
          "internalType": "address[]",
          "name": "path",
          "type": "address[]"
        }
      ],
      "name": "getAmountsIn",
      "outputs": [
        {
          "internalType": "uint256[]",
          "name": "amounts",
          "type": "uint256[]"
        }
      ],
      "stateMutability": "view",
      "type": "function"
    },
    {
      "inputs": [
        {
          "internalType": "uint256",
          "name": "amountIn",
          "type": "uint256"
        },
        {
          "internalType": "address[]",
          "name": "path",
          "type": "address[]"
        }
      ],
      "name": "getAmountsOut",
      "outputs": [
        {
          "internalType": "uint256[]",
          "name": "amounts",
          "type": "uint256[]"
        }
      ],
      "stateMutability": "view",
      "type": "function"
    },
    {
      "inputs": [
        {
          "internalType": "uint256",
          "name": "amountA",
          "type": "uint256"
        },
        {
          "internalType": "uint256",
          "name": "reserveA",
          "type": "uint256"
        },
        {
          "internalType": "uint256",
          "name": "reserveB",
          "type": "uint256"
        }
      ],
      "name": "quote",
      "outputs": [
        {
          "internalType": "uint256",
          "name": "amountB",
          "type": "uint256"
        }
      ],
      "stateMutability": "pure",
      "type": "function"
    },
    {
      "inputs": [
        {
          "internalType": "address",
          "name": "tokenA",
          "type": "address"
        },
        {
          "internalType": "address",
          "name": "tokenB",
          "type": "address"
        },
        {
          "internalType": "uint256",
          "name": "liquidity",
          "type": "uint256"
        },
        {
          "internalType": "uint256",
          "name": "amountAMin",
          "type": "uint256"
        },
        {
          "internalType": "uint256",
          "name": "amountBMin",
          "type": "uint256"
        },
        {
          "internalType": "address",
          "name": "to",
          "type": "address"
        },
        {
          "internalType": "uint256",
          "name": "deadline",
          "type": "uint256"
        }
      ],
      "name": "removeLiquidity",
      "outputs": [
        {
          "internalType": "uint256",
          "name": "amountA",
          "type": "uint256"
        },
        {
          "internalType": "uint256",
          "name": "amountB",
          "type": "uint256"
        }
      ],
      "stateMutability": "nonpayable",
      "type": "function"
    },
    {
      "inputs": [
        {
          "internalType": "address",
          "name": "tokenA",
          "type": "address"
        },
        {
          "internalType": "address",
          "name": "tokenB",
          "type": "address"
        },
        {
          "internalType": "uint256",
          "name": "liquidity",
          "type": "uint256"
        },
        {
          "internalType": "uint256",
          "name": "amountAMin",
          "type": "uint256"
        },
        {
          "internalType": "uint256",
          "name": "amountBMin",
          "type": "uint256"
        },
        {
          "internalType": "address",
          "name": "to",
          "type": "address"
        },
        {
          "internalType": "uint256",
          "name": "deadline",
          "type": "uint256"
        },
        {
          "internalType": "bool",
          "name": "approveMax",
          "type": "bool"
        },
        {
          "internalType": "uint8",
          "name": "v",
          "type": "uint8"
        },
        {
          "internalType": "bytes32",
          "name": "r",
          "type": "bytes32"
        },
        {
          "internalType": "bytes32",
          "name": "s",
          "type": "bytes32"
        }
      ],
      "name": "removeLiquidityWithPermit",
      "outputs": [
        {
          "internalType": "uint256",
          "name": "amountA",
          "type": "uint256"
        },
        {
          "internalType": "uint256",
          "name": "amountB",
          "type": "uint256"
        }
      ],
      "stateMutability": "nonpayable",
      "type": "function"
    },
    {
      "inputs": [
        {
          "internalType": "uint256",
          "name": "amountIn",
          "type": "uint256"
        },
        {
          "internalType": "uint256",
          "name": "amountOutMin",
          "type": "uint256"
        },
        {
          "internalType": "address[]",
          "name": "path",
          "type": "address[]"
        },
        {
          "internalType": "address",
          "name": "to",
          "type": "address"
        },
        {
          "internalType": "uint256",
          "name": "deadline",
          "type": "uint256"
        }
      ],
      "name": "swapExactTokensForTokens",
      "outputs": [
        {
          "internalType": "uint256[]",
          "name": "amounts",
          "type": "uint256[]"
        }
      ],
      "stateMutability": "nonpayable",
      "type": "function"
    },
    {
      "inputs": [
        {
          "internalType": "uint256",
          "name": "amountIn",
          "type": "uint256"
        },
        {
          "internalType": "uint256",
          "name": "amountOutMin",
          "type": "uint256"
        },
        {
          "internalType": "address[]",
          "name": "path",
          "type": "address[]"
        },
        {
          "internalType": "address",
          "name": "to",
          "type": "address"
        },
        {
          "internalType": "uint256",
          "name": "deadline",
          "type": "uint256"
        }
      ],
      "name": "swapExactTokensForTokensSupportingFeeOnTransferTokens",
      "outputs": [],
      "stateMutability": "nonpayable",
      "type": "function"
    },
    {
      "inputs": [
        {
          "internalType": "uint256",
          "name": "amountOut",
          "type": "uint256"
        },
        {
          "internalType": "uint256",
          "name": "amountInMax",
          "type": "uint256"
        },
        {
          "internalType": "address[]",
          "name": "path",
          "type": "address[]"
        },
        {
          "internalType": "address",
          "name": "to",
          "type": "address"
        },
        {
          "internalType": "uint256",
          "name": "deadline",
          "type": "uint256"
        }
      ],
      "name": "swapTokensForExactTokens",
      "outputs": [
        {
          "internalType": "uint256[]",
          "name": "amounts",
          "type": "uint256[]"
        }
      ],
      "stateMutability": "nonpayable",
      "type": "function"
    }
  ],
  "bytecode": "60a060405234801561001057600080fd5b506040516124f63803806124f68339818101604052602081101561003357600080fd5b5051606081901b6001600160601b0319166080526001600160a01b031661243f6100b76000398061061052806106495280610784528061085b52806109875280610bf25280610cfb5280610ef35280610f1c5280610fa552806116455280611688528061182a52806119a05280611d805280611e395280611eec525061243f6000f3fe608060405234801561001057600080fd5b50600436106100b45760003560e01c80638803dbee116100715780638803dbee146103b3578063ad615dec1461043c578063baa2abde14610465578063c45a0155146104b5578063d06ca61f146104d9578063e8e3370014610581576100b4565b8063054d50d4146100b95780631f00ca74146100f45780632195995c146101ec57806338ed1739146102765780635c11d795146102ff57806385f8c2591461038a575b600080fd5b6100e2600480360360608110156100cf57600080fd5b50803590602081013590604001356105f4565b60408051918252519081900360200190f35b61019c6004803603604081101561010a57600080fd5b81359190810190604081016020820135600160201b81111561012b57600080fd5b82018360208201111561013d57600080fd5b803590602001918460208302840111600160201b8311171561015e57600080fd5b919080806020026020016040519081016040528093929190818152602001838360200280828437600092019190915250929550610609945050505050565b60408051602080825283518183015283519192839290830191858101910280838360005b838110156101d85781810151838201526020016101c0565b505050509050019250505060405180910390f35b61025d600480360361016081101561020357600080fd5b506001600160a01b038135811691602081013582169160408201359160608101359160808201359160a08101359091169060c08101359060e081013515159060ff610100820135169061012081013590610140013561063f565b6040805192835260208301919091528051918290030190f35b61019c600480360360a081101561028c57600080fd5b813591602081013591810190606081016040820135600160201b8111156102b257600080fd5b8201836020820111156102c457600080fd5b803590602001918460208302840111600160201b831117156102e557600080fd5b91935091506001600160a01b038135169060200135610739565b610388600480360360a081101561031557600080fd5b813591602081013591810190606081016040820135600160201b81111561033b57600080fd5b82018360208201111561034d57600080fd5b803590602001918460208302840111600160201b8311171561036e57600080fd5b91935091506001600160a01b03813516906020013561091d565b005b6100e2600480360360608110156103a057600080fd5b5080359060208101359060400135610b9a565b61019c600480360360a08110156103c957600080fd5b813591602081013591810190606081016040820135600160201b8111156103ef57600080fd5b82018360208201111561040157600080fd5b803590602001918460208302840111600160201b8311171561042257600080fd5b91935091506001600160a01b038135169060200135610ba7565b6100e26004803603606081101561045257600080fd5b5080359060208101359060400135610ca0565b61025d600480360360e081101561047b57600080fd5b506001600160a01b038135811691602081013582169160408201359160608101359160808201359160a08101359091169060c00135610cad565b6104bd610ef1565b604080516001600160a01b039092168252519081900360200190f35b61019c600480360360408110156104ef57600080fd5b81359190810190604081016020820135600160201b81111561051057600080fd5b82018360208201111561052257600080fd5b803590602001918460208302840111600160201b8311171561054357600080fd5b919080806020026020016040519081016040528093929190818152602001838360200280828437600092019190915250929550610f15945050505050565b6105d6600480360361010081101561059857600080fd5b506001600160a01b038135811691602081013582169160408201359160608101359160808201359160a08101359160c0820135169060e00135610f42565b60408051938452602084019290925282820152519081900360600190f35b6000610601848484611075565b949350505050565b60606106367f0000000000000000000000000000000000000000000000000000000000000000848461114d565b90505b92915050565b600080600061066f7f00000000000000000000000000000000000000000000000000000000000000008f8f611284565b905060008761067e578c610682565b6000195b6040805163d505accf60e01b815233600482015230602482015260448101839052606481018c905260ff8a16608482015260a4810189905260c4810188905290519192506001600160a01b0384169163d505accf9160e48082019260009290919082900301818387803b1580156106f857600080fd5b505af115801561070c573d6000803e3d6000fd5b5050505061071f8f8f8f8f8f8f8f610cad565b809450819550505050509b509b9950505050505050505050565b6060814281101561077f576040805162461bcd60e51b815260206004820152601860248201526000805160206123ea833981519152604482015290519081900360640190fd5b6107dd7f00000000000000000000000000000000000000000000000000000000000000008988888080602002602001604051908101604052809392919081815260200183836020028082843760009201919091525061131892505050565b915086826001845103815181106107f057fe5b602002602001015110156108355760405162461bcd60e51b815260040180806020018281038252602b815260200180612385602b913960400191505060405180910390fd5b6108d38686600081811061084557fe5b905060200201356001600160a01b0316336108b97f00000000000000000000000000000000000000000000000000000000000000008a8a600081811061088757fe5b905060200201356001600160a01b03168b8b60018181106108a457fe5b905060200201356001600160a01b0316611284565b856000815181106108c657fe5b6020026020010151611439565b61091282878780806020026020016040519081016040528093929190818152602001838360200280828437600092019190915250899250611596915050565b509695505050505050565b8042811015610961576040805162461bcd60e51b815260206004820152601860248201526000805160206123ea833981519152604482015290519081900360640190fd5b6109d68585600081811061097157fe5b905060200201356001600160a01b0316336109d07f0000000000000000000000000000000000000000000000000000000000000000898960008181106109b357fe5b905060200201356001600160a01b03168a8a60018181106108a457fe5b8a611439565b6000858560001981018181106109e857fe5b905060200201356001600160a01b03166001600160a01b03166370a08231856040518263ffffffff1660e01b815260040180826001600160a01b0316815260200191505060206040518083038186803b158015610a4457600080fd5b505afa158015610a58573d6000803e3d6000fd5b505050506040513d6020811015610a6e57600080fd5b50516040805160208881028281018201909352888252929350610ab09290918991899182918501908490808284376000920191909152508892506117d3915050565b86610b538288886000198101818110610ac557fe5b905060200201356001600160a01b03166001600160a01b03166370a08231886040518263ffffffff1660e01b815260040180826001600160a01b0316815260200191505060206040518083038186803b158015610b2157600080fd5b505afa158015610b35573d6000803e3d6000fd5b505050506040513d6020811015610b4b57600080fd5b505190611ada565b1015610b905760405162461bcd60e51b815260040180806020018281038252602b815260200180612385602b913960400191505060405180910390fd5b5050505050505050565b6000610601848484611b2a565b60608142811015610bed576040805162461bcd60e51b815260206004820152601860248201526000805160206123ea833981519152604482015290519081900360640190fd5b610c4b7f00000000000000000000000000000000000000000000000000000000000000008988888080602002602001604051908101604052809392919081815260200183836020028082843760009201919091525061114d92505050565b91508682600081518110610c5b57fe5b602002602001015111156108355760405162461bcd60e51b81526004018080602001828103825260278152602001806122916027913960400191505060405180910390fd5b6000610601848484611c02565b6000808242811015610cf4576040805162461bcd60e51b815260206004820152601860248201526000805160206123ea833981519152604482015290519081900360640190fd5b6000610d217f00000000000000000000000000000000000000000000000000000000000000008c8c611284565b604080516323b872dd60e01b81523360048201526001600160a01b03831660248201819052604482018d9052915192935090916323b872dd916064808201926020929091908290030181600087803b158015610d7c57600080fd5b505af1158015610d90573d6000803e3d6000fd5b505050506040513d6020811015610da657600080fd5b50506040805163226bf2d160e21b81526001600160a01b03888116600483015282516000938493928616926389afcb44926024808301939282900301818787803b158015610df357600080fd5b505af1158015610e07573d6000803e3d6000fd5b505050506040513d6040811015610e1d57600080fd5b50805160209091015190925090506000610e378e8e611ca8565b509050806001600160a01b03168e6001600160a01b031614610e5a578183610e5d565b82825b90975095508a871015610ea15760405162461bcd60e51b815260040180806020018281038252602681526020018061235f6026913960400191505060405180910390fd5b89861015610ee05760405162461bcd60e51b81526004018080602001828103825260268152602001806121bb6026913960400191505060405180910390fd5b505050505097509795505050505050565b7f000000000000000000000000000000000000000000000000000000000000000081565b60606106367f00000000000000000000000000000000000000000000000000000000000000008484611318565b60008060008342811015610f8b576040805162461bcd60e51b815260206004820152601860248201526000805160206123ea833981519152604482015290519081900360640190fd5b610f998c8c8c8c8c8c611d70565b90945092506000610fcb7f00000000000000000000000000000000000000000000000000000000000000008e8e611284565b9050610fd98d338388611439565b610fe58c338387611439565b806001600160a01b0316636a627842886040518263ffffffff1660e01b815260040180826001600160a01b03168152602001915050602060405180830381600087803b15801561103457600080fd5b505af1158015611048573d6000803e3d6000fd5b505050506040513d602081101561105e57600080fd5b5051949d939c50939a509198505050505050505050565b60008084116110b55760405162461bcd60e51b815260040180806020018281038252604081526020018061217b6040913960400191505060405180910390fd5b6000831180156110c55750600082115b6111005760405162461bcd60e51b815260040180806020018281038252603d81526020018061221b603d913960400191505060405180910390fd5b600061110e856103e5612001565b9050600061111c8285612001565b9050600061113683611130886103e8612001565b90612064565b905080828161114157fe5b04979650505050505050565b60606002825110156111905760405162461bcd60e51b81526004018080602001828103825260338152602001806122b86033913960400191505060405180910390fd5b815167ffffffffffffffff811180156111a857600080fd5b506040519080825280602002602001820160405280156111d2578160200160208202803683370190505b50905082816001835103815181106111e657fe5b60209081029190910101528151600019015b801561127c576000806112358786600186038151811061121457fe5b602002602001015187868151811061122857fe5b60200260200101516120b3565b9150915061125784848151811061124857fe5b60200260200101518383611b2a565b84600185038151811061126657fe5b60209081029190910101525050600019016111f8565b509392505050565b6000836001600160a01b031663e6a4390584846040518363ffffffff1660e01b815260040180836001600160a01b03168152602001826001600160a01b031681526020019250505060206040518083038186803b1580156112e457600080fd5b505afa1580156112f8573d6000803e3d6000fd5b505050506040513d602081101561130e57600080fd5b5051949350505050565b606060028251101561135b5760405162461bcd60e51b81526004018080602001828103825260338152602001806122b86033913960400191505060405180910390fd5b815167ffffffffffffffff8111801561137357600080fd5b5060405190808252806020026020018201604052801561139d578160200160208202803683370190505b50905082816000815181106113ae57fe5b60200260200101818152505060005b600183510381101561127c576000806113f3878685815181106113dc57fe5b602002602001015187866001018151811061122857fe5b9150915061141584848151811061140657fe5b60200260200101518383611075565b84846001018151811061142457fe5b602090810291909101015250506001016113bd565b604080516001600160a01b0385811660248301528481166044830152606480830185905283518084039091018152608490920183526020820180516001600160e01b03166323b872dd60e01b17815292518251600094606094938a169392918291908083835b602083106114be5780518252601f19909201916020918201910161149f565b6001836020036101000a0380198251168184511680821785525050505050509050019150506000604051808303816000865af19150503d8060008114611520576040519150601f19603f3d011682016040523d82523d6000602084013e611525565b606091505b5091509150818015611553575080511580611553575080806020019051602081101561155057600080fd5b50515b61158e5760405162461bcd60e51b81526004018080602001828103825260398152602001806122586039913960400191505060405180910390fd5b505050505050565b60005b60018351038110156117cd576000808483815181106115b457fe5b60200260200101518584600101815181106115cb57fe5b60200260200101519150915060006115e38383611ca8565b50905060008785600101815181106115f757fe5b60200260200101519050600080836001600160a01b0316866001600160a01b03161461162557826000611629565b6000835b91509150600060028a510388106116405788611681565b6116817f0000000000000000000000000000000000000000000000000000000000000000878c8b6002018151811061167457fe5b6020026020010151611284565b90506116ae7f00000000000000000000000000000000000000000000000000000000000000008888611284565b6001600160a01b031663022c0d9f84848460006040519080825280601f01601f1916602001820160405280156116eb576020820181803683370190505b506040518563ffffffff1660e01b815260040180858152602001848152602001836001600160a01b0316815260200180602001828103825283818151815260200191508051906020019080838360005b8381101561175357818101518382015260200161173b565b50505050905090810190601f1680156117805780820380516001836020036101000a031916815260200191505b5095505050505050600060405180830381600087803b1580156117a257600080fd5b505af11580156117b6573d6000803e3d6000fd5b505060019099019850611599975050505050505050565b50505050565b60005b6001835103811015611ad5576000808483815181106117f157fe5b602002602001015185846001018151811061180857fe5b60200260200101519150915060006118208383611ca8565b50905060006118507f00000000000000000000000000000000000000000000000000000000000000008585611284565b9050600080600080846001600160a01b0316630902f1ac6040518163ffffffff1660e01b815260040160606040518083038186803b15801561189157600080fd5b505afa1580156118a5573d6000803e3d6000fd5b505050506040513d60608110156118bb57600080fd5b5080516020909101516001600160701b0391821693501690506000806001600160a01b038a8116908916146118f15782846118f4565b83835b91509150611949828b6001600160a01b03166370a082318a6040518263ffffffff1660e01b815260040180826001600160a01b0316815260200191505060206040518083038186803b158015610b2157600080fd5b9550611956868383611075565b945050505050600080856001600160a01b0316886001600160a01b03161461198057826000611984565b6000835b91509150600060028c51038a1061199b578a6119cf565b6119cf7f0000000000000000000000000000000000000000000000000000000000000000898e8d6002018151811061167457fe5b604080516000808252602082019283905263022c0d9f60e01b835260248201878152604483018790526001600160a01b038086166064850152608060848501908152845160a48601819052969750908c169563022c0d9f958a958a958a9591949193919260c486019290918190849084905b83811015611a59578181015183820152602001611a41565b50505050905090810190601f168015611a865780820380516001836020036101000a031916815260200191505b5095505050505050600060405180830381600087803b158015611aa857600080fd5b505af1158015611abc573d6000803e3d6000fd5b50506001909b019a506117d69950505050505050505050565b505050565b80820382811115610639576040805162461bcd60e51b815260206004820152601560248201527464732d6d6174682d7375622d756e646572666c6f7760581b604482015290519081900360640190fd5b6000808411611b6a5760405162461bcd60e51b815260040180806020018281038252604181526020018061231e6041913960600191505060405180910390fd5b600083118015611b7a5750600082115b611bb55760405162461bcd60e51b815260040180806020018281038252603d81526020018061221b603d913960400191505060405180910390fd5b6000611bcd6103e8611bc78688612001565b90612001565b90506000611be16103e5611bc78689611ada565b9050611bf86001828481611bf157fe5b0490612064565b9695505050505050565b6000808411611c425760405162461bcd60e51b815260040180806020018281038252603a8152602001806121e1603a913960400191505060405180910390fd5b600083118015611c525750600082115b611c8d5760405162461bcd60e51b815260040180806020018281038252603d81526020018061221b603d913960400191505060405180910390fd5b82611c988584612001565b81611c9f57fe5b04949350505050565b600080826001600160a01b0316846001600160a01b03161415611cfc5760405162461bcd60e51b815260040180806020018281038252603a8152602001806123b0603a913960400191505060405180910390fd5b826001600160a01b0316846001600160a01b031610611d1c578284611d1f565b83835b90925090506001600160a01b038216611d695760405162461bcd60e51b81526004018080602001828103825260338152602001806122eb6033913960400191505060405180910390fd5b9250929050565b60008060006001600160a01b03167f00000000000000000000000000000000000000000000000000000000000000006001600160a01b031663e6a439058a8a6040518363ffffffff1660e01b815260040180836001600160a01b03168152602001826001600160a01b031681526020019250505060206040518083038186803b158015611dfc57600080fd5b505afa158015611e10573d6000803e3d6000fd5b505050506040513d6020811015611e2657600080fd5b50516001600160a01b03161415611ee4577f00000000000000000000000000000000000000000000000000000000000000006001600160a01b031663c9c6539689896040518363ffffffff1660e01b815260040180836001600160a01b03168152602001826001600160a01b0316815260200192505050602060405180830381600087803b158015611eb757600080fd5b505af1158015611ecb573d6000803e3d6000fd5b505050506040513d6020811015611ee157600080fd5b50505b600080611f127f00000000000000000000000000000000000000000000000000000000000000008b8b6120b3565b91509150816000148015611f24575080155b15611f3457879350869250611ff4565b6000611f41898484611c02565b9050878111611f945785811015611f895760405162461bcd60e51b81526004018080602001828103825260268152602001806121bb6026913960400191505060405180910390fd5b889450925082611ff2565b6000611fa1898486611c02565b905089811115611fad57fe5b87811015611fec5760405162461bcd60e51b815260040180806020018281038252602681526020018061235f6026913960400191505060405180910390fd5b94508793505b505b5050965096945050505050565b600081158061201c5750508082028282828161201957fe5b04145b610639576040805162461bcd60e51b815260206004820152601460248201527364732d6d6174682d6d756c2d6f766572666c6f7760601b604482015290519081900360640190fd5b80820182811015610639576040805162461bcd60e51b815260206004820152601460248201527364732d6d6174682d6164642d6f766572666c6f7760601b604482015290519081900360640190fd5b60008060006120c28585611ca8565b5090506000806120d3888888611284565b6001600160a01b0316630902f1ac6040518163ffffffff1660e01b815260040160606040518083038186803b15801561210b57600080fd5b505afa15801561211f573d6000803e3d6000fd5b505050506040513d606081101561213557600080fd5b5080516020909101516001600160701b0391821693501690506001600160a01b038781169084161461216857808261216b565b81815b9099909850965050505050505056fe4d6f636b556e69737761705632526f757465723032556e697377617056324c6962726172793a20494e53554646494349454e545f494e5055545f414d4f554e54556e69737761705632526f757465723a20494e53554646494349454e545f425f414d4f554e544d6f636b556e69737761705632526f757465723032556e697377617056324c6962726172793a20494e53554646494349454e545f414d4f554e544d6f636b556e69737761705632526f757465723032556e697377617056324c6962726172793a20494e53554646494349454e545f4c49515549444954594d6f636b556e69737761705632526f7574657230325472616e7366657248656c7065723a205452414e534645525f46524f4d5f4641494c4544556e69737761705632526f757465723a204558434553534956455f494e5055545f414d4f554e544d6f636b556e69737761705632526f757465723032556e697377617056324c6962726172793a20494e56414c49445f504154484d6f636b556e69737761705632526f757465723032556e697377617056324c6962726172793a205a45524f5f414444524553534d6f636b556e69737761705632526f757465723032556e697377617056324c6962726172793a20494e53554646494349454e545f4f55545055545f414d4f554e54556e69737761705632526f757465723a20494e53554646494349454e545f415f414d4f554e54556e69737761705632526f757465723a20494e53554646494349454e545f4f55545055545f414d4f554e544d6f636b556e69737761705632526f757465723032556e697377617056324c6962726172793a204944454e544943414c5f414444524553534553556e69737761705632526f757465723a20455850495245440000000000000000a26469706673582212207997ccf5c5fca2ba535e8938da0a7e4726e7b2c52ab885deabc077daebcf617464736f6c634300060c0033",
  "bytecodeSha1": "84bd2b315a2f3f796e013990d3be2045a8576b58",
  "compiler": {
    "evm_version": "istanbul",
    "optimizer": {
      "enabled": true,
      "runs": 200
    },
    "version": "0.6.12+commit.27d51765"
  },
  "contractName": "MockUniswapV2Router02",
  "language": "Solidity",
  "natspec": {
    "kind": "dev",
    "methods": {},
    "version": 1
  },
  "opcodes": "PUSH1 0x80 PUSH1 0x40 MSTORE CALLVALUE DUP1 ISZERO PUSH2 0x10 JUMPI PUSH1 0x0 DUP1 REVERT JUMPDEST POP PUSH1 0x4 CALLDATASIZE LT PUSH2 0xB4 JUMPI PUSH1 0x0 CALLDATALOAD PUSH1 0xE0 SHR DUP1 PUSH4 0x8803DBEE GT PUSH2 0x71 JUMPI DUP1 PUSH4 0x8803DBEE EQ PUSH2 0x3B3 JUMPI DUP1 PUSH4 0xAD615DEC EQ PUSH2 0x43C JUMPI DUP1 PUSH4 0xBAA2ABDE EQ PUSH2 0x465 JUMPI DUP1 PUSH4 0xC45A0155 EQ PUSH2 0x4B5 JUMPI DUP1 PUSH4 0xD06CA61F EQ PUSH2 0x4D9 JUMPI DUP1 PUSH4 0xE8E33700 EQ PUSH2 0x581 JUMPI PUSH2 0xB4 JUMP JUMPDEST DUP1 PUSH4 0x54D50D4 EQ PUSH2 0xB9 JUMPI DUP1 PUSH4 0x1F00CA74 EQ PUSH2 0xF4 JUMPI DUP1 PUSH4 0x2195995C EQ PUSH2 0x1EC JUMPI DUP1 PUSH4 0x38ED1739 EQ PUSH2 0x276 JUMPI DUP1 PUSH4 0x5C11D795 EQ PUSH2 0x2FF JUMPI DUP1 PUSH4 0x85F8C259 EQ PUSH2 0x38A JUMPI JUMPDEST PUSH1 0x0 DUP1 REVERT JUMPDEST PUSH2 0xE2 PUSH1 0x4 DUP1 CALLDATASIZE SUB PUSH1 0x60 DUP2 LT ISZERO PUSH2 0xCF JUMPI PUSH1 0x0 DUP1 REVERT JUMPDEST POP DUP1 CALLDATALOAD SWAP1 PUSH1 0x20 DUP2 ADD CALLDATALOAD SWAP1 PUSH1 0x40 ADD CALLDATALOAD PUSH2 0x5F4 JUMP JUMPDEST PUSH1 0x40 DUP1 MLOAD SWAP2 DUP3 MSTORE MLOAD SWAP1 DUP2 SWAP1 SUB PUSH1 0x20 ADD SWAP1 RETURN JUMPDEST PUSH2 0x19C PUSH1 0x4 DUP1 CALLDATASIZE SUB PUSH1 0x40 DUP2 LT ISZERO PUSH2 0x10A JUMPI PUSH1 0x0 DUP1 REVERT JUMPDEST DUP2 CALLDATALOAD SWAP2 SWAP1 DUP2 ADD SWAP1 PUSH1 0x40 DUP2 ADD PUSH1 0x20 DUP3 ADD CALLDATALOAD PUSH1 0x1 PUSH1 0x20 SHL DUP2 GT ISZERO PUSH2 0x12B JUMPI PUSH1 0x0 DUP1 REVERT JUMPDEST DUP3 ADD DUP4 PUSH1 0x20 DUP3 ADD GT ISZERO PUSH2 0x13D JUMPI PUSH1 0x0 DUP1 REVERT JUMPDEST DUP1 CALLDATALOAD SWAP1 PUSH1 0x20 ADD SWAP2 DUP5 PUSH1 0x20 DUP4 MUL DUP5 ADD GT PUSH1 0x1 PUSH1 0x20 SHL DUP4 GT OR ISZERO PUSH2 0x15E JUMPI PUSH1 0x0 DUP1 REVERT JUMPDEST SWAP2 SWAP1 DUP1 DUP1 PUSH1 0x20 MUL PUSH1 0x20 ADD PUSH1 0x40 MLOAD SWAP1 DUP2 ADD PUSH1 0x40 MSTORE DUP1 SWAP4 SWAP3 SWAP2 SWAP1 DUP2 DUP2 MSTORE PUSH1 0x20 ADD DUP4 DUP4 PUSH1 0x20 MUL DUP1 DUP3 DUP5 CALLDATACOPY PUSH1 0x0 SWAP3 ADD SWAP2 SWAP1 SWAP2 MSTORE POP SWAP3 SWAP6 POP PUSH2 0x609 SWAP5 POP POP POP POP POP JUMP JUMPDEST PUSH1 0x40 DUP1 MLOAD PUSH1 0x20 DUP1 DUP3 MSTORE DUP4 MLOAD DUP2 DUP4 ADD MSTORE DUP4 MLOAD SWAP2 SWAP3 DUP4 SWAP3 SWAP1 DUP4 ADD SWAP2 DUP6 DUP2 ADD SWAP2 MUL DUP1 DUP4 DUP4 PUSH1 0x0 JUMPDEST DUP4 DUP2 LT ISZERO PUSH2 0x1D8 JUMPI DUP2 DUP2 ADD MLOAD DUP4 DUP3 ADD MSTORE PUSH1 0x20 ADD PUSH2 0x1C0 JUMP JUMPDEST POP POP POP POP SWAP1 POP ADD SWAP3 POP POP POP PUSH1 0x40 MLOAD DUP1 SWAP2 SUB SWAP1 RETURN JUMPDEST PUSH2 0x25D PUSH1 0x4 DUP1 CALLDATASIZE SUB PUSH2 0x160 DUP2 LT ISZERO PUSH2 0x203 JUMPI PUSH1 0x0 DUP1 REVERT JUMPDEST POP PUSH1 0x1 PUSH1 0x1 PUSH1 0xA0 SHL SUB DUP2 CALLDATALOAD DUP2 AND SWAP2 PUSH1 0x20 DUP2 ADD CALLDATALOAD DUP3 AND SWAP2 PUSH1 0x40 DUP3 ADD CALLDATALOAD SWAP2 PUSH1 0x60 DUP2 ADD CALLDATALOAD SWAP2 PUSH1 0x80 DUP3 ADD CALLDATALOAD SWAP2 PUSH1 0xA0 DUP2 ADD CALLDATALOAD SWAP1 SWAP2 AND SWAP1 PUSH1 0xC0 DUP2 ADD CALLDATALOAD SWAP1 PUSH1 0xE0 DUP2 ADD CALLDATALOAD ISZERO ISZERO SWAP1 PUSH1 0xFF PUSH2 0x100 DUP3 ADD CALLDATALOAD AND SWAP1 PUSH2 0x120 DUP2 ADD CALLDATALOAD SWAP1 PUSH2 0x140 ADD CALLDATALOAD PUSH2 0x63F JUMP JUMPDEST PUSH1 0x40 DUP1 MLOAD SWAP3 DUP4 MSTORE PUSH1 0x20 DUP4 ADD SWAP2 SWAP1 SWAP2 MSTORE DUP1 MLOAD SWAP2 DUP3 SWAP1 SUB ADD SWAP1 RETURN JUMPDEST PUSH2 0x19C PUSH1 0x4 DUP1 CALLDATASIZE SUB PUSH1 0xA0 DUP2 LT ISZERO PUSH2 0x28C JUMPI PUSH1 0x0 DUP1 REVERT JUMPDEST DUP2 CALLDATALOAD SWAP2 PUSH1 0x20 DUP2 ADD CALLDATALOAD SWAP2 DUP2 ADD SWAP1 PUSH1 0x60 DUP2 ADD PUSH1 0x40 DUP3 ADD CALLDATALOAD PUSH1 0x1 PUSH1 0x20 SHL DUP2 GT ISZERO PUSH2 0x2B2 JUMPI PUSH1 0x0 DUP1 REVERT JUMPDEST DUP3 ADD DUP4 PUSH1 0x20 DUP3 ADD GT ISZERO PUSH2 0x2C4 JUMPI PUSH1 0x0 DUP1 REVERT JUMPDEST DUP1 CALLDATALOAD SWAP1 PUSH1 0x20 ADD SWAP2 DUP5 PUSH1 0x20 DUP4 MUL DUP5 ADD GT PUSH1 0x1 PUSH1 0x20 SHL DUP4 GT OR ISZERO PUSH2 0x2E5 JUMPI PUSH1 0x0 DUP1 REVERT JUMPDEST SWAP2 SWAP4 POP SWAP2 POP PUSH1 0x1 PUSH1 0x1 PUSH1 0xA0 SHL SUB DUP2 CALLDATALOAD AND SWAP1 PUSH1 0x20 ADD CALLDATALOAD PUSH2 0x739 JUMP JUMPDEST PUSH2 0x388 PUSH1 0x4 DUP1 CALLDATASIZE SUB PUSH1 0xA0 DUP2 LT ISZERO PUSH2 0x315 JUMPI PUSH1 0x0 DUP1 REVERT JUMPDEST DUP2 CALLDATALOAD SWAP2 PUSH1 0x20 DUP2 ADD CALLDATALOAD SWAP2 DUP2 ADD SWAP1 PUSH1 0x60 DUP2 ADD PUSH1 0x40 DUP3 ADD CALLDATALOAD PUSH1 0x1 PUSH1 0x20 SHL DUP2 GT ISZERO PUSH2 0x33B JUMPI PUSH1 0x0 DUP1 REVERT JUMPDEST DUP3 ADD DUP4 PUSH1 0x20 DUP3 ADD GT ISZERO PUSH2 0x34D JUMPI PUSH1 0x0 DUP1 REVERT JUMPDEST DUP1 CALLDATALOAD SWAP1 PUSH1 0x20 ADD SWAP2 DUP5 PUSH1 0x20 DUP4 MUL DUP5 ADD GT PUSH1 0x1 PUSH1 0x20 SHL DUP4 GT OR ISZERO PUSH2 0x36E JUMPI PUSH1 0x0 DUP1 REVERT JUMPDEST SWAP2 SWAP4 POP SWAP2 POP PUSH1 0x1 PUSH1 0x1 PUSH1 0xA0 SHL SUB DUP2 CALLDATALOAD AND SWAP1 PUSH1 0x20 ADD CALLDATALOAD PUSH2 0x91D JUMP JUMPDEST STOP JUMPDEST PUSH2 0xE2 PUSH1 0x4 DUP1 CALLDATASIZE SUB PUSH1 0x60 DUP2 LT ISZERO PUSH2 0x3A0 JUMPI PUSH1 0x0 DUP1 REVERT JUMPDEST POP DUP1 CALLDATALOAD SWAP1 PUSH1 0x20 DUP2 ADD CALLDATALOAD SWAP1 PUSH1 0x40 ADD CALLDATALOAD PUSH2 0xB9A JUMP JUMPDEST PUSH2 0x19C PUSH1 0x4 DUP1 CALLDATASIZE SUB PUSH1 0xA0 DUP2 LT ISZERO PUSH2 0x3C9 JUMPI PUSH1 0x0 DUP1 REVERT JUMPDEST DUP2 CALLDATALOAD SWAP2 PUSH1 0x20 DUP2 ADD CALLDATALOAD SWAP2 DUP2 ADD SWAP1 PUSH1 0x60 DUP2 ADD PUSH1 0x40 DUP3 ADD CALLDATALOAD PUSH1 0x1 PUSH1 0x20 SHL DUP2 GT ISZERO PUSH2 0x3EF JUMPI PUSH1 0x0 DUP1 REVERT JUMPDEST DUP3 ADD DUP4 PUSH1 0x20 DUP3 ADD GT ISZERO PUSH2 0x401 JUMPI PUSH1 0x0 DUP1 REVERT JUMPDEST DUP1 CALLDATALOAD SWAP1 PUSH1 0x20 ADD SWAP2 DUP5 PUSH1 0x20 DUP4 MUL DUP5 ADD GT PUSH1 0x1 PUSH1 0x20 SHL DUP4 GT OR ISZERO PUSH2 0x422 JUMPI PUSH1 0x0 DUP1 REVERT JUMPDEST SWAP2 SWAP4 POP SWAP2 POP PUSH1 0x1 PUSH1 0x1 PUSH1 0xA0 SHL SUB DUP2 CALLDATALOAD AND SWAP1 PUSH1 0x20 ADD CALLDATALOAD PUSH2 0xBA7 JUMP JUMPDEST PUSH2 0xE2 PUSH1 0x4 DUP1 CALLDATASIZE SUB PUSH1 0x60 DUP2 LT ISZERO PUSH2 0x452 JUMPI PUSH1 0x0 DUP1 REVERT JUMPDEST POP DUP1 CALLDATALOAD SWAP1 PUSH1 0x20 DUP2 ADD CALLDATALOAD SWAP1 PUSH1 0x40 ADD CALLDATALOAD PUSH2 0xCA0 JUMP JUMPDEST PUSH2 0x25D PUSH1 0x4 DUP1 CALLDATASIZE SUB PUSH1 0xE0 DUP2 LT ISZERO PUSH2 0x47B JUMPI PUSH1 0x0 DUP1 REVERT JUMPDEST POP PUSH1 0x1 PUSH1 0x1 PUSH1 0xA0 SHL SUB DUP2 CALLDATALOAD DUP2 AND SWAP2 PUSH1 0x20 DUP2 ADD CALLDATALOAD DUP3 AND SWAP2 PUSH1 0x40 DUP3 ADD CALLDATALOAD SWAP2 PUSH1 0x60 DUP2 ADD CALLDATALOAD SWAP2 PUSH1 0x80 DUP3 ADD CALLDATALOAD SWAP2 PUSH1 0xA0 DUP2 ADD CALLDATALOAD SWAP1 SWAP2 AND SWAP1 PUSH1 0xC0 ADD CALLDATALOAD PUSH2 0xCAD JUMP JUMPDEST PUSH2 0x4BD PUSH2 0xEF1 JUMP JUMPDEST PUSH1 0x40 DUP1 MLOAD PUSH1 0x1 PUSH1 0x1 PUSH1 0xA0 SHL SUB SWAP1 SWAP3 AND DUP3 MSTORE MLOAD SWAP1 DUP2 SWAP1 SUB PUSH1 0x20 ADD SWAP1 RETURN JUMPDEST PUSH2 0x19C PUSH1 0x4 DUP1 CALLDATASIZE SUB PUSH1 0x40 DUP2 LT ISZERO PUSH2 0x4EF JUMPI PUSH1 0x0 DUP1 REVERT JUMPDEST DUP2 CALLDATALOAD SWAP2 SWAP1 DUP2 ADD SWAP1 PUSH1 0x40 DUP2 ADD PUSH1 0x20 DUP3 ADD CALLDATALOAD PUSH1 0x1 PUSH1 0x20 SHL DUP2 GT ISZERO PUSH2 0x510 JUMPI PUSH1 0x0 DUP1 REVERT JUMPDEST DUP3 ADD DUP4 PUSH1 0x20 DUP3 ADD GT ISZERO PUSH2 0x522 JUMPI PUSH1 0x0 DUP1 REVERT JUMPDEST DUP1 CALLDATALOAD SWAP1 PUSH1 0x20 ADD SWAP2 DUP5 PUSH1 0x20 DUP4 MUL DUP5 ADD GT PUSH1 0x1 PUSH1 0x20 SHL DUP4 GT OR ISZERO PUSH2 0x543 JUMPI PUSH1 0x0 DUP1 REVERT JUMPDEST SWAP2 SWAP1 DUP1 DUP1 PUSH1 0x20 MUL PUSH1 0x20 ADD PUSH1 0x40 MLOAD SWAP1 DUP2 ADD PUSH1 0x40 MSTORE DUP1 SWAP4 SWAP3 SWAP2 SWAP1 DUP2 DUP2 MSTORE PUSH1 0x20 ADD DUP4 DUP4 PUSH1 0x20 MUL DUP1 DUP3 DUP5 CALLDATACOPY PUSH1 0x0 SWAP3 ADD SWAP2 SWAP1 SWAP2 MSTORE POP SWAP3 SWAP6 POP PUSH2 0xF15 SWAP5 POP POP POP POP POP JUMP JUMPDEST PUSH2 0x5D6 PUSH1 0x4 DUP1 CALLDATASIZE SUB PUSH2 0x100 DUP2 LT ISZERO PUSH2 0x598 JUMPI PUSH1 0x0 DUP1 REVERT JUMPDEST POP PUSH1 0x1 PUSH1 0x1 PUSH1 0xA0 SHL SUB DUP2 CALLDATALOAD DUP2 AND SWAP2 PUSH1 0x20 DUP2 ADD CALLDATALOAD DUP3 AND SWAP2 PUSH1 0x40 DUP3 ADD CALLDATALOAD SWAP2 PUSH1 0x60 DUP2 ADD CALLDATALOAD SWAP2 PUSH1 0x80 DUP3 ADD CALLDATALOAD SWAP2 PUSH1 0xA0 DUP2 ADD CALLDATALOAD SWAP2 PUSH1 0xC0 DUP3 ADD CALLDATALOAD AND SWAP1 PUSH1 0xE0 ADD CALLDATALOAD PUSH2 0xF42 JUMP JUMPDEST PUSH1 0x40 DUP1 MLOAD SWAP4 DUP5 MSTORE PUSH1 0x20 DUP5 ADD SWAP3 SWAP1 SWAP3 MSTORE DUP3 DUP3 ADD MSTORE MLOAD SWAP1 DUP2 SWAP1 SUB PUSH1 0x60 ADD SWAP1 RETURN JUMPDEST PUSH1 0x0 PUSH2 0x601 DUP5 DUP5 DUP5 PUSH2 0x1075 JUMP JUMPDEST SWAP5 SWAP4 POP POP POP POP JUMP JUMPDEST PUSH1 0x60 PUSH2 0x636 PUSH32 0x0 DUP5 DUP5 PUSH2 0x114D JUMP JUMPDEST SWAP1 POP JUMPDEST SWAP3 SWAP2 POP POP JUMP JUMPDEST PUSH1 0x0 DUP1 PUSH1 0x0 PUSH2 0x66F PUSH32 0x0 DUP16 DUP16 PUSH2 0x1284 JUMP JUMPDEST SWAP1 POP PUSH1 0x0 DUP8 PUSH2 0x67E JUMPI DUP13 PUSH2 0x682 JUMP JUMPDEST PUSH1 0x0 NOT JUMPDEST PUSH1 0x40 DUP1 MLOAD PUSH4 0xD505ACCF PUSH1 0xE0 SHL DUP2 MSTORE CALLER PUSH1 0x4 DUP3 ADD MSTORE ADDRESS PUSH1 0x24 DUP3 ADD MSTORE PUSH1 0x44 DUP2 ADD DUP4 SWAP1 MSTORE PUSH1 0x64 DUP2 ADD DUP13 SWAP1 MSTORE PUSH1 0xFF DUP11 AND PUSH1 0x84 DUP3 ADD MSTORE PUSH1 0xA4 DUP2 ADD DUP10 SWAP1 MSTORE PUSH1 0xC4 DUP2 ADD DUP9 SWAP1 MSTORE SWAP1 MLOAD SWAP2 SWAP3 POP PUSH1 0x1 PUSH1 0x1 PUSH1 0xA0 SHL SUB DUP5 AND SWAP2 PUSH4 0xD505ACCF SWAP2 PUSH1 0xE4 DUP1 DUP3 ADD SWAP3 PUSH1 0x0 SWAP3 SWAP1 SWAP2 SWAP1 DUP3 SWAP1 SUB ADD DUP2 DUP4 DUP8 DUP1 EXTCODESIZE ISZERO DUP1 ISZERO PUSH2 0x6F8 JUMPI PUSH1 0x0 DUP1 REVERT JUMPDEST POP GAS CALL ISZERO DUP1 ISZERO PUSH2 0x70C JUMPI RETURNDATASIZE PUSH1 0x0 DUP1 RETURNDATACOPY RETURNDATASIZE PUSH1 0x0 REVERT JUMPDEST POP POP POP POP PUSH2 0x71F DUP16 DUP16 DUP16 DUP16 DUP16 DUP16 DUP16 PUSH2 0xCAD JUMP JUMPDEST DUP1 SWAP5 POP DUP2 SWAP6 POP POP POP POP POP SWAP12 POP SWAP12 SWAP10 POP POP POP POP POP POP POP POP POP POP JUMP JUMPDEST PUSH1 0x60 DUP2 TIMESTAMP DUP2 LT ISZERO PUSH2 0x77F JUMPI PUSH1 0x40 DUP1 MLOAD PUSH3 0x461BCD PUSH1 0xE5 SHL DUP2 MSTORE PUSH1 0x20 PUSH1 0x4 DUP3 ADD MSTORE PUSH1 0x18 PUSH1 0x24 DUP3 ADD MSTORE PUSH1 0x0 DUP1 MLOAD PUSH1 0x20 PUSH2 0x23EA DUP4 CODECOPY DUP2 MLOAD SWAP2 MSTORE PUSH1 0x44 DUP3 ADD MSTORE SWAP1 MLOAD SWAP1 DUP2 SWAP1 SUB PUSH1 0x64 ADD SWAP1 REVERT JUMPDEST PUSH2 0x7DD PUSH32 0x0 DUP10 DUP9 DUP9 DUP1 DUP1 PUSH1 0x20 MUL PUSH1 0x20 ADD PUSH1 0x40 MLOAD SWAP1 DUP2 ADD PUSH1 0x40 MSTORE DUP1 SWAP4 SWAP3 SWAP2 SWAP1 DUP2 DUP2 MSTORE PUSH1 0x20 ADD DUP4 DUP4 PUSH1 0x20 MUL DUP1 DUP3 DUP5 CALLDATACOPY PUSH1 0x0 SWAP3 ADD SWAP2 SWAP1 SWAP2 MSTORE POP PUSH2 0x1318 SWAP3 POP POP POP JUMP JUMPDEST SWAP2 POP DUP7 DUP3 PUSH1 0x1 DUP5 MLOAD SUB DUP2 MLOAD DUP2 LT PUSH2 0x7F0 JUMPI INVALID JUMPDEST PUSH1 0x20 MUL PUSH1 0x20 ADD ADD MLOAD LT ISZERO PUSH2 0x835 JUMPI PUSH1 0x40 MLOAD PUSH3 0x461BCD PUSH1 0xE5 SHL DUP2 MSTORE PUSH1 0x4 ADD DUP1 DUP1 PUSH1 0x20 ADD DUP3 DUP2 SUB DUP3 MSTORE PUSH1 0x2B DUP2 MSTORE PUSH1 0x20 ADD DUP1 PUSH2 0x2385 PUSH1 0x2B SWAP2 CODECOPY PUSH1 0x40 ADD SWAP2 POP POP PUSH1 0x40 MLOAD DUP1 SWAP2 SUB SWAP1 REVERT JUMPDEST PUSH2 0x8D3 DUP7 DUP7 PUSH1 0x0 DUP2 DUP2 LT PUSH2 0x845 JUMPI INVALID JUMPDEST SWAP1 POP PUSH1 0x20 MUL ADD CALLDATALOAD PUSH1 0x1 PUSH1 0x1 PUSH1 0xA0 SHL SUB AND CALLER PUSH2 0x8B9 PUSH32 0x0 DUP11 DUP11 PUSH1 0x0 DUP2 DUP2 LT PUSH2 0x887 JUMPI INVALID JUMPDEST SWAP1 POP PUSH1 0x20 MUL ADD CALLDATALOAD PUSH1 0x1 PUSH1 0x1 PUSH1 0xA0 SHL SUB AND DUP12 DUP12 PUSH1 0x1 DUP2 DUP2 LT PUSH2 0x8A4 JUMPI INVALID JUMPDEST SWAP1 POP PUSH1 0x20 MUL ADD CALLDATALOAD PUSH1 0x1 PUSH1 0x1 PUSH1 0xA0 SHL SUB AND PUSH2 0x1284 JUMP JUMPDEST DUP6 PUSH1 0x0 DUP2 MLOAD DUP2 LT PUSH2 0x8C6 JUMPI INVALID JUMPDEST PUSH1 0x20 MUL PUSH1 0x20 ADD ADD MLOAD PUSH2 0x1439 JUMP JUMPDEST PUSH2 0x912 DUP3 DUP8 DUP8 DUP1 DUP1 PUSH1 0x20 MUL PUSH1 0x20 ADD PUSH1 0x40 MLOAD SWAP1 DUP2 ADD PUSH1 0x40 MSTORE DUP1 SWAP4 SWAP3 SWAP2 SWAP1 DUP2 DUP2 MSTORE PUSH1 0x20 ADD DUP4 DUP4 PUSH1 0x20 MUL DUP1 DUP3 DUP5 CALLDATACOPY PUSH1 0x0 SWAP3 ADD SWAP2 SWAP1 SWAP2 MSTORE POP DUP10 SWAP3 POP PUSH2 0x1596 SWAP2 POP POP JUMP JUMPDEST POP SWAP7 SWAP6 POP POP POP POP POP POP JUMP JUMPDEST DUP1 TIMESTAMP DUP2 LT ISZERO PUSH2 0x961 JUMPI PUSH1 0x40 DUP1 MLOAD PUSH3 0x461BCD PUSH1 0xE5 SHL DUP2 MSTORE PUSH1 0x20 PUSH1 0x4 DUP3 ADD MSTORE PUSH1 0x18 PUSH1 0x24 DUP3 ADD MSTORE PUSH1 0x0 DUP1 MLOAD PUSH1 0x20 PUSH2 0x23EA DUP4 CODECOPY DUP2 MLOAD SWAP2 MSTORE PUSH1 0x44 DUP3 ADD MSTORE SWAP1 MLOAD SWAP1 DUP2 SWAP1 SUB PUSH1 0x64 ADD SWAP1 REVERT JUMPDEST PUSH2 0x9D6 DUP6 DUP6 PUSH1 0x0 DUP2 DUP2 LT PUSH2 0x971 JUMPI INVALID JUMPDEST SWAP1 POP PUSH1 0x20 MUL ADD CALLDATALOAD PUSH1 0x1 PUSH1 0x1 PUSH1 0xA0 SHL SUB AND CALLER PUSH2 0x9D0 PUSH32 0x0 DUP10 DUP10 PUSH1 0x0 DUP2 DUP2 LT PUSH2 0x9B3 JUMPI INVALID JUMPDEST SWAP1 POP PUSH1 0x20 MUL ADD CALLDATALOAD PUSH1 0x1 PUSH1 0x1 PUSH1 0xA0 SHL SUB AND DUP11 DUP11 PUSH1 0x1 DUP2 DUP2 LT PUSH2 0x8A4 JUMPI INVALID JUMPDEST DUP11 PUSH2 0x1439 JUMP JUMPDEST PUSH1 0x0 DUP6 DUP6 PUSH1 0x0 NOT DUP2 ADD DUP2 DUP2 LT PUSH2 0x9E8 JUMPI INVALID JUMPDEST SWAP1 POP PUSH1 0x20 MUL ADD CALLDATALOAD PUSH1 0x1 PUSH1 0x1 PUSH1 0xA0 SHL SUB AND PUSH1 0x1 PUSH1 0x1 PUSH1 0xA0 SHL SUB AND PUSH4 0x70A08231 DUP6 PUSH1 0x40 MLOAD DUP3 PUSH4 0xFFFFFFFF AND PUSH1 0xE0 SHL DUP2 MSTORE PUSH1 0x4 ADD DUP1 DUP3 PUSH1 0x1 PUSH1 0x1 PUSH1 0xA0 SHL SUB AND DUP2 MSTORE PUSH1 0x20 ADD SWAP2 POP POP PUSH1 0x20 PUSH1 0x40 MLOAD DUP1 DUP4 SUB DUP2 DUP7 DUP1 EXTCODESIZE ISZERO DUP1 ISZERO PUSH2 0xA44 JUMPI PUSH1 0x0 DUP1 REVERT JUMPDEST POP GAS STATICCALL ISZERO DUP1 ISZERO PUSH2 0xA58 JUMPI RETURNDATASIZE PUSH1 0x0 DUP1 RETURNDATACOPY RETURNDATASIZE PUSH1 0x0 REVERT JUMPDEST POP POP POP POP PUSH1 0x40 MLOAD RETURNDATASIZE PUSH1 0x20 DUP2 LT ISZERO PUSH2 0xA6E JUMPI PUSH1 0x0 DUP1 REVERT JUMPDEST POP MLOAD PUSH1 0x40 DUP1 MLOAD PUSH1 0x20 DUP9 DUP2 MUL DUP3 DUP2 ADD DUP3 ADD SWAP1 SWAP4 MSTORE DUP9 DUP3 MSTORE SWAP3 SWAP4 POP PUSH2 0xAB0 SWAP3 SWAP1 SWAP2 DUP10 SWAP2 DUP10 SWAP2 DUP3 SWAP2 DUP6 ADD SWAP1 DUP5 SWAP1 DUP1 DUP3 DUP5 CALLDATACOPY PUSH1 0x0 SWAP3 ADD SWAP2 SWAP1 SWAP2 MSTORE POP DUP9 SWAP3 POP PUSH2 0x17D3 SWAP2 POP POP JUMP JUMPDEST DUP7 PUSH2 0xB53 DUP3 DUP9 DUP9 PUSH1 0x0 NOT DUP2 ADD DUP2 DUP2 LT PUSH2 0xAC5 JUMPI INVALID JUMPDEST SWAP1 POP PUSH1 0x20 MUL ADD CALLDATALOAD PUSH1 0x1 PUSH1 0x1 PUSH1 0xA0 SHL SUB AND PUSH1 0x1 PUSH1 0x1 PUSH1 0xA0 SHL SUB AND PUSH4 0x70A08231 DUP9 PUSH1 0x40 MLOAD DUP3 PUSH4 0xFFFFFFFF AND PUSH1 0xE0 SHL DUP2 MSTORE PUSH1 0x4 ADD DUP1 DUP3 PUSH1 0x1 PUSH1 0x1 PUSH1 0xA0 SHL SUB AND DUP2 MSTORE PUSH1 0x20 ADD SWAP2 POP POP PUSH1 0x20 PUSH1 0x40 MLOAD DUP1 DUP4 SUB DUP2 DUP7 DUP1 EXTCODESIZE ISZERO DUP1 ISZERO PUSH2 0xB21 JUMPI PUSH1 0x0 DUP1 REVERT JUMPDEST POP GAS STATICCALL ISZERO DUP1 ISZERO PUSH2 0xB35 JUMPI RETURNDATASIZE PUSH1 0x0 DUP1 RETURNDATACOPY RETURNDATASIZE PUSH1 0x0 REVERT JUMPDEST POP POP POP POP PUSH1 0x40 MLOAD RETURNDATASIZE PUSH1 0x20 DUP2 LT ISZERO PUSH2 0xB4B JUMPI PUSH1 0x0 DUP1 REVERT JUMPDEST POP MLOAD SWAP1 PUSH2 0x1ADA JUMP JUMPDEST LT ISZERO PUSH2 0xB90 JUMPI PUSH1 0x40 MLOAD PUSH3 0x461BCD PUSH1 0xE5 SHL DUP2 MSTORE PUSH1 0x4 ADD DUP1 DUP1 PUSH1 0x20 ADD DUP3 DUP2 SUB DUP3 MSTORE PUSH1 0x2B DUP2 MSTORE PUSH1 0x20 ADD DUP1 PUSH2 0x2385 PUSH1 0x2B SWAP2 CODECOPY PUSH1 0x40 ADD SWAP2 POP POP PUSH1 0x40 MLOAD DUP1 SWAP2 SUB SWAP1 REVERT JUMPDEST POP POP POP POP POP POP POP POP JUMP JUMPDEST PUSH1 0x0 PUSH2 0x601 DUP5 DUP5 DUP5 PUSH2 0x1B2A JUMP JUMPDEST PUSH1 0x60 DUP2 TIMESTAMP DUP2 LT ISZERO PUSH2 0xBED JUMPI PUSH1 0x40 DUP1 MLOAD PUSH3 0x461BCD PUSH1 0xE5 SHL DUP2 MSTORE PUSH1 0x20 PUSH1 0x4 DUP3 ADD MSTORE PUSH1 0x18 PUSH1 0x24 DUP3 ADD MSTORE PUSH1 0x0 DUP1 MLOAD PUSH1 0x20 PUSH2 0x23EA DUP4 CODECOPY DUP2 MLOAD SWAP2 MSTORE PUSH1 0x44 DUP3 ADD MSTORE SWAP1 MLOAD SWAP1 DUP2 SWAP1 SUB PUSH1 0x64 ADD SWAP1 REVERT JUMPDEST PUSH2 0xC4B PUSH32 0x0 DUP10 DUP9 DUP9 DUP1 DUP1 PUSH1 0x20 MUL PUSH1 0x20 ADD PUSH1 0x40 MLOAD SWAP1 DUP2 ADD PUSH1 0x40 MSTORE DUP1 SWAP4 SWAP3 SWAP2 SWAP1 DUP2 DUP2 MSTORE PUSH1 0x20 ADD DUP4 DUP4 PUSH1 0x20 MUL DUP1 DUP3 DUP5 CALLDATACOPY PUSH1 0x0 SWAP3 ADD SWAP2 SWAP1 SWAP2 MSTORE POP PUSH2 0x114D SWAP3 POP POP POP JUMP JUMPDEST SWAP2 POP DUP7 DUP3 PUSH1 0x0 DUP2 MLOAD DUP2 LT PUSH2 0xC5B JUMPI INVALID JUMPDEST PUSH1 0x20 MUL PUSH1 0x20 ADD ADD MLOAD GT ISZERO PUSH2 0x835 JUMPI PUSH1 0x40 MLOAD PUSH3 0x461BCD PUSH1 0xE5 SHL DUP2 MSTORE PUSH1 0x4 ADD DUP1 DUP1 PUSH1 0x20 ADD DUP3 DUP2 SUB DUP3 MSTORE PUSH1 0x27 DUP2 MSTORE PUSH1 0x20 ADD DUP1 PUSH2 0x2291 PUSH1 0x27 SWAP2 CODECOPY PUSH1 0x40 ADD SWAP2 POP POP PUSH1 0x40 MLOAD DUP1 SWAP2 SUB SWAP1 REVERT JUMPDEST PUSH1 0x0 PUSH2 0x601 DUP5 DUP5 DUP5 PUSH2 0x1C02 JUMP JUMPDEST PUSH1 0x0 DUP1 DUP3 TIMESTAMP DUP2 LT ISZERO PUSH2 0xCF4 JUMPI PUSH1 0x40 DUP1 MLOAD PUSH3 0x461BCD PUSH1 0xE5 SHL DUP2 MSTORE PUSH1 0x20 PUSH1 0x4 DUP3 ADD MSTORE PUSH1 0x18 PUSH1 0x24 DUP3 ADD MSTORE PUSH1 0x0 DUP1 MLOAD PUSH1 0x20 PUSH2 0x23EA DUP4 CODECOPY DUP2 MLOAD SWAP2 MSTORE PUSH1 0x44 DUP3 ADD MSTORE SWAP1 MLOAD SWAP1 DUP2 SWAP1 SUB PUSH1 0x64 ADD SWAP1 REVERT JUMPDEST PUSH1 0x0 PUSH2 0xD21 PUSH32 0x0 DUP13 DUP13 PUSH2 0x1284 JUMP JUMPDEST PUSH1 0x40 DUP1 MLOAD PUSH4 0x23B872DD PUSH1 0xE0 SHL DUP2 MSTORE CALLER PUSH1 0x4 DUP3 ADD MSTORE PUSH1 0x1 PUSH1 0x1 PUSH1 0xA0 SHL SUB DUP4 AND PUSH1 0x24 DUP3 ADD DUP2 SWAP1 MSTORE PUSH1 0x44 DUP3 ADD DUP14 SWAP1 MSTORE SWAP2 MLOAD SWAP3 SWAP4 POP SWAP1 SWAP2 PUSH4 0x23B872DD SWAP2 PUSH1 0x64 DUP1 DUP3 ADD SWAP3 PUSH1 0x20 SWAP3 SWAP1 SWAP2 SWAP1 DUP3 SWAP1 SUB ADD DUP2 PUSH1 0x0 DUP8 DUP1 EXTCODESIZE ISZERO DUP1 ISZERO PUSH2 0xD7C JUMPI PUSH1 0x0 DUP1 REVERT JUMPDEST POP GAS CALL ISZERO DUP1 ISZERO PUSH2 0xD90 JUMPI RETURNDATASIZE PUSH1 0x0 DUP1 RETURNDATACOPY RETURNDATASIZE PUSH1 0x0 REVERT JUMPDEST POP POP POP POP PUSH1 0x40 MLOAD RETURNDATASIZE PUSH1 0x20 DUP2 LT ISZERO PUSH2 0xDA6 JUMPI PUSH1 0x0 DUP1 REVERT JUMPDEST POP POP PUSH1 0x40 DUP1 MLOAD PUSH4 0x226BF2D1 PUSH1 0xE2 SHL DUP2 MSTORE PUSH1 0x1 PUSH1 0x1 PUSH1 0xA0 SHL SUB DUP9 DUP2 AND PUSH1 0x4 DUP4 ADD MSTORE DUP3 MLOAD PUSH1 0x0 SWAP4 DUP5 SWAP4 SWAP3 DUP7 AND SWAP3 PUSH4 0x89AFCB44 SWAP3 PUSH1 0x24 DUP1 DUP4 ADD SWAP4 SWAP3 DUP3 SWAP1 SUB ADD DUP2 DUP8 DUP8 DUP1 EXTCODESIZE ISZERO DUP1 ISZERO PUSH2 0xDF3 JUMPI PUSH1 0x0 DUP1 REVERT JUMPDEST POP GAS CALL ISZERO DUP1 ISZERO PUSH2 0xE07 JUMPI RETURNDATASIZE PUSH1 0x0 DUP1 RETURNDATACOPY RETURNDATASIZE PUSH1 0x0 REVERT JUMPDEST POP POP POP POP PUSH1 0x40 MLOAD RETURNDATASIZE PUSH1 0x40 DUP2 LT ISZERO PUSH2 0xE1D JUMPI PUSH1 0x0 DUP1 REVERT JUMPDEST POP DUP1 MLOAD PUSH1 0x20 SWAP1 SWAP2 ADD MLOAD SWAP1 SWAP3 POP SWAP1 POP PUSH1 0x0 PUSH2 0xE37 DUP15 DUP15 PUSH2 0x1CA8 JUMP JUMPDEST POP SWAP1 POP DUP1 PUSH1 0x1 PUSH1 0x1 PUSH1 0xA0 SHL SUB AND DUP15 PUSH1 0x1 PUSH1 0x1 PUSH1 0xA0 SHL SUB AND EQ PUSH2 0xE5A JUMPI DUP2 DUP4 PUSH2 0xE5D JUMP JUMPDEST DUP3 DUP3 JUMPDEST SWAP1 SWAP8 POP SWAP6 POP DUP11 DUP8 LT ISZERO PUSH2 0xEA1 JUMPI PUSH1 0x40 MLOAD PUSH3 0x461BCD PUSH1 0xE5 SHL DUP2 MSTORE PUSH1 0x4 ADD DUP1 DUP1 PUSH1 0x20 ADD DUP3 DUP2 SUB DUP3 MSTORE PUSH1 0x26 DUP2 MSTORE PUSH1 0x20 ADD DUP1 PUSH2 0x235F PUSH1 0x26 SWAP2 CODECOPY PUSH1 0x40 ADD SWAP2 POP POP PUSH1 0x40 MLOAD DUP1 SWAP2 SUB SWAP1 REVERT JUMPDEST DUP10 DUP7 LT ISZERO PUSH2 0xEE0 JUMPI PUSH1 0x40 MLOAD PUSH3 0x461BCD PUSH1 0xE5 SHL DUP2 MSTORE PUSH1 0x4 ADD DUP1 DUP1 PUSH1 0x20 ADD DUP3 DUP2 SUB DUP3 MSTORE PUSH1 0x26 DUP2 MSTORE PUSH1 0x20 ADD DUP1 PUSH2 0x21BB PUSH1 0x26 SWAP2 CODECOPY PUSH1 0x40 ADD SWAP2 POP POP PUSH1 0x40 MLOAD DUP1 SWAP2 SUB SWAP1 REVERT JUMPDEST POP POP POP POP POP SWAP8 POP SWAP8 SWAP6 POP POP POP POP POP POP JUMP JUMPDEST PUSH32 0x0 DUP2 JUMP JUMPDEST PUSH1 0x60 PUSH2 0x636 PUSH32 0x0 DUP5 DUP5 PUSH2 0x1318 JUMP JUMPDEST PUSH1 0x0 DUP1 PUSH1 0x0 DUP4 TIMESTAMP DUP2 LT ISZERO PUSH2 0xF8B JUMPI PUSH1 0x40 DUP1 MLOAD PUSH3 0x461BCD PUSH1 0xE5 SHL DUP2 MSTORE PUSH1 0x20 PUSH1 0x4 DUP3 ADD MSTORE PUSH1 0x18 PUSH1 0x24 DUP3 ADD MSTORE PUSH1 0x0 DUP1 MLOAD PUSH1 0x20 PUSH2 0x23EA DUP4 CODECOPY DUP2 MLOAD SWAP2 MSTORE PUSH1 0x44 DUP3 ADD MSTORE SWAP1 MLOAD SWAP1 DUP2 SWAP1 SUB PUSH1 0x64 ADD SWAP1 REVERT JUMPDEST PUSH2 0xF99 DUP13 DUP13 DUP13 DUP13 DUP13 DUP13 PUSH2 0x1D70 JUMP JUMPDEST SWAP1 SWAP5 POP SWAP3 POP PUSH1 0x0 PUSH2 0xFCB PUSH32 0x0 DUP15 DUP15 PUSH2 0x1284 JUMP JUMPDEST SWAP1 POP PUSH2 0xFD9 DUP14 CALLER DUP4 DUP9 PUSH2 0x1439 JUMP JUMPDEST PUSH2 0xFE5 DUP13 CALLER DUP4 DUP8 PUSH2 0x1439 JUMP JUMPDEST DUP1 PUSH1 0x1 PUSH1 0x1 PUSH1 0xA0 SHL SUB AND PUSH4 0x6A627842 DUP9 PUSH1 0x40 MLOAD DUP3 PUSH4 0xFFFFFFFF AND PUSH1 0xE0 SHL DUP2 MSTORE PUSH1 0x4 ADD DUP1 DUP3 PUSH1 0x1 PUSH1 0x1 PUSH1 0xA0 SHL SUB AND DUP2 MSTORE PUSH1 0x20 ADD SWAP2 POP POP PUSH1 0x20 PUSH1 0x40 MLOAD DUP1 DUP4 SUB DUP2 PUSH1 0x0 DUP8 DUP1 EXTCODESIZE ISZERO DUP1 ISZERO PUSH2 0x1034 JUMPI PUSH1 0x0 DUP1 REVERT JUMPDEST POP GAS CALL ISZERO DUP1 ISZERO PUSH2 0x1048 JUMPI RETURNDATASIZE PUSH1 0x0 DUP1 RETURNDATACOPY RETURNDATASIZE PUSH1 0x0 REVERT JUMPDEST POP POP POP POP PUSH1 0x40 MLOAD RETURNDATASIZE PUSH1 0x20 DUP2 LT ISZERO PUSH2 0x105E JUMPI PUSH1 0x0 DUP1 REVERT JUMPDEST POP MLOAD SWAP5 SWAP14 SWAP4 SWAP13 POP SWAP4 SWAP11 POP SWAP2 SWAP9 POP POP POP POP POP POP POP POP POP JUMP JUMPDEST PUSH1 0x0 DUP1 DUP5 GT PUSH2 0x10B5 JUMPI PUSH1 0x40 MLOAD PUSH3 0x461BCD PUSH1 0xE5 SHL DUP2 MSTORE PUSH1 0x4 ADD DUP1 DUP1 PUSH1 0x20 ADD DUP3 DUP2 SUB DUP3 MSTORE PUSH1 0x40 DUP2 MSTORE PUSH1 0x20 ADD DUP1 PUSH2 0x217B PUSH1 0x40 SWAP2 CODECOPY PUSH1 0x40 ADD SWAP2 POP POP PUSH1 0x40 MLOAD DUP1 SWAP2 SUB SWAP1 REVERT JUMPDEST PUSH1 0x0 DUP4 GT DUP1 ISZERO PUSH2 0x10C5 JUMPI POP PUSH1 0x0 DUP3 GT JUMPDEST PUSH2 0x1100 JUMPI PUSH1 0x40 MLOAD PUSH3 0x461BCD PUSH1 0xE5 SHL DUP2 MSTORE PUSH1 0x4 ADD DUP1 DUP1 PUSH1 0x20 ADD DUP3 DUP2 SUB DUP3 MSTORE PUSH1 0x3D DUP2 MSTORE PUSH1 0x20 ADD DUP1 PUSH2 0x221B PUSH1 0x3D SWAP2 CODECOPY PUSH1 0x40 ADD SWAP2 POP POP PUSH1 0x40 MLOAD DUP1 SWAP2 SUB SWAP1 REVERT JUMPDEST PUSH1 0x0 PUSH2 0x110E DUP6 PUSH2 0x3E5 PUSH2 0x2001 JUMP JUMPDEST SWAP1 POP PUSH1 0x0 PUSH2 0x111C DUP3 DUP6 PUSH2 0x2001 JUMP JUMPDEST SWAP1 POP PUSH1 0x0 PUSH2 0x1136 DUP4 PUSH2 0x1130 DUP9 PUSH2 0x3E8 PUSH2 0x2001 JUMP JUMPDEST SWAP1 PUSH2 0x2064 JUMP JUMPDEST SWAP1 POP DUP1 DUP3 DUP2 PUSH2 0x1141 JUMPI INVALID JUMPDEST DIV SWAP8 SWAP7 POP POP POP POP POP POP POP JUMP JUMPDEST PUSH1 0x60 PUSH1 0x2 DUP3 MLOAD LT ISZERO PUSH2 0x1190 JUMPI PUSH1 0x40 MLOAD PUSH3 0x461BCD PUSH1 0xE5 SHL DUP2 MSTORE PUSH1 0x4 ADD DUP1 DUP1 PUSH1 0x20 ADD DUP3 DUP2 SUB DUP3 MSTORE PUSH1 0x33 DUP2 MSTORE PUSH1 0x20 ADD DUP1 PUSH2 0x22B8 PUSH1 0x33 SWAP2 CODECOPY PUSH1 0x40 ADD SWAP2 POP POP PUSH1 0x40 MLOAD DUP1 SWAP2 SUB SWAP1 REVERT JUMPDEST DUP2 MLOAD PUSH8 0xFFFFFFFFFFFFFFFF DUP2 GT DUP1 ISZERO PUSH2 0x11A8 JUMPI PUSH1 0x0 DUP1 REVERT JUMPDEST POP PUSH1 0x40 MLOAD SWAP1 DUP1 DUP3 MSTORE DUP1 PUSH1 0x20 MUL PUSH1 0x20 ADD DUP3 ADD PUSH1 0x40 MSTORE DUP1 ISZERO PUSH2 0x11D2 JUMPI DUP2 PUSH1 0x20 ADD PUSH1 0x20 DUP3 MUL DUP1 CALLDATASIZE DUP4 CALLDATACOPY ADD SWAP1 POP JUMPDEST POP SWAP1 POP DUP3 DUP2 PUSH1 0x1 DUP4 MLOAD SUB DUP2 MLOAD DUP2 LT PUSH2 0x11E6 JUMPI INVALID JUMPDEST PUSH1 0x20 SWAP1 DUP2 MUL SWAP2 SWAP1 SWAP2 ADD ADD MSTORE DUP2 MLOAD PUSH1 0x0 NOT ADD JUMPDEST DUP1 ISZERO PUSH2 0x127C JUMPI PUSH1 0x0 DUP1 PUSH2 0x1235 DUP8 DUP7 PUSH1 0x1 DUP7 SUB DUP2 MLOAD DUP2 LT PUSH2 0x1214 JUMPI INVALID JUMPDEST PUSH1 0x20 MUL PUSH1 0x20 ADD ADD MLOAD DUP8 DUP7 DUP2 MLOAD DUP2 LT PUSH2 0x1228 JUMPI INVALID JUMPDEST PUSH1 0x20 MUL PUSH1 0x20 ADD ADD MLOAD PUSH2 0x20B3 JUMP JUMPDEST SWAP2 POP SWAP2 POP PUSH2 0x1257 DUP5 DUP5 DUP2 MLOAD DUP2 LT PUSH2 0x1248 JUMPI INVALID JUMPDEST PUSH1 0x20 MUL PUSH1 0x20 ADD ADD MLOAD DUP4 DUP4 PUSH2 0x1B2A JUMP JUMPDEST DUP5 PUSH1 0x1 DUP6 SUB DUP2 MLOAD DUP2 LT PUSH2 0x1266 JUMPI INVALID JUMPDEST PUSH1 0x20 SWAP1 DUP2 MUL SWAP2 SWAP1 SWAP2 ADD ADD MSTORE POP POP PUSH1 0x0 NOT ADD PUSH2 0x11F8 JUMP JUMPDEST POP SWAP4 SWAP3 POP POP POP JUMP JUMPDEST PUSH1 0x0 DUP4 PUSH1 0x1 PUSH1 0x1 PUSH1 0xA0 SHL SUB AND PUSH4 0xE6A43905 DUP5 DUP5 PUSH1 0x40 MLOAD DUP4 PUSH4 0xFFFFFFFF AND PUSH1 0xE0 SHL DUP2 MSTORE PUSH1 0x4 ADD DUP1 DUP4 PUSH1 0x1 PUSH1 0x1 PUSH1 0xA0 SHL SUB AND DUP2 MSTORE PUSH1 0x20 ADD DUP3 PUSH1 0x1 PUSH1 0x1 PUSH1 0xA0 SHL SUB AND DUP2 MSTORE PUSH1 0x20 ADD SWAP3 POP POP POP PUSH1 0x20 PUSH1 0x40 MLOAD DUP1 DUP4 SUB DUP2 DUP7 DUP1 EXTCODESIZE ISZERO DUP1 ISZERO PUSH2 0x12E4 JUMPI PUSH1 0x0 DUP1 REVERT JUMPDEST POP GAS STATICCALL ISZERO DUP1 ISZERO PUSH2 0x12F8 JUMPI RETURNDATASIZE PUSH1 0x0 DUP1 RETURNDATACOPY RETURNDATASIZE PUSH1 0x0 REVERT JUMPDEST POP POP POP POP PUSH1 0x40 MLOAD RETURNDATASIZE PUSH1 0x20 DUP2 LT ISZERO PUSH2 0x130E JUMPI PUSH1 0x0 DUP1 REVERT JUMPDEST POP MLOAD SWAP5 SWAP4 POP POP POP POP JUMP JUMPDEST PUSH1 0x60 PUSH1 0x2 DUP3 MLOAD LT ISZERO PUSH2 0x135B JUMPI PUSH1 0x40 MLOAD PUSH3 0x461BCD PUSH1 0xE5 SHL DUP2 MSTORE PUSH1 0x4 ADD DUP1 DUP1 PUSH1 0x20 ADD DUP3 DUP2 SUB DUP3 MSTORE PUSH1 0x33 DUP2 MSTORE PUSH1 0x20 ADD DUP1 PUSH2 0x22B8 PUSH1 0x33 SWAP2 CODECOPY PUSH1 0x40 ADD SWAP2 POP POP PUSH1 0x40 MLOAD DUP1 SWAP2 SUB SWAP1 REVERT JUMPDEST DUP2 MLOAD PUSH8 0xFFFFFFFFFFFFFFFF DUP2 GT DUP1 ISZERO PUSH2 0x1373 JUMPI PUSH1 0x0 DUP1 REVERT JUMPDEST POP PUSH1 0x40 MLOAD SWAP1 DUP1 DUP3 MSTORE DUP1 PUSH1 0x20 MUL PUSH1 0x20 ADD DUP3 ADD PUSH1 0x40 MSTORE DUP1 ISZERO PUSH2 0x139D JUMPI DUP2 PUSH1 0x20 ADD PUSH1 0x20 DUP3 MUL DUP1 CALLDATASIZE DUP4 CALLDATACOPY ADD SWAP1 POP JUMPDEST POP SWAP1 POP DUP3 DUP2 PUSH1 0x0 DUP2 MLOAD DUP2 LT PUSH2 0x13AE JUMPI INVALID JUMPDEST PUSH1 0x20 MUL PUSH1 0x20 ADD ADD DUP2 DUP2 MSTORE POP POP PUSH1 0x0 JUMPDEST PUSH1 0x1 DUP4 MLOAD SUB DUP2 LT ISZERO PUSH2 0x127C JUMPI PUSH1 0x0 DUP1 PUSH2 0x13F3 DUP8 DUP7 DUP6 DUP2 MLOAD DUP2 LT PUSH2 0x13DC JUMPI INVALID JUMPDEST PUSH1 0x20 MUL PUSH1 0x20 ADD ADD MLOAD DUP8 DUP7 PUSH1 0x1 ADD DUP2 MLOAD DUP2 LT PUSH2 0x1228 JUMPI INVALID JUMPDEST SWAP2 POP SWAP2 POP PUSH2 0x1415 DUP5 DUP5 DUP2 MLOAD DUP2 LT PUSH2 0x1406 JUMPI INVALID JUMPDEST PUSH1 0x20 MUL PUSH1 0x20 ADD ADD MLOAD DUP4 DUP4 PUSH2 0x1075 JUMP JUMPDEST DUP5 DUP5 PUSH1 0x1 ADD DUP2 MLOAD DUP2 LT PUSH2 0x1424 JUMPI INVALID JUMPDEST PUSH1 0x20 SWAP1 DUP2 MUL SWAP2 SWAP1 SWAP2 ADD ADD MSTORE POP POP PUSH1 0x1 ADD PUSH2 0x13BD JUMP JUMPDEST PUSH1 0x40 DUP1 MLOAD PUSH1 0x1 PUSH1 0x1 PUSH1 0xA0 SHL SUB DUP6 DUP2 AND PUSH1 0x24 DUP4 ADD MSTORE DUP5 DUP2 AND PUSH1 0x44 DUP4 ADD MSTORE PUSH1 0x64 DUP1 DUP4 ADD DUP6 SWAP1 MSTORE DUP4 MLOAD DUP1 DUP5 SUB SWAP1 SWAP2 ADD DUP2 MSTORE PUSH1 0x84 SWAP1 SWAP3 ADD DUP4 MSTORE PUSH1 0x20 DUP3 ADD DUP1 MLOAD PUSH1 0x1 PUSH1 0x1 PUSH1 0xE0 SHL SUB AND PUSH4 0x23B872DD PUSH1 0xE0 SHL OR DUP2 MSTORE SWAP3 MLOAD DUP3 MLOAD PUSH1 0x0 SWAP5 PUSH1 0x60 SWAP5 SWAP4 DUP11 AND SWAP4 SWAP3 SWAP2 DUP3 SWAP2 SWAP1 DUP1 DUP4 DUP4 JUMPDEST PUSH1 0x20 DUP4 LT PUSH2 0x14BE JUMPI DUP1 MLOAD DUP3 MSTORE PUSH1 0x1F NOT SWAP1 SWAP3 ADD SWAP2 PUSH1 0x20 SWAP2 DUP3 ADD SWAP2 ADD PUSH2 0x149F JUMP JUMPDEST PUSH1 0x1 DUP4 PUSH1 0x20 SUB PUSH2 0x100 EXP SUB DUP1 NOT DUP3 MLOAD AND DUP2 DUP5 MLOAD AND DUP1 DUP3 OR DUP6 MSTORE POP POP POP POP POP POP SWAP1 POP ADD SWAP2 POP POP PUSH1 0x0 PUSH1 0x40 MLOAD DUP1 DUP4 SUB DUP2 PUSH1 0x0 DUP7 GAS CALL SWAP2 POP POP RETURNDATASIZE DUP1 PUSH1 0x0 DUP2 EQ PUSH2 0x1520 JUMPI PUSH1 0x40 MLOAD SWAP2 POP PUSH1 0x1F NOT PUSH1 0x3F RETURNDATASIZE ADD AND DUP3 ADD PUSH1 0x40 MSTORE RETURNDATASIZE DUP3 MSTORE RETURNDATASIZE PUSH1 0x0 PUSH1 0x20 DUP5 ADD RETURNDATACOPY PUSH2 0x1525 JUMP JUMPDEST PUSH1 0x60 SWAP2 POP JUMPDEST POP SWAP2 POP SWAP2 POP DUP2 DUP1 ISZERO PUSH2 0x1553 JUMPI POP DUP1 MLOAD ISZERO DUP1 PUSH2 0x1553 JUMPI POP DUP1 DUP1 PUSH1 0x20 ADD SWAP1 MLOAD PUSH1 0x20 DUP2 LT ISZERO PUSH2 0x1550 JUMPI PUSH1 0x0 DUP1 REVERT JUMPDEST POP MLOAD JUMPDEST PUSH2 0x158E JUMPI PUSH1 0x40 MLOAD PUSH3 0x461BCD PUSH1 0xE5 SHL DUP2 MSTORE PUSH1 0x4 ADD DUP1 DUP1 PUSH1 0x20 ADD DUP3 DUP2 SUB DUP3 MSTORE PUSH1 0x39 DUP2 MSTORE PUSH1 0x20 ADD DUP1 PUSH2 0x2258 PUSH1 0x39 SWAP2 CODECOPY PUSH1 0x40 ADD SWAP2 POP POP PUSH1 0x40 MLOAD DUP1 SWAP2 SUB SWAP1 REVERT JUMPDEST POP POP POP POP POP POP JUMP JUMPDEST PUSH1 0x0 JUMPDEST PUSH1 0x1 DUP4 MLOAD SUB DUP2 LT ISZERO PUSH2 0x17CD JUMPI PUSH1 0x0 DUP1 DUP5 DUP4 DUP2 MLOAD DUP2 LT PUSH2 0x15B4 JUMPI INVALID JUMPDEST PUSH1 0x20 MUL PUSH1 0x20 ADD ADD MLOAD DUP6 DUP5 PUSH1 0x1 ADD DUP2 MLOAD DUP2 LT PUSH2 0x15CB JUMPI INVALID JUMPDEST PUSH1 0x20 MUL PUSH1 0x20 ADD ADD MLOAD SWAP2 POP SWAP2 POP PUSH1 0x0 PUSH2 0x15E3 DUP4 DUP4 PUSH2 0x1CA8 JUMP JUMPDEST POP SWAP1 POP PUSH1 0x0 DUP8 DUP6 PUSH1 0x1 ADD DUP2 MLOAD DUP2 LT PUSH2 0x15F7 JUMPI INVALID JUMPDEST PUSH1 0x20 MUL PUSH1 0x20 ADD ADD MLOAD SWAP1 POP PUSH1 0x0 DUP1 DUP4 PUSH1 0x1 PUSH1 0x1 PUSH1 0xA0 SHL SUB AND DUP7 PUSH1 0x1 PUSH1 0x1 PUSH1 0xA0 SHL SUB AND EQ PUSH2 0x1625 JUMPI DUP3 PUSH1 0x0 PUSH2 0x1629 JUMP JUMPDEST PUSH1 0x0 DUP4 JUMPDEST SWAP2 POP SWAP2 POP PUSH1 0x0 PUSH1 0x2 DUP11 MLOAD SUB DUP9 LT PUSH2 0x1640 JUMPI DUP9 PUSH2 0x1681 JUMP JUMPDEST PUSH2 0x1681 PUSH32 0x0 DUP8 DUP13 DUP12 PUSH1 0x2 ADD DUP2 MLOAD DUP2 LT PUSH2 0x1674 JUMPI INVALID JUMPDEST PUSH1 0x20 MUL PUSH1 0x20 ADD ADD MLOAD PUSH2 0x1284 JUMP JUMPDEST SWAP1 POP PUSH2 0x16AE PUSH32 0x0 DUP9 DUP9 PUSH2 0x1284 JUMP JUMPDEST PUSH1 0x1 PUSH1 0x1 PUSH1 0xA0 SHL SUB AND PUSH4 0x22C0D9F DUP5 DUP5 DUP5 PUSH1 0x0 PUSH1 0x40 MLOAD SWAP1 DUP1 DUP3 MSTORE DUP1 PUSH1 0x1F ADD PUSH1 0x1F NOT AND PUSH1 0x20 ADD DUP3 ADD PUSH1 0x40 MSTORE DUP1 ISZERO PUSH2 0x16EB JUMPI PUSH1 0x20 DUP3 ADD DUP2 DUP1 CALLDATASIZE DUP4 CALLDATACOPY ADD SWAP1 POP JUMPDEST POP PUSH1 0x40 MLOAD DUP6 PUSH4 0xFFFFFFFF AND PUSH1 0xE0 SHL DUP2 MSTORE PUSH1 0x4 ADD DUP1 DUP6 DUP2 MSTORE PUSH1 0x20 ADD DUP5 DUP2 MSTORE PUSH1 0x20 ADD DUP4 PUSH1 0x1 PUSH1 0x1 PUSH1 0xA0 SHL SUB AND DUP2 MSTORE PUSH1 0x20 ADD DUP1 PUSH1 0x20 ADD DUP3 DUP2 SUB DUP3 MSTORE DUP4 DUP2 DUP2 MLOAD DUP2 MSTORE PUSH1 0x20 ADD SWAP2 POP DUP1 MLOAD SWAP1 PUSH1 0x20 ADD SWAP1 DUP1 DUP4 DUP4 PUSH1 0x0 JUMPDEST DUP4 DUP2 LT ISZERO PUSH2 0x1753 JUMPI DUP2 DUP2 ADD MLOAD DUP4 DUP3 ADD MSTORE PUSH1 0x20 ADD PUSH2 0x173B JUMP JUMPDEST POP POP POP POP SWAP1 POP SWAP1 DUP2 ADD SWAP1 PUSH1 0x1F AND DUP1 ISZERO PUSH2 0x1780 JUMPI DUP1 DUP3 SUB DUP1 MLOAD PUSH1 0x1 DUP4 PUSH1 0x20 SUB PUSH2 0x100 EXP SUB NOT AND DUP2 MSTORE PUSH1 0x20 ADD SWAP2 POP JUMPDEST POP SWAP6 POP POP POP POP POP POP PUSH1 0x0 PUSH1 0x40 MLOAD DUP1 DUP4 SUB DUP2 PUSH1 0x0 DUP8 DUP1 EXTCODESIZE ISZERO DUP1 ISZERO PUSH2 0x17A2 JUMPI PUSH1 0x0 DUP1 REVERT JUMPDEST POP GAS CALL ISZERO DUP1 ISZERO PUSH2 0x17B6 JUMPI RETURNDATASIZE PUSH1 0x0 DUP1 RETURNDATACOPY RETURNDATASIZE PUSH1 0x0 REVERT JUMPDEST POP POP PUSH1 0x1 SWAP1 SWAP10 ADD SWAP9 POP PUSH2 0x1599 SWAP8 POP POP POP POP POP POP POP POP JUMP JUMPDEST POP POP POP POP JUMP JUMPDEST PUSH1 0x0 JUMPDEST PUSH1 0x1 DUP4 MLOAD SUB DUP2 LT ISZERO PUSH2 0x1AD5 JUMPI PUSH1 0x0 DUP1 DUP5 DUP4 DUP2 MLOAD DUP2 LT PUSH2 0x17F1 JUMPI INVALID JUMPDEST PUSH1 0x20 MUL PUSH1 0x20 ADD ADD MLOAD DUP6 DUP5 PUSH1 0x1 ADD DUP2 MLOAD DUP2 LT PUSH2 0x1808 JUMPI INVALID JUMPDEST PUSH1 0x20 MUL PUSH1 0x20 ADD ADD MLOAD SWAP2 POP SWAP2 POP PUSH1 0x0 PUSH2 0x1820 DUP4 DUP4 PUSH2 0x1CA8 JUMP JUMPDEST POP SWAP1 POP PUSH1 0x0 PUSH2 0x1850 PUSH32 0x0 DUP6 DUP6 PUSH2 0x1284 JUMP JUMPDEST SWAP1 POP PUSH1 0x0 DUP1 PUSH1 0x0 DUP1 DUP5 PUSH1 0x1 PUSH1 0x1 PUSH1 0xA0 SHL SUB AND PUSH4 0x902F1AC PUSH1 0x40 MLOAD DUP2 PUSH4 0xFFFFFFFF AND PUSH1 0xE0 SHL DUP2 MSTORE PUSH1 0x4 ADD PUSH1 0x60 PUSH1 0x40 MLOAD DUP1 DUP4 SUB DUP2 DUP7 DUP1 EXTCODESIZE ISZERO DUP1 ISZERO PUSH2 0x1891 JUMPI PUSH1 0x0 DUP1 REVERT JUMPDEST POP GAS STATICCALL ISZERO DUP1 ISZERO PUSH2 0x18A5 JUMPI RETURNDATASIZE PUSH1 0x0 DUP1 RETURNDATACOPY RETURNDATASIZE PUSH1 0x0 REVERT JUMPDEST POP POP POP POP PUSH1 0x40 MLOAD RETURNDATASIZE PUSH1 0x60 DUP2 LT ISZERO PUSH2 0x18BB JUMPI PUSH1 0x0 DUP1 REVERT JUMPDEST POP DUP1 MLOAD PUSH1 0x20 SWAP1 SWAP2 ADD MLOAD PUSH1 0x1 PUSH1 0x1 PUSH1 0x70 SHL SUB SWAP2 DUP3 AND SWAP4 POP AND SWAP1 POP PUSH1 0x0 DUP1 PUSH1 0x1 PUSH1 0x1 PUSH1 0xA0 SHL SUB DUP11 DUP2 AND SWAP1 DUP10 AND EQ PUSH2 0x18F1 JUMPI DUP3 DUP5 PUSH2 0x18F4 JUMP JUMPDEST DUP4 DUP4 JUMPDEST SWAP2 POP SWAP2 POP PUSH2 0x1949 DUP3 DUP12 PUSH1 0x1 PUSH1 0x1 PUSH1 0xA0 SHL SUB AND PUSH4 0x70A08231 DUP11 PUSH1 0x40 MLOAD DUP3 PUSH4 0xFFFFFFFF AND PUSH1 0xE0 SHL DUP2 MSTORE PUSH1 0x4 ADD DUP1 DUP3 PUSH1 0x1 PUSH1 0x1 PUSH1 0xA0 SHL SUB AND DUP2 MSTORE PUSH1 0x20 ADD SWAP2 POP POP PUSH1 0x20 PUSH1 0x40 MLOAD DUP1 DUP4 SUB DUP2 DUP7 DUP1 EXTCODESIZE ISZERO DUP1 ISZERO PUSH2 0xB21 JUMPI PUSH1 0x0 DUP1 REVERT JUMPDEST SWAP6 POP PUSH2 0x1956 DUP7 DUP4 DUP4 PUSH2 0x1075 JUMP JUMPDEST SWAP5 POP POP POP POP POP PUSH1 0x0 DUP1 DUP6 PUSH1 0x1 PUSH1 0x1 PUSH1 0xA0 SHL SUB AND DUP9 PUSH1 0x1 PUSH1 0x1 PUSH1 0xA0 SHL SUB AND EQ PUSH2 0x1980 JUMPI DUP3 PUSH1 0x0 PUSH2 0x1984 JUMP JUMPDEST PUSH1 0x0 DUP4 JUMPDEST SWAP2 POP SWAP2 POP PUSH1 0x0 PUSH1 0x2 DUP13 MLOAD SUB DUP11 LT PUSH2 0x199B JUMPI DUP11 PUSH2 0x19CF JUMP JUMPDEST PUSH2 0x19CF PUSH32 0x0 DUP10 DUP15 DUP14 PUSH1 0x2 ADD DUP2 MLOAD DUP2 LT PUSH2 0x1674 JUMPI INVALID JUMPDEST PUSH1 0x40 DUP1 MLOAD PUSH1 0x0 DUP1 DUP3 MSTORE PUSH1 0x20 DUP3 ADD SWAP3 DUP4 SWAP1 MSTORE PUSH4 0x22C0D9F PUSH1 0xE0 SHL DUP4 MSTORE PUSH1 0x24 DUP3 ADD DUP8 DUP2 MSTORE PUSH1 0x44 DUP4 ADD DUP8 SWAP1 MSTORE PUSH1 0x1 PUSH1 0x1 PUSH1 0xA0 SHL SUB DUP1 DUP7 AND PUSH1 0x64 DUP6 ADD MSTORE PUSH1 0x80 PUSH1 0x84 DUP6 ADD SWAP1 DUP2 MSTORE DUP5 MLOAD PUSH1 0xA4 DUP7 ADD DUP2 SWAP1 MSTORE SWAP7 SWAP8 POP SWAP1 DUP13 AND SWAP6 PUSH4 0x22C0D9F SWAP6 DUP11 SWAP6 DUP11 SWAP6 DUP11 SWAP6 SWAP2 SWAP5 SWAP2 SWAP4 SWAP2 SWAP3 PUSH1 0xC4 DUP7 ADD SWAP3 SWAP1 SWAP2 DUP2 SWAP1 DUP5 SWAP1 DUP5 SWAP1 JUMPDEST DUP4 DUP2 LT ISZERO PUSH2 0x1A59 JUMPI DUP2 DUP2 ADD MLOAD DUP4 DUP3 ADD MSTORE PUSH1 0x20 ADD PUSH2 0x1A41 JUMP JUMPDEST POP POP POP POP SWAP1 POP SWAP1 DUP2 ADD SWAP1 PUSH1 0x1F AND DUP1 ISZERO PUSH2 0x1A86 JUMPI DUP1 DUP3 SUB DUP1 MLOAD PUSH1 0x1 DUP4 PUSH1 0x20 SUB PUSH2 0x100 EXP SUB NOT AND DUP2 MSTORE PUSH1 0x20 ADD SWAP2 POP JUMPDEST POP SWAP6 POP POP POP POP POP POP PUSH1 0x0 PUSH1 0x40 MLOAD DUP1 DUP4 SUB DUP2 PUSH1 0x0 DUP8 DUP1 EXTCODESIZE ISZERO DUP1 ISZERO PUSH2 0x1AA8 JUMPI PUSH1 0x0 DUP1 REVERT JUMPDEST POP GAS CALL ISZERO DUP1 ISZERO PUSH2 0x1ABC JUMPI RETURNDATASIZE PUSH1 0x0 DUP1 RETURNDATACOPY RETURNDATASIZE PUSH1 0x0 REVERT JUMPDEST POP POP PUSH1 0x1 SWAP1 SWAP12 ADD SWAP11 POP PUSH2 0x17D6 SWAP10 POP POP POP POP POP POP POP POP POP POP JUMP JUMPDEST POP POP POP JUMP JUMPDEST DUP1 DUP3 SUB DUP3 DUP2 GT ISZERO PUSH2 0x639 JUMPI PUSH1 0x40 DUP1 MLOAD PUSH3 0x461BCD PUSH1 0xE5 SHL DUP2 MSTORE PUSH1 0x20 PUSH1 0x4 DUP3 ADD MSTORE PUSH1 0x15 PUSH1 0x24 DUP3 ADD MSTORE PUSH21 0x64732D6D6174682D7375622D756E646572666C6F77 PUSH1 0x58 SHL PUSH1 0x44 DUP3 ADD MSTORE SWAP1 MLOAD SWAP1 DUP2 SWAP1 SUB PUSH1 0x64 ADD SWAP1 REVERT JUMPDEST PUSH1 0x0 DUP1 DUP5 GT PUSH2 0x1B6A JUMPI PUSH1 0x40 MLOAD PUSH3 0x461BCD PUSH1 0xE5 SHL DUP2 MSTORE PUSH1 0x4 ADD DUP1 DUP1 PUSH1 0x20 ADD DUP3 DUP2 SUB DUP3 MSTORE PUSH1 0x41 DUP2 MSTORE PUSH1 0x20 ADD DUP1 PUSH2 0x231E PUSH1 0x41 SWAP2 CODECOPY PUSH1 0x60 ADD SWAP2 POP POP PUSH1 0x40 MLOAD DUP1 SWAP2 SUB SWAP1 REVERT JUMPDEST PUSH1 0x0 DUP4 GT DUP1 ISZERO PUSH2 0x1B7A JUMPI POP PUSH1 0x0 DUP3 GT JUMPDEST PUSH2 0x1BB5 JUMPI PUSH1 0x40 MLOAD PUSH3 0x461BCD PUSH1 0xE5 SHL DUP2 MSTORE PUSH1 0x4 ADD DUP1 DUP1 PUSH1 0x20 ADD DUP3 DUP2 SUB DUP3 MSTORE PUSH1 0x3D DUP2 MSTORE PUSH1 0x20 ADD DUP1 PUSH2 0x221B PUSH1 0x3D SWAP2 CODECOPY PUSH1 0x40 ADD SWAP2 POP POP PUSH1 0x40 MLOAD DUP1 SWAP2 SUB SWAP1 REVERT JUMPDEST PUSH1 0x0 PUSH2 0x1BCD PUSH2 0x3E8 PUSH2 0x1BC7 DUP7 DUP9 PUSH2 0x2001 JUMP JUMPDEST SWAP1 PUSH2 0x2001 JUMP JUMPDEST SWAP1 POP PUSH1 0x0 PUSH2 0x1BE1 PUSH2 0x3E5 PUSH2 0x1BC7 DUP7 DUP10 PUSH2 0x1ADA JUMP JUMPDEST SWAP1 POP PUSH2 0x1BF8 PUSH1 0x1 DUP3 DUP5 DUP2 PUSH2 0x1BF1 JUMPI INVALID JUMPDEST DIV SWAP1 PUSH2 0x2064 JUMP JUMPDEST SWAP7 SWAP6 POP POP POP POP POP POP JUMP JUMPDEST PUSH1 0x0 DUP1 DUP5 GT PUSH2 0x1C42 JUMPI PUSH1 0x40 MLOAD PUSH3 0x461BCD PUSH1 0xE5 SHL DUP2 MSTORE PUSH1 0x4 ADD DUP1 DUP1 PUSH1 0x20 ADD DUP3 DUP2 SUB DUP3 MSTORE PUSH1 0x3A DUP2 MSTORE PUSH1 0x20 ADD DUP1 PUSH2 0x21E1 PUSH1 0x3A SWAP2 CODECOPY PUSH1 0x40 ADD SWAP2 POP POP PUSH1 0x40 MLOAD DUP1 SWAP2 SUB SWAP1 REVERT JUMPDEST PUSH1 0x0 DUP4 GT DUP1 ISZERO PUSH2 0x1C52 JUMPI POP PUSH1 0x0 DUP3 GT JUMPDEST PUSH2 0x1C8D JUMPI PUSH1 0x40 MLOAD PUSH3 0x461BCD PUSH1 0xE5 SHL DUP2 MSTORE PUSH1 0x4 ADD DUP1 DUP1 PUSH1 0x20 ADD DUP3 DUP2 SUB DUP3 MSTORE PUSH1 0x3D DUP2 MSTORE PUSH1 0x20 ADD DUP1 PUSH2 0x221B PUSH1 0x3D SWAP2 CODECOPY PUSH1 0x40 ADD SWAP2 POP POP PUSH1 0x40 MLOAD DUP1 SWAP2 SUB SWAP1 REVERT JUMPDEST DUP3 PUSH2 0x1C98 DUP6 DUP5 PUSH2 0x2001 JUMP JUMPDEST DUP2 PUSH2 0x1C9F JUMPI INVALID JUMPDEST DIV SWAP5 SWAP4 POP POP POP POP JUMP JUMPDEST PUSH1 0x0 DUP1 DUP3 PUSH1 0x1 PUSH1 0x1 PUSH1 0xA0 SHL SUB AND DUP5 PUSH1 0x1 PUSH1 0x1 PUSH1 0xA0 SHL SUB AND EQ ISZERO PUSH2 0x1CFC JUMPI PUSH1 0x40 MLOAD PUSH3 0x461BCD PUSH1 0xE5 SHL DUP2 MSTORE PUSH1 0x4 ADD DUP1 DUP1 PUSH1 0x20 ADD DUP3 DUP2 SUB DUP3 MSTORE PUSH1 0x3A DUP2 MSTORE PUSH1 0x20 ADD DUP1 PUSH2 0x23B0 PUSH1 0x3A SWAP2 CODECOPY PUSH1 0x40 ADD SWAP2 POP POP PUSH1 0x40 MLOAD DUP1 SWAP2 SUB SWAP1 REVERT JUMPDEST DUP3 PUSH1 0x1 PUSH1 0x1 PUSH1 0xA0 SHL SUB AND DUP5 PUSH1 0x1 PUSH1 0x1 PUSH1 0xA0 SHL SUB AND LT PUSH2 0x1D1C JUMPI DUP3 DUP5 PUSH2 0x1D1F JUMP JUMPDEST DUP4 DUP4 JUMPDEST SWAP1 SWAP3 POP SWAP1 POP PUSH1 0x1 PUSH1 0x1 PUSH1 0xA0 SHL SUB DUP3 AND PUSH2 0x1D69 JUMPI PUSH1 0x40 MLOAD PUSH3 0x461BCD PUSH1 0xE5 SHL DUP2 MSTORE PUSH1 0x4 ADD DUP1 DUP1 PUSH1 0x20 ADD DUP3 DUP2 SUB DUP3 MSTORE PUSH1 0x33 DUP2 MSTORE PUSH1 0x20 ADD DUP1 PUSH2 0x22EB PUSH1 0x33 SWAP2 CODECOPY PUSH1 0x40 ADD SWAP2 POP POP PUSH1 0x40 MLOAD DUP1 SWAP2 SUB SWAP1 REVERT JUMPDEST SWAP3 POP SWAP3 SWAP1 POP JUMP JUMPDEST PUSH1 0x0 DUP1 PUSH1 0x0 PUSH1 0x1 PUSH1 0x1 PUSH1 0xA0 SHL SUB AND PUSH32 0x0 PUSH1 0x1 PUSH1 0x1 PUSH1 0xA0 SHL SUB AND PUSH4 0xE6A43905 DUP11 DUP11 PUSH1 0x40 MLOAD DUP4 PUSH4 0xFFFFFFFF AND PUSH1 0xE0 SHL DUP2 MSTORE PUSH1 0x4 ADD DUP1 DUP4 PUSH1 0x1 PUSH1 0x1 PUSH1 0xA0 SHL SUB AND DUP2 MSTORE PUSH1 0x20 ADD DUP3 PUSH1 0x1 PUSH1 0x1 PUSH1 0xA0 SHL SUB AND DUP2 MSTORE PUSH1 0x20 ADD SWAP3 POP POP POP PUSH1 0x20 PUSH1 0x40 MLOAD DUP1 DUP4 SUB DUP2 DUP7 DUP1 EXTCODESIZE ISZERO DUP1 ISZERO PUSH2 0x1DFC JUMPI PUSH1 0x0 DUP1 REVERT JUMPDEST POP GAS STATICCALL ISZERO DUP1 ISZERO PUSH2 0x1E10 JUMPI RETURNDATASIZE PUSH1 0x0 DUP1 RETURNDATACOPY RETURNDATASIZE PUSH1 0x0 REVERT JUMPDEST POP POP POP POP PUSH1 0x40 MLOAD RETURNDATASIZE PUSH1 0x20 DUP2 LT ISZERO PUSH2 0x1E26 JUMPI PUSH1 0x0 DUP1 REVERT JUMPDEST POP MLOAD PUSH1 0x1 PUSH1 0x1 PUSH1 0xA0 SHL SUB AND EQ ISZERO PUSH2 0x1EE4 JUMPI PUSH32 0x0 PUSH1 0x1 PUSH1 0x1 PUSH1 0xA0 SHL SUB AND PUSH4 0xC9C65396 DUP10 DUP10 PUSH1 0x40 MLOAD DUP4 PUSH4 0xFFFFFFFF AND PUSH1 0xE0 SHL DUP2 MSTORE PUSH1 0x4 ADD DUP1 DUP4 PUSH1 0x1 PUSH1 0x1 PUSH1 0xA0 SHL SUB AND DUP2 MSTORE PUSH1 0x20 ADD DUP3 PUSH1 0x1 PUSH1 0x1 PUSH1 0xA0 SHL SUB AND DUP2 MSTORE PUSH1 0x20 ADD SWAP3 POP POP POP PUSH1 0x20 PUSH1 0x40 MLOAD DUP1 DUP4 SUB DUP2 PUSH1 0x0 DUP8 DUP1 EXTCODESIZE ISZERO DUP1 ISZERO PUSH2 0x1EB7 JUMPI PUSH1 0x0 DUP1 REVERT JUMPDEST POP GAS CALL ISZERO DUP1 ISZERO PUSH2 0x1ECB JUMPI RETURNDATASIZE PUSH1 0x0 DUP1 RETURNDATACOPY RETURNDATASIZE PUSH1 0x0 REVERT JUMPDEST POP POP POP POP PUSH1 0x40 MLOAD RETURNDATASIZE PUSH1 0x20 DUP2 LT ISZERO PUSH2 0x1EE1 JUMPI PUSH1 0x0 DUP1 REVERT JUMPDEST POP POP JUMPDEST PUSH1 0x0 DUP1 PUSH2 0x1F12 PUSH32 0x0 DUP12 DUP12 PUSH2 0x20B3 JUMP JUMPDEST SWAP2 POP SWAP2 POP DUP2 PUSH1 0x0 EQ DUP1 ISZERO PUSH2 0x1F24 JUMPI POP DUP1 ISZERO JUMPDEST ISZERO PUSH2 0x1F34 JUMPI DUP8 SWAP4 POP DUP7 SWAP3 POP PUSH2 0x1FF4 JUMP JUMPDEST PUSH1 0x0 PUSH2 0x1F41 DUP10 DUP5 DUP5 PUSH2 0x1C02 JUMP JUMPDEST SWAP1 POP DUP8 DUP2 GT PUSH2 0x1F94 JUMPI DUP6 DUP2 LT ISZERO PUSH2 0x1F89 JUMPI PUSH1 0x40 MLOAD PUSH3 0x461BCD PUSH1 0xE5 SHL DUP2 MSTORE PUSH1 0x4 ADD DUP1 DUP1 PUSH1 0x20 ADD DUP3 DUP2 SUB DUP3 MSTORE PUSH1 0x26 DUP2 MSTORE PUSH1 0x20 ADD DUP1 PUSH2 0x21BB PUSH1 0x26 SWAP2 CODECOPY PUSH1 0x40 ADD SWAP2 POP POP PUSH1 0x40 MLOAD DUP1 SWAP2 SUB SWAP1 REVERT JUMPDEST DUP9 SWAP5 POP SWAP3 POP DUP3 PUSH2 0x1FF2 JUMP JUMPDEST PUSH1 0x0 PUSH2 0x1FA1 DUP10 DUP5 DUP7 PUSH2 0x1C02 JUMP JUMPDEST SWAP1 POP DUP10 DUP2 GT ISZERO PUSH2 0x1FAD JUMPI INVALID JUMPDEST DUP8 DUP2 LT ISZERO PUSH2 0x1FEC JUMPI PUSH1 0x40 MLOAD PUSH3 0x461BCD PUSH1 0xE5 SHL DUP2 MSTORE PUSH1 0x4 ADD DUP1 DUP1 PUSH1 0x20 ADD DUP3 DUP2 SUB DUP3 MSTORE PUSH1 0x26 DUP2 MSTORE PUSH1 0x20 ADD DUP1 PUSH2 0x235F PUSH1 0x26 SWAP2 CODECOPY PUSH1 0x40 ADD SWAP2 POP POP PUSH1 0x40 MLOAD DUP1 SWAP2 SUB SWAP1 REVERT JUMPDEST SWAP5 POP DUP8 SWAP4 POP JUMPDEST POP JUMPDEST POP POP SWAP7 POP SWAP7 SWAP5 POP POP POP POP POP JUMP JUMPDEST PUSH1 0x0 DUP2 ISZERO DUP1 PUSH2 0x201C JUMPI POP POP DUP1 DUP3 MUL DUP3 DUP3 DUP3 DUP2 PUSH2 0x2019 JUMPI INVALID JUMPDEST DIV EQ JUMPDEST PUSH2 0x639 JUMPI PUSH1 0x40 DUP1 MLOAD PUSH3 0x461BCD PUSH1 0xE5 SHL DUP2 MSTORE PUSH1 0x20 PUSH1 0x4 DUP3 ADD MSTORE PUSH1 0x14 PUSH1 0x24 DUP3 ADD MSTORE PUSH20 0x64732D6D6174682D6D756C2D6F766572666C6F77 PUSH1 0x60 SHL PUSH1 0x44 DUP3 ADD MSTORE SWAP1 MLOAD SWAP1 DUP2 SWAP1 SUB PUSH1 0x64 ADD SWAP1 REVERT JUMPDEST DUP1 DUP3 ADD DUP3 DUP2 LT ISZERO PUSH2 0x639 JUMPI PUSH1 0x40 DUP1 MLOAD PUSH3 0x461BCD PUSH1 0xE5 SHL DUP2 MSTORE PUSH1 0x20 PUSH1 0x4 DUP3 ADD MSTORE PUSH1 0x14 PUSH1 0x24 DUP3 ADD MSTORE PUSH20 0x64732D6D6174682D6164642D6F766572666C6F77 PUSH1 0x60 SHL PUSH1 0x44 DUP3 ADD MSTORE SWAP1 MLOAD SWAP1 DUP2 SWAP1 SUB PUSH1 0x64 ADD SWAP1 REVERT JUMPDEST PUSH1 0x0 DUP1 PUSH1 0x0 PUSH2 0x20C2 DUP6 DUP6 PUSH2 0x1CA8 JUMP JUMPDEST POP SWAP1 POP PUSH1 0x0 DUP1 PUSH2 0x20D3 DUP9 DUP9 DUP9 PUSH2 0x1284 JUMP JUMPDEST PUSH1 0x1 PUSH1 0x1 PUSH1 0xA0 SHL SUB AND PUSH4 0x902F1AC PUSH1 0x40 MLOAD DUP2 PUSH4 0xFFFFFFFF AND PUSH1 0xE0 SHL DUP2 MSTORE PUSH1 0x4 ADD PUSH1 0x60 PUSH1 0x40 MLOAD DUP1 DUP4 SUB DUP2 DUP7 DUP1 EXTCODESIZE ISZERO DUP1 ISZERO PUSH2 0x210B JUMPI PUSH1 0x0 DUP1 REVERT JUMPDEST POP GAS STATICCALL ISZERO DUP1 ISZERO PUSH2 0x211F JUMPI RETURNDATASIZE PUSH1 0x0 DUP1 RETURNDATACOPY RETURNDATASIZE PUSH1 0x0 REVERT JUMPDEST POP POP POP POP PUSH1 0x40 MLOAD RETURNDATASIZE PUSH1 0x60 DUP2 LT ISZERO PUSH2 0x2135 JUMPI PUSH1 0x0 DUP1 REVERT JUMPDEST POP DUP1 MLOAD PUSH1 0x20 SWAP1 SWAP2 ADD MLOAD PUSH1 0x1 PUSH1 0x1 PUSH1 0x70 SHL SUB SWAP2 DUP3 AND SWAP4 POP AND SWAP1 POP PUSH1 0x1 PUSH1 0x1 PUSH1 0xA0 SHL SUB DUP8 DUP2 AND SWAP1 DUP5 AND EQ PUSH2 0x2168 JUMPI DUP1 DUP3 PUSH2 0x216B JUMP JUMPDEST DUP2 DUP2 JUMPDEST SWAP1 SWAP10 SWAP1 SWAP9 POP SWAP7 POP POP POP POP POP POP POP JUMP INVALID 0x4D PUSH16 0x636B556E69737761705632526F757465 PUSH19 0x3032556E697377617056324C6962726172793A KECCAK256 0x49 0x4E MSTORE8 SSTORE CHAINID CHAINID 0x49 NUMBER 0x49 GASLIMIT 0x4E SLOAD 0x5F 0x49 0x4E POP SSTORE SLOAD 0x5F COINBASE 0x4D 0x4F SSTORE 0x4E SLOAD SSTORE PUSH15 0x69737761705632526F757465723A20 0x49 0x4E MSTORE8 SSTORE CHAINID CHAINID 0x49 NUMBER 0x49 GASLIMIT 0x4E SLOAD 0x5F TIMESTAMP 0x5F COINBASE 0x4D 0x4F SSTORE 0x4E SLOAD 0x4D PUSH16 0x636B556E69737761705632526F757465 PUSH19 0x3032556E697377617056324C6962726172793A KECCAK256 0x49 0x4E MSTORE8 SSTORE CHAINID CHAINID 0x49 NUMBER 0x49 GASLIMIT 0x4E SLOAD 0x5F COINBASE 0x4D 0x4F SSTORE 0x4E SLOAD 0x4D PUSH16 0x636B556E69737761705632526F757465 PUSH19 0x3032556E697377617056324C6962726172793A KECCAK256 0x49 0x4E MSTORE8 SSTORE CHAINID CHAINID 0x49 NUMBER 0x49 GASLIMIT 0x4E SLOAD 0x5F 0x4C 0x49 MLOAD SSTORE 0x49 DIFFICULTY 0x49 SLOAD MSIZE 0x4D PUSH16 0x636B556E69737761705632526F757465 PUSH19 0x30325472616E7366657248656C7065723A2054 MSTORE COINBASE 0x4E MSTORE8 CHAINID GASLIMIT MSTORE 0x5F CHAINID MSTORE 0x4F 0x4D 0x5F CHAINID COINBASE 0x49 0x4C GASLIMIT DIFFICULTY SSTORE PUSH15 0x69737761705632526F757465723A20 GASLIMIT PC NUMBER GASLIMIT MSTORE8 MSTORE8 0x49 JUMP GASLIMIT 0x5F 0x49 0x4E POP SSTORE SLOAD 0x5F COINBASE 0x4D 0x4F SSTORE 0x4E SLOAD 0x4D PUSH16 0x636B556E69737761705632526F757465 PUSH19 0x3032556E697377617056324C6962726172793A KECCAK256 0x49 0x4E JUMP COINBASE 0x4C 0x49 DIFFICULTY 0x5F POP COINBASE SLOAD 0x48 0x4D PUSH16 0x636B556E69737761705632526F757465 PUSH19 0x3032556E697377617056324C6962726172793A KECCAK256 GAS GASLIMIT MSTORE 0x4F 0x5F COINBASE DIFFICULTY DIFFICULTY MSTORE GASLIMIT MSTORE8 MSTORE8 0x4D PUSH16 0x636B556E69737761705632526F757465 PUSH19 0x3032556E697377617056324C6962726172793A KECCAK256 0x49 0x4E MSTORE8 SSTORE CHAINID CHAINID 0x49 NUMBER 0x49 GASLIMIT 0x4E SLOAD 0x5F 0x4F SSTORE SLOAD POP SSTORE SLOAD 0x5F COINBASE 0x4D 0x4F SSTORE 0x4E SLOAD SSTORE PUSH15 0x69737761705632526F757465723A20 0x49 0x4E MSTORE8 SSTORE CHAINID CHAINID 0x49 NUMBER 0x49 GASLIMIT 0x4E SLOAD 0x5F COINBASE 0x5F COINBASE 0x4D 0x4F SSTORE 0x4E SLOAD SSTORE PUSH15 0x69737761705632526F757465723A20 0x49 0x4E MSTORE8 SSTORE CHAINID CHAINID 0x49 NUMBER 0x49 GASLIMIT 0x4E SLOAD 0x5F 0x4F SSTORE SLOAD POP SSTORE SLOAD 0x5F COINBASE 0x4D 0x4F SSTORE 0x4E SLOAD 0x4D PUSH16 0x636B556E69737761705632526F757465 PUSH19 0x3032556E697377617056324C6962726172793A KECCAK256 0x49 DIFFICULTY GASLIMIT 0x4E SLOAD 0x49 NUMBER COINBASE 0x4C 0x5F COINBASE DIFFICULTY DIFFICULTY MSTORE GASLIMIT MSTORE8 MSTORE8 GASLIMIT MSTORE8 SSTORE PUSH15 0x69737761705632526F757465723A20 GASLIMIT PC POP 0x49 MSTORE GASLIMIT DIFFICULTY STOP STOP STOP STOP STOP STOP STOP STOP LOG2 PUSH5 0x6970667358 0x22 SLT KECCAK256 PUSH26 0x97CCF5C5FCA2BA535E8938DA0A7E4726E7B2C52AB885DEABC077 0xDA 0xEB 0xCF PUSH2 0x7464 PUSH20 0x6F6C634300060C00330000000000000000000000 ",
  "sha1": "87563b2f012170de1d02d52f4c0d393add8a77a4",
  "source": "pragma solidity 0.6.12;\n\ninterface MockUniswapV2Router02IUniswapV2Factory {\n  event PairCreated(address indexed token0, address indexed token1, address pair, uint);\n\n  function feeTo() external view returns (address);\n\n  function feeToSetter() external view returns (address);\n\n  function getPair(address tokenA, address tokenB) external view returns (address pair);\n\n  function allPairs(uint) external view returns (address pair);\n\n  function allPairsLength() external view returns (uint);\n\n  function createPair(address tokenA, address tokenB) external returns (address pair);\n\n  function setFeeTo(address) external;\n\n  function setFeeToSetter(address) external;\n}\n\ninterface MockUniswapV2Router02IUniswapV2Pair {\n  event Approval(address indexed owner, address indexed spender, uint value);\n  event Transfer(address indexed from, address indexed to, uint value);\n\n  function name() external pure returns (string memory);\n\n  function symbol() external pure returns (string memory);\n\n  function decimals() external pure returns (uint8);\n\n  function totalSupply() external view returns (uint);\n\n  function balanceOf(address owner) external view returns (uint);\n\n  function allowance(address owner, address spender) external view returns (uint);\n\n  function approve(address spender, uint value) external returns (bool);\n\n  function transfer(address to, uint value) external returns (bool);\n\n  function transferFrom(\n    address from,\n    address to,\n    uint value\n  ) external returns (bool);\n\n  function DOMAIN_SEPARATOR() external view returns (bytes32);\n\n  function PERMIT_TYPEHASH() external pure returns (bytes32);\n\n  function nonces(address owner) external view returns (uint);\n\n  function permit(\n    address owner,\n    address spender,\n    uint value,\n    uint deadline,\n    uint8 v,\n    bytes32 r,\n    bytes32 s\n  ) external;\n\n  event Mint(address indexed sender, uint amount0, uint amount1);\n  event Burn(address indexed sender, uint amount0, uint amount1, address indexed to);\n  event Swap(\n    address indexed sender,\n    uint amount0In,\n    uint amount1In,\n    uint amount0Out,\n    uint amount1Out,\n    address indexed to\n  );\n  event Sync(uint112 reserve0, uint112 reserve1);\n\n  function MINIMUM_LIQUIDITY() external pure returns (uint);\n\n  function factory() external view returns (address);\n\n  function token0() external view returns (address);\n\n  function token1() external view returns (address);\n\n  function getReserves()\n    external\n    view\n    returns (\n      uint112 reserve0,\n      uint112 reserve1,\n      uint32 blockTimestampLast\n    );\n\n  function price0CumulativeLast() external view returns (uint);\n\n  function price1CumulativeLast() external view returns (uint);\n\n  function kLast() external view returns (uint);\n\n  function mint(address to) external returns (uint liquidity);\n\n  function burn(address to) external returns (uint amount0, uint amount1);\n\n  function swap(\n    uint amount0Out,\n    uint amount1Out,\n    address to,\n    bytes calldata data\n  ) external;\n\n  function skim(address to) external;\n\n  function sync() external;\n\n  function initialize(address, address) external;\n}\n\ninterface MockUniswapV2Router02IUniswapV2Router01 {\n  function factory() external pure returns (address);\n\n  function addLiquidity(\n    address tokenA,\n    address tokenB,\n    uint amountADesired,\n    uint amountBDesired,\n    uint amountAMin,\n    uint amountBMin,\n    address to,\n    uint deadline\n  )\n    external\n    returns (\n      uint amountA,\n      uint amountB,\n      uint liquidity\n    );\n\n  function removeLiquidity(\n    address tokenA,\n    address tokenB,\n    uint liquidity,\n    uint amountAMin,\n    uint amountBMin,\n    address to,\n    uint deadline\n  ) external returns (uint amountA, uint amountB);\n\n  function removeLiquidityWithPermit(\n    address tokenA,\n    address tokenB,\n    uint liquidity,\n    uint amountAMin,\n    uint amountBMin,\n    address to,\n    uint deadline,\n    bool approveMax,\n    uint8 v,\n    bytes32 r,\n    bytes32 s\n  ) external returns (uint amountA, uint amountB);\n\n  function swapExactTokensForTokens(\n    uint amountIn,\n    uint amountOutMin,\n    address[] calldata path,\n    address to,\n    uint deadline\n  ) external returns (uint[] memory amounts);\n\n  function swapTokensForExactTokens(\n    uint amountOut,\n    uint amountInMax,\n    address[] calldata path,\n    address to,\n    uint deadline\n  ) external returns (uint[] memory amounts);\n\n  function quote(\n    uint amountA,\n    uint reserveA,\n    uint reserveB\n  ) external pure returns (uint amountB);\n\n  function getAmountOut(\n    uint amountIn,\n    uint reserveIn,\n    uint reserveOut\n  ) external pure returns (uint amountOut);\n\n  function getAmountIn(\n    uint amountOut,\n    uint reserveIn,\n    uint reserveOut\n  ) external pure returns (uint amountIn);\n\n  function getAmountsOut(uint amountIn, address[] calldata path)\n    external\n    view\n    returns (uint[] memory amounts);\n\n  function getAmountsIn(uint amountOut, address[] calldata path)\n    external\n    view\n    returns (uint[] memory amounts);\n}\n\ninterface MockUniswapV2Router02IUniswapV2Router02 is MockUniswapV2Router02IUniswapV2Router01 {\n\n  function swapExactTokensForTokensSupportingFeeOnTransferTokens(\n    uint amountIn,\n    uint amountOutMin,\n    address[] calldata path,\n    address to,\n    uint deadline\n  ) external;\n}\n\ninterface IERC20 {\n  event Approval(address indexed owner, address indexed spender, uint value);\n  event Transfer(address indexed from, address indexed to, uint value);\n\n  function name() external view returns (string memory);\n\n  function symbol() external view returns (string memory);\n\n  function decimals() external view returns (uint8);\n\n  function totalSupply() external view returns (uint);\n\n  function balanceOf(address owner) external view returns (uint);\n\n  function allowance(address owner, address spender) external view returns (uint);\n\n  function approve(address spender, uint value) external returns (bool);\n\n  function transfer(address to, uint value) external returns (bool);\n\n  function transferFrom(\n    address from,\n    address to,\n    uint value\n  ) external returns (bool);\n}\n\ncontract MockUniswapV2Router02 is MockUniswapV2Router02IUniswapV2Router02 {\n  using MockUniswapV2Router02SafeMath for uint;\n\n  address public immutable override factory;\n\n  modifier ensure(uint deadline) {\n    require(deadline >= block.timestamp, 'UniswapV2Router: EXPIRED');\n    _;\n  }\n\n  constructor(address _factory) public {\n    factory = _factory;\n  }\n\n  // **** ADD LIQUIDITY ****\n  function _addLiquidity(\n    address tokenA,\n    address tokenB,\n    uint amountADesired,\n    uint amountBDesired,\n    uint amountAMin,\n    uint amountBMin\n  ) internal virtual returns (uint amountA, uint amountB) {\n    // create the pair if it doesn't exist yet\n    if (MockUniswapV2Router02IUniswapV2Factory(factory).getPair(tokenA, tokenB) == address(0)) {\n      MockUniswapV2Router02IUniswapV2Factory(factory).createPair(tokenA, tokenB);\n    }\n    (uint reserveA, uint reserveB) =\n      MockUniswapV2Router02UniswapV2Library.getReserves(factory, tokenA, tokenB);\n    if (reserveA == 0 && reserveB == 0) {\n      (amountA, amountB) = (amountADesired, amountBDesired);\n    } else {\n      uint amountBOptimal =\n        MockUniswapV2Router02UniswapV2Library.quote(amountADesired, reserveA, reserveB);\n      if (amountBOptimal <= amountBDesired) {\n        require(amountBOptimal >= amountBMin, 'UniswapV2Router: INSUFFICIENT_B_AMOUNT');\n        (amountA, amountB) = (amountADesired, amountBOptimal);\n      } else {\n        uint amountAOptimal =\n          MockUniswapV2Router02UniswapV2Library.quote(amountBDesired, reserveB, reserveA);\n        assert(amountAOptimal <= amountADesired);\n        require(amountAOptimal >= amountAMin, 'UniswapV2Router: INSUFFICIENT_A_AMOUNT');\n        (amountA, amountB) = (amountAOptimal, amountBDesired);\n      }\n    }\n  }\n\n  function addLiquidity(\n    address tokenA,\n    address tokenB,\n    uint amountADesired,\n    uint amountBDesired,\n    uint amountAMin,\n    uint amountBMin,\n    address to,\n    uint deadline\n  )\n    external\n    virtual\n    override\n    ensure(deadline)\n    returns (\n      uint amountA,\n      uint amountB,\n      uint liquidity\n    )\n  {\n    (amountA, amountB) = _addLiquidity(\n      tokenA,\n      tokenB,\n      amountADesired,\n      amountBDesired,\n      amountAMin,\n      amountBMin\n    );\n    address pair = MockUniswapV2Router02UniswapV2Library.pairFor(factory, tokenA, tokenB);\n    MockUniswapV2Router02TransferHelper.safeTransferFrom(tokenA, msg.sender, pair, amountA);\n    MockUniswapV2Router02TransferHelper.safeTransferFrom(tokenB, msg.sender, pair, amountB);\n    liquidity = MockUniswapV2Router02IUniswapV2Pair(pair).mint(to);\n  }\n\n  // **** REMOVE LIQUIDITY ****\n  function removeLiquidity(\n    address tokenA,\n    address tokenB,\n    uint liquidity,\n    uint amountAMin,\n    uint amountBMin,\n    address to,\n    uint deadline\n  ) public virtual override ensure(deadline) returns (uint amountA, uint amountB) {\n    address pair = MockUniswapV2Router02UniswapV2Library.pairFor(factory, tokenA, tokenB);\n    MockUniswapV2Router02IUniswapV2Pair(pair).transferFrom(msg.sender, pair, liquidity); // send liquidity to pair\n    (uint amount0, uint amount1) = MockUniswapV2Router02IUniswapV2Pair(pair).burn(to);\n    (address token0, ) = MockUniswapV2Router02UniswapV2Library.sortTokens(tokenA, tokenB);\n    (amountA, amountB) = tokenA == token0 ? (amount0, amount1) : (amount1, amount0);\n    require(amountA >= amountAMin, 'UniswapV2Router: INSUFFICIENT_A_AMOUNT');\n    require(amountB >= amountBMin, 'UniswapV2Router: INSUFFICIENT_B_AMOUNT');\n  }\n\n  function removeLiquidityWithPermit(\n    address tokenA,\n    address tokenB,\n    uint liquidity,\n    uint amountAMin,\n    uint amountBMin,\n    address to,\n    uint deadline,\n    bool approveMax,\n    uint8 v,\n    bytes32 r,\n    bytes32 s\n  ) external virtual override returns (uint amountA, uint amountB) {\n    address pair = MockUniswapV2Router02UniswapV2Library.pairFor(factory, tokenA, tokenB);\n    uint value = approveMax ? uint(-1) : liquidity;\n    MockUniswapV2Router02IUniswapV2Pair(pair).permit(\n      msg.sender,\n      address(this),\n      value,\n      deadline,\n      v,\n      r,\n      s\n    );\n    (amountA, amountB) = removeLiquidity(\n      tokenA,\n      tokenB,\n      liquidity,\n      amountAMin,\n      amountBMin,\n      to,\n      deadline\n    );\n  }\n\n\n  // **** REMOVE LIQUIDITY (supporting fee-on-transfer tokens) ****\n\n  // **** SWAP ****\n  // requires the initial amount to have already been sent to the first pair\n  function _swap(\n    uint[] memory amounts,\n    address[] memory path,\n    address _to\n  ) internal virtual {\n    for (uint i; i < path.length - 1; i++) {\n      (address input, address output) = (path[i], path[i + 1]);\n      (address token0, ) = MockUniswapV2Router02UniswapV2Library.sortTokens(input, output);\n      uint amountOut = amounts[i + 1];\n      (uint amount0Out, uint amount1Out) =\n        input == token0 ? (uint(0), amountOut) : (amountOut, uint(0));\n      address to =\n        i < path.length - 2\n          ? MockUniswapV2Router02UniswapV2Library.pairFor(factory, output, path[i + 2])\n          : _to;\n      MockUniswapV2Router02IUniswapV2Pair(\n        MockUniswapV2Router02UniswapV2Library.pairFor(factory, input, output)\n      )\n        .swap(amount0Out, amount1Out, to, new bytes(0));\n    }\n  }\n\n  function swapExactTokensForTokens(\n    uint amountIn,\n    uint amountOutMin,\n    address[] calldata path,\n    address to,\n    uint deadline\n  ) external virtual override ensure(deadline) returns (uint[] memory amounts) {\n    amounts = MockUniswapV2Router02UniswapV2Library.getAmountsOut(factory, amountIn, path);\n    require(\n      amounts[amounts.length - 1] >= amountOutMin,\n      'UniswapV2Router: INSUFFICIENT_OUTPUT_AMOUNT'\n    );\n    MockUniswapV2Router02TransferHelper.safeTransferFrom(\n      path[0],\n      msg.sender,\n      MockUniswapV2Router02UniswapV2Library.pairFor(factory, path[0], path[1]),\n      amounts[0]\n    );\n    _swap(amounts, path, to);\n  }\n\n  function swapTokensForExactTokens(\n    uint amountOut,\n    uint amountInMax,\n    address[] calldata path,\n    address to,\n    uint deadline\n  ) external virtual override ensure(deadline) returns (uint[] memory amounts) {\n    amounts = MockUniswapV2Router02UniswapV2Library.getAmountsIn(factory, amountOut, path);\n    require(amounts[0] <= amountInMax, 'UniswapV2Router: EXCESSIVE_INPUT_AMOUNT');\n    MockUniswapV2Router02TransferHelper.safeTransferFrom(\n      path[0],\n      msg.sender,\n      MockUniswapV2Router02UniswapV2Library.pairFor(factory, path[0], path[1]),\n      amounts[0]\n    );\n    _swap(amounts, path, to);\n  }\n\n  // **** SWAP (supporting fee-on-transfer tokens) ****\n  // requires the initial amount to have already been sent to the first pair\n  function _swapSupportingFeeOnTransferTokens(address[] memory path, address _to) internal virtual {\n    for (uint i; i < path.length - 1; i++) {\n      (address input, address output) = (path[i], path[i + 1]);\n      (address token0, ) = MockUniswapV2Router02UniswapV2Library.sortTokens(input, output);\n      MockUniswapV2Router02IUniswapV2Pair pair =\n        MockUniswapV2Router02IUniswapV2Pair(\n          MockUniswapV2Router02UniswapV2Library.pairFor(factory, input, output)\n        );\n      uint amountInput;\n      uint amountOutput;\n      {\n        // scope to avoid stack too deep errors\n        (uint reserve0, uint reserve1, ) = pair.getReserves();\n        (uint reserveInput, uint reserveOutput) =\n          input == token0 ? (reserve0, reserve1) : (reserve1, reserve0);\n        amountInput = IERC20(input).balanceOf(address(pair)).sub(reserveInput);\n        amountOutput = MockUniswapV2Router02UniswapV2Library.getAmountOut(\n          amountInput,\n          reserveInput,\n          reserveOutput\n        );\n      }\n      (uint amount0Out, uint amount1Out) =\n        input == token0 ? (uint(0), amountOutput) : (amountOutput, uint(0));\n      address to =\n        i < path.length - 2\n          ? MockUniswapV2Router02UniswapV2Library.pairFor(factory, output, path[i + 2])\n          : _to;\n      pair.swap(amount0Out, amount1Out, to, new bytes(0));\n    }\n  }\n\n  function swapExactTokensForTokensSupportingFeeOnTransferTokens(\n    uint amountIn,\n    uint amountOutMin,\n    address[] calldata path,\n    address to,\n    uint deadline\n  ) external virtual override ensure(deadline) {\n    MockUniswapV2Router02TransferHelper.safeTransferFrom(\n      path[0],\n      msg.sender,\n      MockUniswapV2Router02UniswapV2Library.pairFor(factory, path[0], path[1]),\n      amountIn\n    );\n    uint balanceBefore = IERC20(path[path.length - 1]).balanceOf(to);\n    _swapSupportingFeeOnTransferTokens(path, to);\n    require(\n      IERC20(path[path.length - 1]).balanceOf(to).sub(balanceBefore) >= amountOutMin,\n      'UniswapV2Router: INSUFFICIENT_OUTPUT_AMOUNT'\n    );\n  }\n\n\n  // **** LIBRARY FUNCTIONS ****\n  function quote(\n    uint amountA,\n    uint reserveA,\n    uint reserveB\n  ) public pure virtual override returns (uint amountB) {\n    return MockUniswapV2Router02UniswapV2Library.quote(amountA, reserveA, reserveB);\n  }\n\n  function getAmountOut(\n    uint amountIn,\n    uint reserveIn,\n    uint reserveOut\n  ) public pure virtual override returns (uint amountOut) {\n    return MockUniswapV2Router02UniswapV2Library.getAmountOut(amountIn, reserveIn, reserveOut);\n  }\n\n  function getAmountIn(\n    uint amountOut,\n    uint reserveIn,\n    uint reserveOut\n  ) public pure virtual override returns (uint amountIn) {\n    return MockUniswapV2Router02UniswapV2Library.getAmountIn(amountOut, reserveIn, reserveOut);\n  }\n\n  function getAmountsOut(uint amountIn, address[] memory path)\n    public\n    view\n    virtual\n    override\n    returns (uint[] memory amounts)\n  {\n    return MockUniswapV2Router02UniswapV2Library.getAmountsOut(factory, amountIn, path);\n  }\n\n  function getAmountsIn(uint amountOut, address[] memory path)\n    public\n    view\n    virtual\n    override\n    returns (uint[] memory amounts)\n  {\n    return MockUniswapV2Router02UniswapV2Library.getAmountsIn(factory, amountOut, path);\n  }\n}\n\n// a library for performing overflow-safe math, courtesy of DappHub (https://github.com/dapphub/ds-math)\n\nlibrary MockUniswapV2Router02SafeMath {\n  function add(uint x, uint y) internal pure returns (uint z) {\n    require((z = x + y) >= x, 'ds-math-add-overflow');\n  }\n\n  function sub(uint x, uint y) internal pure returns (uint z) {\n    require((z = x - y) <= x, 'ds-math-sub-underflow');\n  }\n\n  function mul(uint x, uint y) internal pure returns (uint z) {\n    require(y == 0 || (z = x * y) / y == x, 'ds-math-mul-overflow');\n  }\n}\n\nlibrary MockUniswapV2Router02UniswapV2Library {\n  using MockUniswapV2Router02SafeMath for uint;\n\n  // returns sorted token addresses, used to handle return values from pairs sorted in this order\n  function sortTokens(address tokenA, address tokenB)\n    internal\n    pure\n    returns (address token0, address token1)\n  {\n    require(tokenA != tokenB, 'MockUniswapV2Router02UniswapV2Library: IDENTICAL_ADDRESSES');\n    (token0, token1) = tokenA < tokenB ? (tokenA, tokenB) : (tokenB, tokenA);\n    require(token0 != address(0), 'MockUniswapV2Router02UniswapV2Library: ZERO_ADDRESS');\n  }\n\n  // calculates the CREATE2 address for a pair without making any external calls\n  function pairFor(\n    address factory,\n    address tokenA,\n    address tokenB\n  ) internal view returns (address pair) {\n    return MockUniswapV2Router02IUniswapV2Factory(factory).getPair(tokenA, tokenB);\n  }\n\n  // fetches and sorts the reserves for a pair\n  function getReserves(\n    address factory,\n    address tokenA,\n    address tokenB\n  ) internal view returns (uint reserveA, uint reserveB) {\n    (address token0, ) = sortTokens(tokenA, tokenB);\n    (uint reserve0, uint reserve1, ) =\n      MockUniswapV2Router02IUniswapV2Pair(pairFor(factory, tokenA, tokenB)).getReserves();\n    (reserveA, reserveB) = tokenA == token0 ? (reserve0, reserve1) : (reserve1, reserve0);\n  }\n\n  // given some amount of an asset and pair reserves, returns an equivalent amount of the other asset\n  function quote(\n    uint amountA,\n    uint reserveA,\n    uint reserveB\n  ) internal pure returns (uint amountB) {\n    require(amountA > 0, 'MockUniswapV2Router02UniswapV2Library: INSUFFICIENT_AMOUNT');\n    require(\n      reserveA > 0 && reserveB > 0,\n      'MockUniswapV2Router02UniswapV2Library: INSUFFICIENT_LIQUIDITY'\n    );\n    amountB = amountA.mul(reserveB) / reserveA;\n  }\n\n  // given an input amount of an asset and pair reserves, returns the maximum output amount of the other asset\n  function getAmountOut(\n    uint amountIn,\n    uint reserveIn,\n    uint reserveOut\n  ) internal pure returns (uint amountOut) {\n    require(amountIn > 0, 'MockUniswapV2Router02UniswapV2Library: INSUFFICIENT_INPUT_AMOUNT');\n    require(\n      reserveIn > 0 && reserveOut > 0,\n      'MockUniswapV2Router02UniswapV2Library: INSUFFICIENT_LIQUIDITY'\n    );\n    uint amountInWithFee = amountIn.mul(997);\n    uint numerator = amountInWithFee.mul(reserveOut);\n    uint denominator = reserveIn.mul(1000).add(amountInWithFee);\n    amountOut = numerator / denominator;\n  }\n\n  // given an output amount of an asset and pair reserves, returns a required input amount of the other asset\n  function getAmountIn(\n    uint amountOut,\n    uint reserveIn,\n    uint reserveOut\n  ) internal pure returns (uint amountIn) {\n    require(amountOut > 0, 'MockUniswapV2Router02UniswapV2Library: INSUFFICIENT_OUTPUT_AMOUNT');\n    require(\n      reserveIn > 0 && reserveOut > 0,\n      'MockUniswapV2Router02UniswapV2Library: INSUFFICIENT_LIQUIDITY'\n    );\n    uint numerator = reserveIn.mul(amountOut).mul(1000);\n    uint denominator = reserveOut.sub(amountOut).mul(997);\n    amountIn = (numerator / denominator).add(1);\n  }\n\n  // performs chained getAmountOut calculations on any number of pairs\n  function getAmountsOut(\n    address factory,\n    uint amountIn,\n    address[] memory path\n  ) internal view returns (uint[] memory amounts) {\n    require(path.length >= 2, 'MockUniswapV2Router02UniswapV2Library: INVALID_PATH');\n    amounts = new uint[](path.length);\n    amounts[0] = amountIn;\n    for (uint i; i < path.length - 1; i++) {\n      (uint reserveIn, uint reserveOut) = getReserves(factory, path[i], path[i + 1]);\n      amounts[i + 1] = getAmountOut(amounts[i], reserveIn, reserveOut);\n    }\n  }\n\n  // performs chained getAmountIn calculations on any number of pairs\n  function getAmountsIn(\n    address factory,\n    uint amountOut,\n    address[] memory path\n  ) internal view returns (uint[] memory amounts) {\n    require(path.length >= 2, 'MockUniswapV2Router02UniswapV2Library: INVALID_PATH');\n    amounts = new uint[](path.length);\n    amounts[amounts.length - 1] = amountOut;\n    for (uint i = path.length - 1; i > 0; i--) {\n      (uint reserveIn, uint reserveOut) = getReserves(factory, path[i - 1], path[i]);\n      amounts[i - 1] = getAmountIn(amounts[i], reserveIn, reserveOut);\n    }\n  }\n}\n\n// helper methods for interacting with ERC20 tokens and sending ETH that do not consistently return true/false\nlibrary MockUniswapV2Router02TransferHelper {\n  function safeApprove(\n    address token,\n    address to,\n    uint value\n  ) internal {\n    // bytes4(keccak256(bytes('approve(address,uint256)')));\n    (bool success, bytes memory data) = token.call(abi.encodeWithSelector(0x095ea7b3, to, value));\n    require(\n      success && (data.length == 0 || abi.decode(data, (bool))),\n      'MockUniswapV2Router02TransferHelper: APPROVE_FAILED'\n    );\n  }\n\n  function safeTransfer(\n    address token,\n    address to,\n    uint value\n  ) internal {\n    // bytes4(keccak256(bytes('transfer(address,uint256)')));\n    (bool success, bytes memory data) = token.call(abi.encodeWithSelector(0xa9059cbb, to, value));\n    require(\n      success && (data.length == 0 || abi.decode(data, (bool))),\n      'MockUniswapV2Router02TransferHelper: TRANSFER_FAILED'\n    );\n  }\n\n  function safeTransferFrom(\n    address token,\n    address from,\n    address to,\n    uint value\n  ) internal {\n    // bytes4(keccak256(bytes('transferFrom(address,address,uint256)')));\n    (bool success, bytes memory data) =\n      token.call(abi.encodeWithSelector(0x23b872dd, from, to, value));\n    require(\n      success && (data.length == 0 || abi.decode(data, (bool))),\n      'MockUniswapV2Router02TransferHelper: TRANSFER_FROM_FAILED'\n    );\n  }\n\n}\n",
  "sourcePath": "contracts/mock/MockUniswapV2Router02.sol",
  "type": "contract"
}