{
  "abi": [
    {
      "inputs": [
        {
          "internalType": "contract IERC20",
          "name": "_token",
          "type": "address"
        }
      ],
      "stateMutability": "nonpayable",
      "type": "constructor"
    },
    {
      "inputs": [
        {
          "internalType": "address",
          "name": "user",
          "type": "address"
        }
      ],
      "name": "balanceOf",
      "outputs": [
        {
          "internalType": "uint256",
          "name": "",
          "type": "uint256"
        }
      ],
      "stateMutability": "view",
      "type": "function"
    },
    {
      "inputs": [
        {
          "internalType": "uint256",
          "name": "borrowAmount",
          "type": "uint256"
        }
      ],
      "name": "borrow",
      "outputs": [
        {
          "internalType": "uint256",
          "name": "",
          "type": "uint256"
        }
      ],
      "stateMutability": "nonpayable",
      "type": "function"
    },
    {
      "inputs": [
        {
          "internalType": "address",
          "name": "account",
          "type": "address"
        }
      ],
      "name": "borrowBalanceCurrent",
      "outputs": [
        {
          "internalType": "uint256",
          "name": "",
          "type": "uint256"
        }
      ],
      "stateMutability": "nonpayable",
      "type": "function"
    },
    {
      "inputs": [
        {
          "internalType": "address",
          "name": "account",
          "type": "address"
        }
      ],
      "name": "borrowBalanceStored",
      "outputs": [
        {
          "internalType": "uint256",
          "name": "",
          "type": "uint256"
        }
      ],
      "stateMutability": "view",
      "type": "function"
    },
    {
      "inputs": [
        {
          "internalType": "address",
          "name": "",
          "type": "address"
        }
      ],
      "name": "borrows",
      "outputs": [
        {
          "internalType": "uint256",
          "name": "",
          "type": "uint256"
        }
      ],
      "stateMutability": "view",
      "type": "function"
    },
    {
      "inputs": [],
      "name": "decimals",
      "outputs": [
        {
          "internalType": "uint8",
          "name": "",
          "type": "uint8"
        }
      ],
      "stateMutability": "nonpayable",
      "type": "function"
    },
    {
      "inputs": [],
      "name": "interestPerYear",
      "outputs": [
        {
          "internalType": "uint256",
          "name": "",
          "type": "uint256"
        }
      ],
      "stateMutability": "view",
      "type": "function"
    },
    {
      "inputs": [
        {
          "internalType": "address",
          "name": "",
          "type": "address"
        }
      ],
      "name": "lastBlock",
      "outputs": [
        {
          "internalType": "uint256",
          "name": "",
          "type": "uint256"
        }
      ],
      "stateMutability": "view",
      "type": "function"
    },
    {
      "inputs": [
        {
          "internalType": "uint256",
          "name": "mintAmount",
          "type": "uint256"
        }
      ],
      "name": "mint",
      "outputs": [
        {
          "internalType": "uint256",
          "name": "",
          "type": "uint256"
        }
      ],
      "stateMutability": "nonpayable",
      "type": "function"
    },
    {
      "inputs": [
        {
          "internalType": "uint256",
          "name": "redeemTokens",
          "type": "uint256"
        }
      ],
      "name": "redeem",
      "outputs": [
        {
          "internalType": "uint256",
          "name": "",
          "type": "uint256"
        }
      ],
      "stateMutability": "nonpayable",
      "type": "function"
    },
    {
      "inputs": [
        {
          "internalType": "uint256",
          "name": "repayAmount",
          "type": "uint256"
        }
      ],
      "name": "repayBorrow",
      "outputs": [
        {
          "internalType": "uint256",
          "name": "",
          "type": "uint256"
        }
      ],
      "stateMutability": "nonpayable",
      "type": "function"
    },
    {
      "inputs": [],
      "name": "token",
      "outputs": [
        {
          "internalType": "contract IERC20",
          "name": "",
          "type": "address"
        }
      ],
      "stateMutability": "view",
      "type": "function"
    },
    {
      "inputs": [],
      "name": "underlying",
      "outputs": [
        {
          "internalType": "address",
          "name": "",
          "type": "address"
        }
      ],
      "stateMutability": "nonpayable",
      "type": "function"
    }
  ],
  "bytecode": "608060405267016345785d8a000060015534801561001c57600080fd5b506040516107603803806107608339818101604052602081101561003f57600080fd5b5051600080546001600160a01b039092166001600160a01b03199092169190911790556106ef806100716000396000f3fe608060405234801561001057600080fd5b50600436106100cf5760003560e01c806370a082311161008c578063a0712d6811610066578063a0712d681461020b578063c5ebeaec14610228578063db006a751461020b578063fc0c546a14610245576100cf565b806370a0823114610199578063952ca92c146101bf57806395dd9193146101e5576100cf565b80630e752702146100d457806317bfdfbc14610103578063313ce5671461012957806354a5706f146101475780635c3efd2f1461016d5780636f307dc314610175575b600080fd5b6100f1600480360360208110156100ea57600080fd5b503561024d565b60408051918252519081900360200190f35b6100f16004803603602081101561011957600080fd5b50356001600160a01b0316610313565b610131610400565b6040805160ff9092168252519081900360200190f35b6100f16004803603602081101561015d57600080fd5b50356001600160a01b0316610405565b6100f1610417565b61017d61041d565b604080516001600160a01b039092168252519081900360200190f35b6100f1600480360360208110156101af57600080fd5b50356001600160a01b031661042c565b6100f1600480360360208110156101d557600080fd5b50356001600160a01b0316610432565b6100f1600480360360208110156101fb57600080fd5b50356001600160a01b0316610444565b6100f16004803603602081101561022157600080fd5b503561042c565b6100f16004803603602081101561023e57600080fd5b503561045f565b61017d610506565b600061025833610313565b5060008054604080516323b872dd60e01b81523360048201523060248201526044810186905290516001600160a01b03909216926323b872dd926064808401936020939083900390910190829087803b1580156102b457600080fd5b505af11580156102c8573d6000803e3d6000fd5b505050506040513d60208110156102de57600080fd5b5050336000908152600260205260409020546102fa9083610515565b3360009081526002602052604081209190915592915050565b6001600160a01b038116600090815260036020526040812054420380156103e35760006103946301e133806103888461038e670de0b6b3a7640000610388600154600260008d6001600160a01b03166001600160a01b031681526020019081526020016000205461057790919063ffffffff16565b906105d7565b90610577565b6001600160a01b0385166000908152600260205260409020549091506103ba908261063e565b6001600160a01b0385166000908152600260209081526040808320939093556003905220429055505b50506001600160a01b031660009081526002602052604090205490565b600890565b60026020526000908152604090205481565b60015481565b6000546001600160a01b031690565b50600090565b60036020526000908152604090205481565b6001600160a01b031660009081526002602052604090205490565b600061046a33610313565b50600080546040805163a9059cbb60e01b81523360048201526024810186905290516001600160a01b039092169263a9059cbb926044808401936020939083900390910190829087803b1580156104c057600080fd5b505af11580156104d4573d6000803e3d6000fd5b505050506040513d60208110156104ea57600080fd5b5050336000908152600260205260409020546102fa908361063e565b6000546001600160a01b031681565b60008282111561056c576040805162461bcd60e51b815260206004820152601e60248201527f536166654d6174683a207375627472616374696f6e206f766572666c6f770000604482015290519081900360640190fd5b508082035b92915050565b60008261058657506000610571565b8282028284828161059357fe5b04146105d05760405162461bcd60e51b81526004018080602001828103825260218152602001806106996021913960400191505060405180910390fd5b9392505050565b600080821161062d576040805162461bcd60e51b815260206004820152601a60248201527f536166654d6174683a206469766973696f6e206279207a65726f000000000000604482015290519081900360640190fd5b81838161063657fe5b049392505050565b6000828201838110156105d0576040805162461bcd60e51b815260206004820152601b60248201527f536166654d6174683a206164646974696f6e206f766572666c6f770000000000604482015290519081900360640190fdfe536166654d6174683a206d756c7469706c69636174696f6e206f766572666c6f77a2646970667358221220d6be640d34d767d62eed9dcf27188a9da528845f566c98bafa9b80a825185c8c64736f6c634300060c0033",
  "bytecodeSha1": "fee40a2c6559fcd74811ca8f47c9fd6c3ed69c62",
  "compiler": {
    "evm_version": "istanbul",
    "optimizer": {
      "enabled": true,
      "runs": 200
    },
    "version": "0.6.12+commit.27d51765"
  },
  "contractName": "MockCErc20",
  "language": "Solidity",
  "natspec": {
    "kind": "dev",
    "methods": {},
    "version": 1
  },
  "opcodes": "PUSH1 0x80 PUSH1 0x40 MSTORE CALLVALUE DUP1 ISZERO PUSH2 0x10 JUMPI PUSH1 0x0 DUP1 REVERT JUMPDEST POP PUSH1 0x4 CALLDATASIZE LT PUSH2 0xCF JUMPI PUSH1 0x0 CALLDATALOAD PUSH1 0xE0 SHR DUP1 PUSH4 0x70A08231 GT PUSH2 0x8C JUMPI DUP1 PUSH4 0xA0712D68 GT PUSH2 0x66 JUMPI DUP1 PUSH4 0xA0712D68 EQ PUSH2 0x20B JUMPI DUP1 PUSH4 0xC5EBEAEC EQ PUSH2 0x228 JUMPI DUP1 PUSH4 0xDB006A75 EQ PUSH2 0x20B JUMPI DUP1 PUSH4 0xFC0C546A EQ PUSH2 0x245 JUMPI PUSH2 0xCF JUMP JUMPDEST DUP1 PUSH4 0x70A08231 EQ PUSH2 0x199 JUMPI DUP1 PUSH4 0x952CA92C EQ PUSH2 0x1BF JUMPI DUP1 PUSH4 0x95DD9193 EQ PUSH2 0x1E5 JUMPI PUSH2 0xCF JUMP JUMPDEST DUP1 PUSH4 0xE752702 EQ PUSH2 0xD4 JUMPI DUP1 PUSH4 0x17BFDFBC EQ PUSH2 0x103 JUMPI DUP1 PUSH4 0x313CE567 EQ PUSH2 0x129 JUMPI DUP1 PUSH4 0x54A5706F EQ PUSH2 0x147 JUMPI DUP1 PUSH4 0x5C3EFD2F EQ PUSH2 0x16D JUMPI DUP1 PUSH4 0x6F307DC3 EQ PUSH2 0x175 JUMPI JUMPDEST PUSH1 0x0 DUP1 REVERT JUMPDEST PUSH2 0xF1 PUSH1 0x4 DUP1 CALLDATASIZE SUB PUSH1 0x20 DUP2 LT ISZERO PUSH2 0xEA JUMPI PUSH1 0x0 DUP1 REVERT JUMPDEST POP CALLDATALOAD PUSH2 0x24D JUMP JUMPDEST PUSH1 0x40 DUP1 MLOAD SWAP2 DUP3 MSTORE MLOAD SWAP1 DUP2 SWAP1 SUB PUSH1 0x20 ADD SWAP1 RETURN JUMPDEST PUSH2 0xF1 PUSH1 0x4 DUP1 CALLDATASIZE SUB PUSH1 0x20 DUP2 LT ISZERO PUSH2 0x119 JUMPI PUSH1 0x0 DUP1 REVERT JUMPDEST POP CALLDATALOAD PUSH1 0x1 PUSH1 0x1 PUSH1 0xA0 SHL SUB AND PUSH2 0x313 JUMP JUMPDEST PUSH2 0x131 PUSH2 0x400 JUMP JUMPDEST PUSH1 0x40 DUP1 MLOAD PUSH1 0xFF SWAP1 SWAP3 AND DUP3 MSTORE MLOAD SWAP1 DUP2 SWAP1 SUB PUSH1 0x20 ADD SWAP1 RETURN JUMPDEST PUSH2 0xF1 PUSH1 0x4 DUP1 CALLDATASIZE SUB PUSH1 0x20 DUP2 LT ISZERO PUSH2 0x15D JUMPI PUSH1 0x0 DUP1 REVERT JUMPDEST POP CALLDATALOAD PUSH1 0x1 PUSH1 0x1 PUSH1 0xA0 SHL SUB AND PUSH2 0x405 JUMP JUMPDEST PUSH2 0xF1 PUSH2 0x417 JUMP JUMPDEST PUSH2 0x17D PUSH2 0x41D JUMP JUMPDEST PUSH1 0x40 DUP1 MLOAD PUSH1 0x1 PUSH1 0x1 PUSH1 0xA0 SHL SUB SWAP1 SWAP3 AND DUP3 MSTORE MLOAD SWAP1 DUP2 SWAP1 SUB PUSH1 0x20 ADD SWAP1 RETURN JUMPDEST PUSH2 0xF1 PUSH1 0x4 DUP1 CALLDATASIZE SUB PUSH1 0x20 DUP2 LT ISZERO PUSH2 0x1AF JUMPI PUSH1 0x0 DUP1 REVERT JUMPDEST POP CALLDATALOAD PUSH1 0x1 PUSH1 0x1 PUSH1 0xA0 SHL SUB AND PUSH2 0x42C JUMP JUMPDEST PUSH2 0xF1 PUSH1 0x4 DUP1 CALLDATASIZE SUB PUSH1 0x20 DUP2 LT ISZERO PUSH2 0x1D5 JUMPI PUSH1 0x0 DUP1 REVERT JUMPDEST POP CALLDATALOAD PUSH1 0x1 PUSH1 0x1 PUSH1 0xA0 SHL SUB AND PUSH2 0x432 JUMP JUMPDEST PUSH2 0xF1 PUSH1 0x4 DUP1 CALLDATASIZE SUB PUSH1 0x20 DUP2 LT ISZERO PUSH2 0x1FB JUMPI PUSH1 0x0 DUP1 REVERT JUMPDEST POP CALLDATALOAD PUSH1 0x1 PUSH1 0x1 PUSH1 0xA0 SHL SUB AND PUSH2 0x444 JUMP JUMPDEST PUSH2 0xF1 PUSH1 0x4 DUP1 CALLDATASIZE SUB PUSH1 0x20 DUP2 LT ISZERO PUSH2 0x221 JUMPI PUSH1 0x0 DUP1 REVERT JUMPDEST POP CALLDATALOAD PUSH2 0x42C JUMP JUMPDEST PUSH2 0xF1 PUSH1 0x4 DUP1 CALLDATASIZE SUB PUSH1 0x20 DUP2 LT ISZERO PUSH2 0x23E JUMPI PUSH1 0x0 DUP1 REVERT JUMPDEST POP CALLDATALOAD PUSH2 0x45F JUMP JUMPDEST PUSH2 0x17D PUSH2 0x506 JUMP JUMPDEST PUSH1 0x0 PUSH2 0x258 CALLER PUSH2 0x313 JUMP JUMPDEST POP PUSH1 0x0 DUP1 SLOAD PUSH1 0x40 DUP1 MLOAD PUSH4 0x23B872DD PUSH1 0xE0 SHL DUP2 MSTORE CALLER PUSH1 0x4 DUP3 ADD MSTORE ADDRESS PUSH1 0x24 DUP3 ADD MSTORE PUSH1 0x44 DUP2 ADD DUP7 SWAP1 MSTORE SWAP1 MLOAD PUSH1 0x1 PUSH1 0x1 PUSH1 0xA0 SHL SUB SWAP1 SWAP3 AND SWAP3 PUSH4 0x23B872DD SWAP3 PUSH1 0x64 DUP1 DUP5 ADD SWAP4 PUSH1 0x20 SWAP4 SWAP1 DUP4 SWAP1 SUB SWAP1 SWAP2 ADD SWAP1 DUP3 SWAP1 DUP8 DUP1 EXTCODESIZE ISZERO DUP1 ISZERO PUSH2 0x2B4 JUMPI PUSH1 0x0 DUP1 REVERT JUMPDEST POP GAS CALL ISZERO DUP1 ISZERO PUSH2 0x2C8 JUMPI RETURNDATASIZE PUSH1 0x0 DUP1 RETURNDATACOPY RETURNDATASIZE PUSH1 0x0 REVERT JUMPDEST POP POP POP POP PUSH1 0x40 MLOAD RETURNDATASIZE PUSH1 0x20 DUP2 LT ISZERO PUSH2 0x2DE JUMPI PUSH1 0x0 DUP1 REVERT JUMPDEST POP POP CALLER PUSH1 0x0 SWAP1 DUP2 MSTORE PUSH1 0x2 PUSH1 0x20 MSTORE PUSH1 0x40 SWAP1 KECCAK256 SLOAD PUSH2 0x2FA SWAP1 DUP4 PUSH2 0x515 JUMP JUMPDEST CALLER PUSH1 0x0 SWAP1 DUP2 MSTORE PUSH1 0x2 PUSH1 0x20 MSTORE PUSH1 0x40 DUP2 KECCAK256 SWAP2 SWAP1 SWAP2 SSTORE SWAP3 SWAP2 POP POP JUMP JUMPDEST PUSH1 0x1 PUSH1 0x1 PUSH1 0xA0 SHL SUB DUP2 AND PUSH1 0x0 SWAP1 DUP2 MSTORE PUSH1 0x3 PUSH1 0x20 MSTORE PUSH1 0x40 DUP2 KECCAK256 SLOAD TIMESTAMP SUB DUP1 ISZERO PUSH2 0x3E3 JUMPI PUSH1 0x0 PUSH2 0x394 PUSH4 0x1E13380 PUSH2 0x388 DUP5 PUSH2 0x38E PUSH8 0xDE0B6B3A7640000 PUSH2 0x388 PUSH1 0x1 SLOAD PUSH1 0x2 PUSH1 0x0 DUP14 PUSH1 0x1 PUSH1 0x1 PUSH1 0xA0 SHL SUB AND PUSH1 0x1 PUSH1 0x1 PUSH1 0xA0 SHL SUB AND DUP2 MSTORE PUSH1 0x20 ADD SWAP1 DUP2 MSTORE PUSH1 0x20 ADD PUSH1 0x0 KECCAK256 SLOAD PUSH2 0x577 SWAP1 SWAP2 SWAP1 PUSH4 0xFFFFFFFF AND JUMP JUMPDEST SWAP1 PUSH2 0x5D7 JUMP JUMPDEST SWAP1 PUSH2 0x577 JUMP JUMPDEST PUSH1 0x1 PUSH1 0x1 PUSH1 0xA0 SHL SUB DUP6 AND PUSH1 0x0 SWAP1 DUP2 MSTORE PUSH1 0x2 PUSH1 0x20 MSTORE PUSH1 0x40 SWAP1 KECCAK256 SLOAD SWAP1 SWAP2 POP PUSH2 0x3BA SWAP1 DUP3 PUSH2 0x63E JUMP JUMPDEST PUSH1 0x1 PUSH1 0x1 PUSH1 0xA0 SHL SUB DUP6 AND PUSH1 0x0 SWAP1 DUP2 MSTORE PUSH1 0x2 PUSH1 0x20 SWAP1 DUP2 MSTORE PUSH1 0x40 DUP1 DUP4 KECCAK256 SWAP4 SWAP1 SWAP4 SSTORE PUSH1 0x3 SWAP1 MSTORE KECCAK256 TIMESTAMP SWAP1 SSTORE POP JUMPDEST POP POP PUSH1 0x1 PUSH1 0x1 PUSH1 0xA0 SHL SUB AND PUSH1 0x0 SWAP1 DUP2 MSTORE PUSH1 0x2 PUSH1 0x20 MSTORE PUSH1 0x40 SWAP1 KECCAK256 SLOAD SWAP1 JUMP JUMPDEST PUSH1 0x8 SWAP1 JUMP JUMPDEST PUSH1 0x2 PUSH1 0x20 MSTORE PUSH1 0x0 SWAP1 DUP2 MSTORE PUSH1 0x40 SWAP1 KECCAK256 SLOAD DUP2 JUMP JUMPDEST PUSH1 0x1 SLOAD DUP2 JUMP JUMPDEST PUSH1 0x0 SLOAD PUSH1 0x1 PUSH1 0x1 PUSH1 0xA0 SHL SUB AND SWAP1 JUMP JUMPDEST POP PUSH1 0x0 SWAP1 JUMP JUMPDEST PUSH1 0x3 PUSH1 0x20 MSTORE PUSH1 0x0 SWAP1 DUP2 MSTORE PUSH1 0x40 SWAP1 KECCAK256 SLOAD DUP2 JUMP JUMPDEST PUSH1 0x1 PUSH1 0x1 PUSH1 0xA0 SHL SUB AND PUSH1 0x0 SWAP1 DUP2 MSTORE PUSH1 0x2 PUSH1 0x20 MSTORE PUSH1 0x40 SWAP1 KECCAK256 SLOAD SWAP1 JUMP JUMPDEST PUSH1 0x0 PUSH2 0x46A CALLER PUSH2 0x313 JUMP JUMPDEST POP PUSH1 0x0 DUP1 SLOAD PUSH1 0x40 DUP1 MLOAD PUSH4 0xA9059CBB PUSH1 0xE0 SHL DUP2 MSTORE CALLER PUSH1 0x4 DUP3 ADD MSTORE PUSH1 0x24 DUP2 ADD DUP7 SWAP1 MSTORE SWAP1 MLOAD PUSH1 0x1 PUSH1 0x1 PUSH1 0xA0 SHL SUB SWAP1 SWAP3 AND SWAP3 PUSH4 0xA9059CBB SWAP3 PUSH1 0x44 DUP1 DUP5 ADD SWAP4 PUSH1 0x20 SWAP4 SWAP1 DUP4 SWAP1 SUB SWAP1 SWAP2 ADD SWAP1 DUP3 SWAP1 DUP8 DUP1 EXTCODESIZE ISZERO DUP1 ISZERO PUSH2 0x4C0 JUMPI PUSH1 0x0 DUP1 REVERT JUMPDEST POP GAS CALL ISZERO DUP1 ISZERO PUSH2 0x4D4 JUMPI RETURNDATASIZE PUSH1 0x0 DUP1 RETURNDATACOPY RETURNDATASIZE PUSH1 0x0 REVERT JUMPDEST POP POP POP POP PUSH1 0x40 MLOAD RETURNDATASIZE PUSH1 0x20 DUP2 LT ISZERO PUSH2 0x4EA JUMPI PUSH1 0x0 DUP1 REVERT JUMPDEST POP POP CALLER PUSH1 0x0 SWAP1 DUP2 MSTORE PUSH1 0x2 PUSH1 0x20 MSTORE PUSH1 0x40 SWAP1 KECCAK256 SLOAD PUSH2 0x2FA SWAP1 DUP4 PUSH2 0x63E JUMP JUMPDEST PUSH1 0x0 SLOAD PUSH1 0x1 PUSH1 0x1 PUSH1 0xA0 SHL SUB AND DUP2 JUMP JUMPDEST PUSH1 0x0 DUP3 DUP3 GT ISZERO PUSH2 0x56C JUMPI PUSH1 0x40 DUP1 MLOAD PUSH3 0x461BCD PUSH1 0xE5 SHL DUP2 MSTORE PUSH1 0x20 PUSH1 0x4 DUP3 ADD MSTORE PUSH1 0x1E PUSH1 0x24 DUP3 ADD MSTORE PUSH32 0x536166654D6174683A207375627472616374696F6E206F766572666C6F770000 PUSH1 0x44 DUP3 ADD MSTORE SWAP1 MLOAD SWAP1 DUP2 SWAP1 SUB PUSH1 0x64 ADD SWAP1 REVERT JUMPDEST POP DUP1 DUP3 SUB JUMPDEST SWAP3 SWAP2 POP POP JUMP JUMPDEST PUSH1 0x0 DUP3 PUSH2 0x586 JUMPI POP PUSH1 0x0 PUSH2 0x571 JUMP JUMPDEST DUP3 DUP3 MUL DUP3 DUP5 DUP3 DUP2 PUSH2 0x593 JUMPI INVALID JUMPDEST DIV EQ PUSH2 0x5D0 JUMPI PUSH1 0x40 MLOAD PUSH3 0x461BCD PUSH1 0xE5 SHL DUP2 MSTORE PUSH1 0x4 ADD DUP1 DUP1 PUSH1 0x20 ADD DUP3 DUP2 SUB DUP3 MSTORE PUSH1 0x21 DUP2 MSTORE PUSH1 0x20 ADD DUP1 PUSH2 0x699 PUSH1 0x21 SWAP2 CODECOPY PUSH1 0x40 ADD SWAP2 POP POP PUSH1 0x40 MLOAD DUP1 SWAP2 SUB SWAP1 REVERT JUMPDEST SWAP4 SWAP3 POP POP POP JUMP JUMPDEST PUSH1 0x0 DUP1 DUP3 GT PUSH2 0x62D JUMPI PUSH1 0x40 DUP1 MLOAD PUSH3 0x461BCD PUSH1 0xE5 SHL DUP2 MSTORE PUSH1 0x20 PUSH1 0x4 DUP3 ADD MSTORE PUSH1 0x1A PUSH1 0x24 DUP3 ADD MSTORE PUSH32 0x536166654D6174683A206469766973696F6E206279207A65726F000000000000 PUSH1 0x44 DUP3 ADD MSTORE SWAP1 MLOAD SWAP1 DUP2 SWAP1 SUB PUSH1 0x64 ADD SWAP1 REVERT JUMPDEST DUP2 DUP4 DUP2 PUSH2 0x636 JUMPI INVALID JUMPDEST DIV SWAP4 SWAP3 POP POP POP JUMP JUMPDEST PUSH1 0x0 DUP3 DUP3 ADD DUP4 DUP2 LT ISZERO PUSH2 0x5D0 JUMPI PUSH1 0x40 DUP1 MLOAD PUSH3 0x461BCD PUSH1 0xE5 SHL DUP2 MSTORE PUSH1 0x20 PUSH1 0x4 DUP3 ADD MSTORE PUSH1 0x1B PUSH1 0x24 DUP3 ADD MSTORE PUSH32 0x536166654D6174683A206164646974696F6E206F766572666C6F770000000000 PUSH1 0x44 DUP3 ADD MSTORE SWAP1 MLOAD SWAP1 DUP2 SWAP1 SUB PUSH1 0x64 ADD SWAP1 REVERT INVALID MSTORE8 PUSH2 0x6665 0x4D PUSH2 0x7468 GASPRICE KECCAK256 PUSH14 0x756C7469706C69636174696F6E20 PUSH16 0x766572666C6F77A26469706673582212 KECCAK256 0xD6 0xBE PUSH5 0xD34D767D6 0x2E 0xED SWAP14 0xCF 0x27 XOR DUP11 SWAP14 0xA5 0x28 DUP5 0x5F JUMP PUSH13 0x98BAFA9B80A825185C8C64736F PUSH13 0x634300060C0033000000000000 ",
  "sha1": "9483177ba72bf87b219ada7279bcaceedd6ba915",
  "source": "pragma solidity 0.6.12;\n\nimport 'OpenZeppelin/openzeppelin-contracts@3.4.0/contracts/token/ERC20/IERC20.sol';\nimport 'OpenZeppelin/openzeppelin-contracts@3.4.0/contracts/math/SafeMath.sol';\n\nimport '../../interfaces/ICErc20.sol';\n\ncontract MockCErc20 is ICErc20 {\n  using SafeMath for uint;\n\n  IERC20 public token;\n  uint public interestPerYear = 10e16; // 10% per year\n\n  mapping(address => uint) public borrows;\n  mapping(address => uint) public lastBlock;\n\n  constructor(IERC20 _token) public {\n    token = _token;\n  }\n\n  function decimals() external override returns (uint8) {\n    return 8;\n  }\n\n  function underlying() external override returns (address) {\n    return address(token);\n  }\n\n  function mint(uint mintAmount) external override returns (uint) {\n    // Not implemented\n    return 0;\n  }\n\n  function redeem(uint redeemTokens) external override returns (uint) {\n    // Not implemented\n    return 0;\n  }\n\n  function balanceOf(address user) external view override returns (uint) {\n    // Not implemented\n    return 0;\n  }\n\n  function borrowBalanceCurrent(address account) public override returns (uint) {\n    uint timePast = now - lastBlock[account];\n    if (timePast > 0) {\n      uint interest = borrows[account].mul(interestPerYear).div(100e16).mul(timePast).div(365 days);\n      borrows[account] = borrows[account].add(interest);\n      lastBlock[account] = now;\n    }\n    return borrows[account];\n  }\n\n  function borrowBalanceStored(address account) external view override returns (uint) {\n    return borrows[account];\n  }\n\n  function borrow(uint borrowAmount) external override returns (uint) {\n    borrowBalanceCurrent(msg.sender);\n    token.transfer(msg.sender, borrowAmount);\n    borrows[msg.sender] = borrows[msg.sender].add(borrowAmount);\n    return 0;\n  }\n\n  function repayBorrow(uint repayAmount) external override returns (uint) {\n    borrowBalanceCurrent(msg.sender);\n    token.transferFrom(msg.sender, address(this), repayAmount);\n    borrows[msg.sender] = borrows[msg.sender].sub(repayAmount);\n    return 0;\n  }\n}\n",
  "sourcePath": "contracts/mock/MockCErc20.sol",
  "type": "contract"
}