{
  "abi": [
    {
      "inputs": [
        {
          "internalType": "contract IBaseOracle",
          "name": "_base",
          "type": "address"
        }
      ],
      "stateMutability": "nonpayable",
      "type": "constructor"
    },
    {
      "inputs": [],
      "name": "base",
      "outputs": [
        {
          "internalType": "contract IBaseOracle",
          "name": "",
          "type": "address"
        }
      ],
      "stateMutability": "view",
      "type": "function"
    }
  ],
  "bytecode": "60a060405234801561001057600080fd5b5060405161010d38038061010d8339818101604052602081101561003357600080fd5b5051606081901b6001600160601b0319166080526001600160a01b031660a9610064600039806051525060a96000f3fe6080604052348015600f57600080fd5b506004361060285760003560e01c80635001f3b514602d575b600080fd5b6033604f565b604080516001600160a01b039092168252519081900360200190f35b7f00000000000000000000000000000000000000000000000000000000000000008156fea264697066735822122033c365714b2e91f76f635255c275596ade7f37e1ae6fa6d320acb03576d0c2bf64736f6c634300060c0033",
  "bytecodeSha1": "3e359da0112c313ad6548c3812430f1c814c6365",
  "compiler": {
    "evm_version": "istanbul",
    "optimizer": {
      "enabled": true,
      "runs": 200
    },
    "version": "0.6.12+commit.27d51765"
  },
  "contractName": "UsingBaseOracle",
  "language": "Solidity",
  "natspec": {
    "kind": "dev",
    "methods": {},
    "version": 1
  },
  "opcodes": "PUSH1 0x80 PUSH1 0x40 MSTORE CALLVALUE DUP1 ISZERO PUSH1 0xF JUMPI PUSH1 0x0 DUP1 REVERT JUMPDEST POP PUSH1 0x4 CALLDATASIZE LT PUSH1 0x28 JUMPI PUSH1 0x0 CALLDATALOAD PUSH1 0xE0 SHR DUP1 PUSH4 0x5001F3B5 EQ PUSH1 0x2D JUMPI JUMPDEST PUSH1 0x0 DUP1 REVERT JUMPDEST PUSH1 0x33 PUSH1 0x4F JUMP JUMPDEST PUSH1 0x40 DUP1 MLOAD PUSH1 0x1 PUSH1 0x1 PUSH1 0xA0 SHL SUB SWAP1 SWAP3 AND DUP3 MSTORE MLOAD SWAP1 DUP2 SWAP1 SUB PUSH1 0x20 ADD SWAP1 RETURN JUMPDEST PUSH32 0x0 DUP2 JUMP INVALID LOG2 PUSH5 0x6970667358 0x22 SLT KECCAK256 CALLER 0xC3 PUSH6 0x714B2E91F76F PUSH4 0x5255C275 MSIZE PUSH11 0xDE7F37E1AE6FA6D320ACB0 CALLDATALOAD PUSH23 0xD0C2BF64736F6C634300060C0033000000000000000000 ",
  "sha1": "5259cb5f4941d81453d2205ef9869425a92876f1",
  "source": "// SPDX-License-Identifier: MIT\n\npragma solidity 0.6.12;\n\nimport '../../interfaces/IBaseOracle.sol';\n\ncontract UsingBaseOracle {\n  IBaseOracle public immutable base; // Base oracle source\n\n  constructor(IBaseOracle _base) public {\n    base = _base;\n  }\n}\n",
  "sourcePath": "contracts/oracle/UsingBaseOracle.sol",
  "type": "contract"
}