{
  "abi": [
    {
      "anonymous": false,
      "inputs": [
        {
          "indexed": true,
          "internalType": "address",
          "name": "account",
          "type": "address"
        },
        {
          "indexed": true,
          "internalType": "address",
          "name": "operator",
          "type": "address"
        },
        {
          "indexed": false,
          "internalType": "bool",
          "name": "approved",
          "type": "bool"
        }
      ],
      "name": "ApprovalForAll",
      "type": "event"
    },
    {
      "anonymous": false,
      "inputs": [
        {
          "indexed": true,
          "internalType": "address",
          "name": "operator",
          "type": "address"
        },
        {
          "indexed": true,
          "internalType": "address",
          "name": "from",
          "type": "address"
        },
        {
          "indexed": true,
          "internalType": "address",
          "name": "to",
          "type": "address"
        },
        {
          "indexed": false,
          "internalType": "uint256[]",
          "name": "ids",
          "type": "uint256[]"
        },
        {
          "indexed": false,
          "internalType": "uint256[]",
          "name": "values",
          "type": "uint256[]"
        }
      ],
      "name": "TransferBatch",
      "type": "event"
    },
    {
      "anonymous": false,
      "inputs": [
        {
          "indexed": true,
          "internalType": "address",
          "name": "operator",
          "type": "address"
        },
        {
          "indexed": true,
          "internalType": "address",
          "name": "from",
          "type": "address"
        },
        {
          "indexed": true,
          "internalType": "address",
          "name": "to",
          "type": "address"
        },
        {
          "indexed": false,
          "internalType": "uint256",
          "name": "id",
          "type": "uint256"
        },
        {
          "indexed": false,
          "internalType": "uint256",
          "name": "value",
          "type": "uint256"
        }
      ],
      "name": "TransferSingle",
      "type": "event"
    },
    {
      "anonymous": false,
      "inputs": [
        {
          "indexed": false,
          "internalType": "string",
          "name": "value",
          "type": "string"
        },
        {
          "indexed": true,
          "internalType": "uint256",
          "name": "id",
          "type": "uint256"
        }
      ],
      "name": "URI",
      "type": "event"
    },
    {
      "inputs": [
        {
          "internalType": "address",
          "name": "account",
          "type": "address"
        },
        {
          "internalType": "uint256",
          "name": "id",
          "type": "uint256"
        }
      ],
      "name": "balanceOf",
      "outputs": [
        {
          "internalType": "uint256",
          "name": "",
          "type": "uint256"
        }
      ],
      "stateMutability": "view",
      "type": "function"
    },
    {
      "inputs": [
        {
          "internalType": "address[]",
          "name": "accounts",
          "type": "address[]"
        },
        {
          "internalType": "uint256[]",
          "name": "ids",
          "type": "uint256[]"
        }
      ],
      "name": "balanceOfBatch",
      "outputs": [
        {
          "internalType": "uint256[]",
          "name": "",
          "type": "uint256[]"
        }
      ],
      "stateMutability": "view",
      "type": "function"
    },
    {
      "inputs": [
        {
          "internalType": "address",
          "name": "token",
          "type": "address"
        },
        {
          "internalType": "address",
          "name": "user",
          "type": "address"
        }
      ],
      "name": "balanceOfERC20",
      "outputs": [
        {
          "internalType": "uint256",
          "name": "",
          "type": "uint256"
        }
      ],
      "stateMutability": "view",
      "type": "function"
    },
    {
      "inputs": [
        {
          "internalType": "address",
          "name": "token",
          "type": "address"
        },
        {
          "internalType": "uint256",
          "name": "amount",
          "type": "uint256"
        }
      ],
      "name": "burn",
      "outputs": [],
      "stateMutability": "nonpayable",
      "type": "function"
    },
    {
      "inputs": [
        {
          "internalType": "uint256",
          "name": "",
          "type": "uint256"
        }
      ],
      "name": "getUnderlyingRate",
      "outputs": [
        {
          "internalType": "uint256",
          "name": "",
          "type": "uint256"
        }
      ],
      "stateMutability": "view",
      "type": "function"
    },
    {
      "inputs": [
        {
          "internalType": "uint256",
          "name": "id",
          "type": "uint256"
        }
      ],
      "name": "getUnderlyingToken",
      "outputs": [
        {
          "internalType": "address",
          "name": "",
          "type": "address"
        }
      ],
      "stateMutability": "view",
      "type": "function"
    },
    {
      "inputs": [
        {
          "internalType": "address",
          "name": "account",
          "type": "address"
        },
        {
          "internalType": "address",
          "name": "operator",
          "type": "address"
        }
      ],
      "name": "isApprovedForAll",
      "outputs": [
        {
          "internalType": "bool",
          "name": "",
          "type": "bool"
        }
      ],
      "stateMutability": "view",
      "type": "function"
    },
    {
      "inputs": [
        {
          "internalType": "address",
          "name": "token",
          "type": "address"
        },
        {
          "internalType": "uint256",
          "name": "amount",
          "type": "uint256"
        }
      ],
      "name": "mint",
      "outputs": [],
      "stateMutability": "nonpayable",
      "type": "function"
    },
    {
      "inputs": [
        {
          "internalType": "address",
          "name": "from",
          "type": "address"
        },
        {
          "internalType": "address",
          "name": "to",
          "type": "address"
        },
        {
          "internalType": "uint256[]",
          "name": "ids",
          "type": "uint256[]"
        },
        {
          "internalType": "uint256[]",
          "name": "amounts",
          "type": "uint256[]"
        },
        {
          "internalType": "bytes",
          "name": "data",
          "type": "bytes"
        }
      ],
      "name": "safeBatchTransferFrom",
      "outputs": [],
      "stateMutability": "nonpayable",
      "type": "function"
    },
    {
      "inputs": [
        {
          "internalType": "address",
          "name": "from",
          "type": "address"
        },
        {
          "internalType": "address",
          "name": "to",
          "type": "address"
        },
        {
          "internalType": "uint256",
          "name": "id",
          "type": "uint256"
        },
        {
          "internalType": "uint256",
          "name": "amount",
          "type": "uint256"
        },
        {
          "internalType": "bytes",
          "name": "data",
          "type": "bytes"
        }
      ],
      "name": "safeTransferFrom",
      "outputs": [],
      "stateMutability": "nonpayable",
      "type": "function"
    },
    {
      "inputs": [
        {
          "internalType": "address",
          "name": "operator",
          "type": "address"
        },
        {
          "internalType": "bool",
          "name": "approved",
          "type": "bool"
        }
      ],
      "name": "setApprovalForAll",
      "outputs": [],
      "stateMutability": "nonpayable",
      "type": "function"
    },
    {
      "inputs": [
        {
          "internalType": "bytes4",
          "name": "interfaceId",
          "type": "bytes4"
        }
      ],
      "name": "supportsInterface",
      "outputs": [
        {
          "internalType": "bool",
          "name": "",
          "type": "bool"
        }
      ],
      "stateMutability": "view",
      "type": "function"
    },
    {
      "inputs": [
        {
          "internalType": "uint256",
          "name": "",
          "type": "uint256"
        }
      ],
      "name": "uri",
      "outputs": [
        {
          "internalType": "string",
          "name": "",
          "type": "string"
        }
      ],
      "stateMutability": "view",
      "type": "function"
    }
  ],
  "bytecode": "60806040523480156200001157600080fd5b5060408051808201909152600681526505745524332360d41b6020820152620000416301ffc9a760e01b6200007c565b6200004c8162000101565b6200005e636cdb3d1360e11b6200007c565b620000706303a24d0760e21b6200007c565b506001600455620001b6565b6001600160e01b03198082161415620000dc576040805162461bcd60e51b815260206004820152601c60248201527f4552433136353a20696e76616c696420696e7465726661636520696400000000604482015290519081900360640190fd5b6001600160e01b0319166000908152602081905260409020805460ff19166001179055565b8051620001169060039060208401906200011a565b5050565b828054600181600116156101000203166002900490600052602060002090601f016020900481019282601f106200015d57805160ff19168380011785556200018d565b828001600101855582156200018d579182015b828111156200018d57825182559160200191906001019062000170565b506200019b9291506200019f565b5090565b5b808211156200019b5760008155600101620001a0565b61200880620001c66000396000f3fe608060405234801561001057600080fd5b50600436106100ce5760003560e01c80637e50205e1161008c578063a477577211610066578063a4775772146105c8578063af8002df14610601578063e985e9c51461061e578063f242432a1461064c576100ce565b80637e50205e146105405780639dc29fac1461056e578063a22cb4651461059a576100ce565b8062fdd58e146100d357806301ffc9a7146101115780630e89341c1461014c5780632eb2c2d6146101de57806340c10f19146103a15780634e1273f4146103cd575b600080fd5b6100ff600480360360408110156100e957600080fd5b506001600160a01b038135169060200135610715565b60408051918252519081900360200190f35b6101386004803603602081101561012757600080fd5b50356001600160e01b031916610784565b604080519115158252519081900360200190f35b6101696004803603602081101561016257600080fd5b50356107a3565b6040805160208082528351818301528351919283929083019185019080838360005b838110156101a357818101518382015260200161018b565b50505050905090810190601f1680156101d05780820380516001836020036101000a031916815260200191505b509250505060405180910390f35b61039f600480360360a08110156101f457600080fd5b6001600160a01b038235811692602081013590911691810190606081016040820135600160201b81111561022757600080fd5b82018360208201111561023957600080fd5b803590602001918460208302840111600160201b8311171561025a57600080fd5b9190808060200260200160405190810160405280939291908181526020018383602002808284376000920191909152509295949360208101935035915050600160201b8111156102a957600080fd5b8201836020820111156102bb57600080fd5b803590602001918460208302840111600160201b831117156102dc57600080fd5b9190808060200260200160405190810160405280939291908181526020018383602002808284376000920191909152509295949360208101935035915050600160201b81111561032b57600080fd5b82018360208201111561033d57600080fd5b803590602001918460018302840111600160201b8311171561035e57600080fd5b91908080601f01602080910402602001604051908101604052809392919081815260200183838082843760009201919091525092955061083b945050505050565b005b61039f600480360360408110156103b757600080fd5b506001600160a01b038135169060200135610b39565b6104f0600480360360408110156103e357600080fd5b810190602081018135600160201b8111156103fd57600080fd5b82018360208201111561040f57600080fd5b803590602001918460208302840111600160201b8311171561043057600080fd5b9190808060200260200160405190810160405280939291908181526020018383602002808284376000920191909152509295949360208101935035915050600160201b81111561047f57600080fd5b82018360208201111561049157600080fd5b803590602001918460208302840111600160201b831117156104b257600080fd5b919080806020026020016040519081016040528093929190818152602001838360200280828437600092019190915250929550610ce0945050505050565b60408051602080825283518183015283519192839290830191858101910280838360005b8381101561052c578181015183820152602001610514565b505050509050019250505060405180910390f35b6100ff6004803603604081101561055657600080fd5b506001600160a01b0381358116916020013516610dcc565b61039f6004803603604081101561058457600080fd5b506001600160a01b038135169060200135610de8565b61039f600480360360408110156105b057600080fd5b506001600160a01b0381351690602001351515610e76565b6105e5600480360360208110156105de57600080fd5b5035610f65565b604080516001600160a01b039092168252519081900360200190f35b6100ff6004803603602081101561061757600080fd5b5035610fb9565b6101386004803603604081101561063457600080fd5b506001600160a01b0381358116916020013516610fc2565b61039f600480360360a081101561066257600080fd5b6001600160a01b03823581169260208101359091169160408201359160608101359181019060a081016080820135600160201b8111156106a157600080fd5b8201836020820111156106b357600080fd5b803590602001918460018302840111600160201b831117156106d457600080fd5b91908080601f016020809104026020016040519081016040528093929190818152602001838380828437600092019190915250929550610ff0945050505050565b60006001600160a01b03831661075c5760405162461bcd60e51b815260040180806020018281038252602b815260200180611dcc602b913960400191505060405180910390fd5b5060009081526001602090815260408083206001600160a01b03949094168352929052205490565b6001600160e01b03191660009081526020819052604090205460ff1690565b60038054604080516020601f600260001961010060018816150201909516949094049384018190048102820181019092528281526060939092909183018282801561082f5780601f106108045761010080835404028352916020019161082f565b820191906000526020600020905b81548152906001019060200180831161081257829003601f168201915b50505050509050919050565b815183511461087b5760405162461bcd60e51b8152600401808060200182810382526028815260200180611f8a6028913960400191505060405180910390fd5b6001600160a01b0384166108c05760405162461bcd60e51b8152600401808060200182810382526025815260200180611e6a6025913960400191505060405180910390fd5b6108c86111bb565b6001600160a01b0316856001600160a01b031614806108f357506108f3856108ee6111bb565b610fc2565b61092e5760405162461bcd60e51b8152600401808060200182810382526032815260200180611e8f6032913960400191505060405180910390fd5b60006109386111bb565b9050610948818787878787610b31565b60005b8451811015610a4957600085828151811061096257fe5b60200260200101519050600085838151811061097a57fe5b602002602001015190506109e7816040518060600160405280602a8152602001611ee4602a91396001600086815260200190815260200160002060008d6001600160a01b03166001600160a01b03168152602001908152602001600020546111c09092919063ffffffff16565b60008381526001602090815260408083206001600160a01b038e811685529252808320939093558a1681522054610a1e9082611257565b60009283526001602081815260408086206001600160a01b038d16875290915290932055500161094b565b50846001600160a01b0316866001600160a01b0316826001600160a01b03167f4a39dc06d4c0dbc64b70af90fd698a233a518aa5d07e595d983b8c0526c8f7fb8787604051808060200180602001838103835285818151815260200191508051906020019060200280838360005b83811015610acf578181015183820152602001610ab7565b50505050905001838103825284818151815260200191508051906020019060200280838360005b83811015610b0e578181015183820152602001610af6565b5050505090500194505050505060405180910390a4610b318187878787876112b1565b505050505050565b60026004541415610b91576040805162461bcd60e51b815260206004820152601f60248201527f5265656e7472616e637947756172643a207265656e7472616e742063616c6c00604482015290519081900360640190fd5b60026004819055506000826001600160a01b03166370a08231306040518263ffffffff1660e01b815260040180826001600160a01b0316815260200191505060206040518083038186803b158015610be857600080fd5b505afa158015610bfc573d6000803e3d6000fd5b505050506040513d6020811015610c1257600080fd5b50519050610c2b6001600160a01b038416333085611530565b6000836001600160a01b03166370a08231306040518263ffffffff1660e01b815260040180826001600160a01b0316815260200191505060206040518083038186803b158015610c7a57600080fd5b505afa158015610c8e573d6000803e3d6000fd5b505050506040513d6020811015610ca457600080fd5b50519050610cd5336001600160a01b038616610cc08486611590565b604051806020016040528060008152506115ed565b505060016004555050565b60608151835114610d225760405162461bcd60e51b8152600401808060200182810382526029815260200180611f616029913960400191505060405180910390fd5b6060835167ffffffffffffffff81118015610d3c57600080fd5b50604051908082528060200260200182016040528015610d66578160200160208202803683370190505b50905060005b8451811015610dc457610da5858281518110610d8457fe5b6020026020010151858381518110610d9857fe5b6020026020010151610715565b828281518110610db157fe5b6020908102919091010152600101610d6c565b509392505050565b6000610de182846001600160a01b0316610715565b9392505050565b60026004541415610e40576040805162461bcd60e51b815260206004820152601f60248201527f5265656e7472616e637947756172643a207265656e7472616e742063616c6c00604482015290519081900360640190fd5b6002600455610e59336001600160a01b038416836116f5565b610e6d6001600160a01b0383163383611828565b50506001600455565b816001600160a01b0316610e886111bb565b6001600160a01b03161415610ece5760405162461bcd60e51b8152600401808060200182810382526029815260200180611f0e6029913960400191505060405180910390fd5b8060026000610edb6111bb565b6001600160a01b03908116825260208083019390935260409182016000908120918716808252919093529120805460ff191692151592909217909155610f1f6111bb565b6001600160a01b03167f17307eab39ab6107e8899845ad3d59bd9653f200f220920489ca2b5937696c318360405180821515815260200191505060405180910390a35050565b6000816001600160a01b0381168114610fb3576040805162461bcd60e51b815260206004820152600b60248201526a6964206f766572666c6f7760a81b604482015290519081900360640190fd5b92915050565b50600160701b90565b6001600160a01b03918216600090815260026020908152604080832093909416825291909152205460ff1690565b6001600160a01b0384166110355760405162461bcd60e51b8152600401808060200182810382526025815260200180611e6a6025913960400191505060405180910390fd5b61103d6111bb565b6001600160a01b0316856001600160a01b031614806110635750611063856108ee6111bb565b61109e5760405162461bcd60e51b8152600401808060200182810382526029815260200180611e1b6029913960400191505060405180910390fd5b60006110a86111bb565b90506110c88187876110b98861187f565b6110c28861187f565b87610b31565b61110f836040518060600160405280602a8152602001611ee4602a913960008781526001602090815260408083206001600160a01b038d16845290915290205491906111c0565b60008581526001602090815260408083206001600160a01b038b811685529252808320939093558716815220546111469084611257565b60008581526001602090815260408083206001600160a01b03808b168086529184529382902094909455805188815291820187905280518a8416938616927fc3d58168c5ae7397731d063d5bbf3d657854427343f4c083240f7aacaa2d0f6292908290030190a4610b318187878787876118c3565b335b90565b6000818484111561124f5760405162461bcd60e51b81526004018080602001828103825283818151815260200191508051906020019080838360005b838110156112145781810151838201526020016111fc565b50505050905090810190601f1680156112415780820380516001836020036101000a031916815260200191505b509250505060405180910390fd5b505050900390565b600082820183811015610de1576040805162461bcd60e51b815260206004820152601b60248201527f536166654d6174683a206164646974696f6e206f766572666c6f770000000000604482015290519081900360640190fd5b6112c3846001600160a01b0316611a34565b15610b3157836001600160a01b031663bc197c8187878686866040518663ffffffff1660e01b815260040180866001600160a01b03168152602001856001600160a01b03168152602001806020018060200180602001848103845287818151815260200191508051906020019060200280838360005b83811015611351578181015183820152602001611339565b50505050905001848103835286818151815260200191508051906020019060200280838360005b83811015611390578181015183820152602001611378565b50505050905001848103825285818151815260200191508051906020019080838360005b838110156113cc5781810151838201526020016113b4565b50505050905090810190601f1680156113f95780820380516001836020036101000a031916815260200191505b5098505050505050505050602060405180830381600087803b15801561141e57600080fd5b505af192505050801561144357506040513d602081101561143e57600080fd5b505160015b6114d85761144f611cca565b8061145a57506114a1565b60405162461bcd60e51b81526020600482018181528351602484015283518493919283926044019190850190808383600083156112145781810151838201526020016111fc565b60405162461bcd60e51b8152600401808060200182810382526034815260200180611d706034913960400191505060405180910390fd5b6001600160e01b0319811663bc197c8160e01b146115275760405162461bcd60e51b8152600401808060200182810382526028815260200180611da46028913960400191505060405180910390fd5b50505050505050565b604080516001600160a01b0380861660248301528416604482015260648082018490528251808303909101815260849091019091526020810180516001600160e01b03166323b872dd60e01b17905261158a908590611a3a565b50505050565b6000828211156115e7576040805162461bcd60e51b815260206004820152601e60248201527f536166654d6174683a207375627472616374696f6e206f766572666c6f770000604482015290519081900360640190fd5b50900390565b6001600160a01b0384166116325760405162461bcd60e51b8152600401808060200182810382526021815260200180611fb26021913960400191505060405180910390fd5b600061163c6111bb565b905061164e816000876110b98861187f565b60008481526001602090815260408083206001600160a01b038916845290915290205461167b9084611257565b60008581526001602090815260408083206001600160a01b03808b16808652918452828520959095558151898152928301889052815190948616927fc3d58168c5ae7397731d063d5bbf3d657854427343f4c083240f7aacaa2d0f6292908290030190a46116ee816000878787876118c3565b5050505050565b6001600160a01b03831661173a5760405162461bcd60e51b8152600401808060200182810382526023815260200180611ec16023913960400191505060405180910390fd5b60006117446111bb565b9050611774818560006117568761187f565b61175f8761187f565b60405180602001604052806000815250610b31565b6117bb82604051806060016040528060248152602001611df76024913960008681526001602090815260408083206001600160a01b038b16845290915290205491906111c0565b60008481526001602090815260408083206001600160a01b03808a16808652918452828520959095558151888152928301879052815193949093908616927fc3d58168c5ae7397731d063d5bbf3d657854427343f4c083240f7aacaa2d0f6292908290030190a450505050565b604080516001600160a01b038416602482015260448082018490528251808303909101815260649091019091526020810180516001600160e01b031663a9059cbb60e01b17905261187a908490611a3a565b505050565b6040805160018082528183019092526060918291906020808301908036833701905050905082816000815181106118b257fe5b602090810291909101015292915050565b6118d5846001600160a01b0316611a34565b15610b3157836001600160a01b031663f23a6e6187878686866040518663ffffffff1660e01b815260040180866001600160a01b03168152602001856001600160a01b0316815260200184815260200183815260200180602001828103825283818151815260200191508051906020019080838360005b8381101561196457818101518382015260200161194c565b50505050905090810190601f1680156119915780820380516001836020036101000a031916815260200191505b509650505050505050602060405180830381600087803b1580156119b457600080fd5b505af19250505080156119d957506040513d60208110156119d457600080fd5b505160015b6119e55761144f611cca565b6001600160e01b0319811663f23a6e6160e01b146115275760405162461bcd60e51b8152600401808060200182810382526028815260200180611da46028913960400191505060405180910390fd5b3b151590565b6060611a8f826040518060400160405280602081526020017f5361666545524332303a206c6f772d6c6576656c2063616c6c206661696c6564815250856001600160a01b0316611aeb9092919063ffffffff16565b80519091501561187a57808060200190516020811015611aae57600080fd5b505161187a5760405162461bcd60e51b815260040180806020018281038252602a815260200180611f37602a913960400191505060405180910390fd5b6060611afa8484600085611b02565b949350505050565b606082471015611b435760405162461bcd60e51b8152600401808060200182810382526026815260200180611e446026913960400191505060405180910390fd5b611b4c85611a34565b611b9d576040805162461bcd60e51b815260206004820152601d60248201527f416464726573733a2063616c6c20746f206e6f6e2d636f6e7472616374000000604482015290519081900360640190fd5b60006060866001600160a01b031685876040518082805190602001908083835b60208310611bdc5780518252601f199092019160209182019101611bbd565b6001836020036101000a03801982511681845116808217855250505050505090500191505060006040518083038185875af1925050503d8060008114611c3e576040519150601f19603f3d011682016040523d82523d6000602084013e611c43565b606091505b5091509150611c53828286611c5e565b979650505050505050565b60608315611c6d575081610de1565b825115611c7d5782518084602001fd5b60405162461bcd60e51b81526020600482018181528451602484015284518593919283926044019190850190808383600083156112145781810151838201526020016111fc565b60e01c90565b600060443d1015611cda576111bd565b600481823e6308c379a0611cee8251611cc4565b14611cf8576111bd565b6040513d600319016004823e80513d67ffffffffffffffff8160248401118184111715611d2857505050506111bd565b82840192508251915080821115611d4257505050506111bd565b503d83016020828401011115611d5a575050506111bd565b601f01601f191681016020016040529150509056fe455243313135353a207472616e7366657220746f206e6f6e2045524331313535526563656976657220696d706c656d656e746572455243313135353a204552433131353552656365697665722072656a656374656420746f6b656e73455243313135353a2062616c616e636520717565727920666f7220746865207a65726f2061646472657373455243313135353a206275726e20616d6f756e7420657863656564732062616c616e6365455243313135353a2063616c6c6572206973206e6f74206f776e6572206e6f7220617070726f766564416464726573733a20696e73756666696369656e742062616c616e636520666f722063616c6c455243313135353a207472616e7366657220746f20746865207a65726f2061646472657373455243313135353a207472616e736665722063616c6c6572206973206e6f74206f776e6572206e6f7220617070726f766564455243313135353a206275726e2066726f6d20746865207a65726f2061646472657373455243313135353a20696e73756666696369656e742062616c616e636520666f72207472616e73666572455243313135353a2073657474696e6720617070726f76616c2073746174757320666f722073656c665361666545524332303a204552433230206f7065726174696f6e20646964206e6f742073756363656564455243313135353a206163636f756e747320616e6420696473206c656e677468206d69736d61746368455243313135353a2069647320616e6420616d6f756e7473206c656e677468206d69736d61746368455243313135353a206d696e7420746f20746865207a65726f2061646472657373a2646970667358221220b8058bddbcfb5f3d8dde7b8287a46d9d1b463e2a15caaeac9893c539ebb3087764736f6c634300060c0033",
  "bytecodeSha1": "7b9390c12fefeac754cca12e51c4c4d3fc3d628a",
  "compiler": {
    "evm_version": "istanbul",
    "optimizer": {
      "enabled": true,
      "runs": 200
    },
    "version": "0.6.12+commit.27d51765"
  },
  "contractName": "WERC20",
  "language": "Solidity",
  "natspec": {
    "kind": "dev",
    "methods": {
      "balanceOf(address,uint256)": {
        "details": "See {IERC1155-balanceOf}. Requirements: - `account` cannot be the zero address."
      },
      "balanceOfBatch(address[],uint256[])": {
        "details": "See {IERC1155-balanceOfBatch}. Requirements: - `accounts` and `ids` must have the same length."
      },
      "balanceOfERC20(address,address)": {
        "details": "Return the underlying ERC20 balance for the user.",
        "params": {
          "token": "token address to get balance of",
          "user": "user address to get balance of"
        }
      },
      "burn(address,uint256)": {
        "details": "Burn ERC1155 token to redeem ERC20 token back.",
        "params": {
          "amount": "token amount to burn",
          "token": "token address to burn"
        }
      },
      "getUnderlyingRate(uint256)": {
        "details": "Return the conversion rate from ERC-1155 to ERC-20, multiplied by 2**112."
      },
      "getUnderlyingToken(uint256)": {
        "details": "Return the underlying ERC-20 for the given ERC-1155 token id.",
        "params": {
          "id": "token id (corresponds to token address for wrapped ERC20)"
        }
      },
      "isApprovedForAll(address,address)": {
        "details": "See {IERC1155-isApprovedForAll}."
      },
      "mint(address,uint256)": {
        "details": "Mint ERC1155 token for the given ERC20 token.",
        "params": {
          "amount": "token amount to wrap",
          "token": "token address to wrap"
        }
      },
      "safeBatchTransferFrom(address,address,uint256[],uint256[],bytes)": {
        "details": "See {IERC1155-safeBatchTransferFrom}."
      },
      "safeTransferFrom(address,address,uint256,uint256,bytes)": {
        "details": "See {IERC1155-safeTransferFrom}."
      },
      "setApprovalForAll(address,bool)": {
        "details": "See {IERC1155-setApprovalForAll}."
      },
      "supportsInterface(bytes4)": {
        "details": "See {IERC165-supportsInterface}. Time complexity O(1), guaranteed to always use less than 30 000 gas."
      },
      "uri(uint256)": {
        "details": "See {IERC1155MetadataURI-uri}. This implementation returns the same URI for *all* token types. It relies on the token type ID substitution mechanism https://eips.ethereum.org/EIPS/eip-1155#metadata[defined in the EIP]. Clients calling this function must replace the `\\{id\\}` substring with the actual token type ID."
      }
    },
    "version": 1
  },
  "opcodes": "PUSH1 0x80 PUSH1 0x40 MSTORE CALLVALUE DUP1 ISZERO PUSH2 0x10 JUMPI PUSH1 0x0 DUP1 REVERT JUMPDEST POP PUSH1 0x4 CALLDATASIZE LT PUSH2 0xCE JUMPI PUSH1 0x0 CALLDATALOAD PUSH1 0xE0 SHR DUP1 PUSH4 0x7E50205E GT PUSH2 0x8C JUMPI DUP1 PUSH4 0xA4775772 GT PUSH2 0x66 JUMPI DUP1 PUSH4 0xA4775772 EQ PUSH2 0x5C8 JUMPI DUP1 PUSH4 0xAF8002DF EQ PUSH2 0x601 JUMPI DUP1 PUSH4 0xE985E9C5 EQ PUSH2 0x61E JUMPI DUP1 PUSH4 0xF242432A EQ PUSH2 0x64C JUMPI PUSH2 0xCE JUMP JUMPDEST DUP1 PUSH4 0x7E50205E EQ PUSH2 0x540 JUMPI DUP1 PUSH4 0x9DC29FAC EQ PUSH2 0x56E JUMPI DUP1 PUSH4 0xA22CB465 EQ PUSH2 0x59A JUMPI PUSH2 0xCE JUMP JUMPDEST DUP1 PUSH3 0xFDD58E EQ PUSH2 0xD3 JUMPI DUP1 PUSH4 0x1FFC9A7 EQ PUSH2 0x111 JUMPI DUP1 PUSH4 0xE89341C EQ PUSH2 0x14C JUMPI DUP1 PUSH4 0x2EB2C2D6 EQ PUSH2 0x1DE JUMPI DUP1 PUSH4 0x40C10F19 EQ PUSH2 0x3A1 JUMPI DUP1 PUSH4 0x4E1273F4 EQ PUSH2 0x3CD JUMPI JUMPDEST PUSH1 0x0 DUP1 REVERT JUMPDEST PUSH2 0xFF PUSH1 0x4 DUP1 CALLDATASIZE SUB PUSH1 0x40 DUP2 LT ISZERO PUSH2 0xE9 JUMPI PUSH1 0x0 DUP1 REVERT JUMPDEST POP PUSH1 0x1 PUSH1 0x1 PUSH1 0xA0 SHL SUB DUP2 CALLDATALOAD AND SWAP1 PUSH1 0x20 ADD CALLDATALOAD PUSH2 0x715 JUMP JUMPDEST PUSH1 0x40 DUP1 MLOAD SWAP2 DUP3 MSTORE MLOAD SWAP1 DUP2 SWAP1 SUB PUSH1 0x20 ADD SWAP1 RETURN JUMPDEST PUSH2 0x138 PUSH1 0x4 DUP1 CALLDATASIZE SUB PUSH1 0x20 DUP2 LT ISZERO PUSH2 0x127 JUMPI PUSH1 0x0 DUP1 REVERT JUMPDEST POP CALLDATALOAD PUSH1 0x1 PUSH1 0x1 PUSH1 0xE0 SHL SUB NOT AND PUSH2 0x784 JUMP JUMPDEST PUSH1 0x40 DUP1 MLOAD SWAP2 ISZERO ISZERO DUP3 MSTORE MLOAD SWAP1 DUP2 SWAP1 SUB PUSH1 0x20 ADD SWAP1 RETURN JUMPDEST PUSH2 0x169 PUSH1 0x4 DUP1 CALLDATASIZE SUB PUSH1 0x20 DUP2 LT ISZERO PUSH2 0x162 JUMPI PUSH1 0x0 DUP1 REVERT JUMPDEST POP CALLDATALOAD PUSH2 0x7A3 JUMP JUMPDEST PUSH1 0x40 DUP1 MLOAD PUSH1 0x20 DUP1 DUP3 MSTORE DUP4 MLOAD DUP2 DUP4 ADD MSTORE DUP4 MLOAD SWAP2 SWAP3 DUP4 SWAP3 SWAP1 DUP4 ADD SWAP2 DUP6 ADD SWAP1 DUP1 DUP4 DUP4 PUSH1 0x0 JUMPDEST DUP4 DUP2 LT ISZERO PUSH2 0x1A3 JUMPI DUP2 DUP2 ADD MLOAD DUP4 DUP3 ADD MSTORE PUSH1 0x20 ADD PUSH2 0x18B JUMP JUMPDEST POP POP POP POP SWAP1 POP SWAP1 DUP2 ADD SWAP1 PUSH1 0x1F AND DUP1 ISZERO PUSH2 0x1D0 JUMPI DUP1 DUP3 SUB DUP1 MLOAD PUSH1 0x1 DUP4 PUSH1 0x20 SUB PUSH2 0x100 EXP SUB NOT AND DUP2 MSTORE PUSH1 0x20 ADD SWAP2 POP JUMPDEST POP SWAP3 POP POP POP PUSH1 0x40 MLOAD DUP1 SWAP2 SUB SWAP1 RETURN JUMPDEST PUSH2 0x39F PUSH1 0x4 DUP1 CALLDATASIZE SUB PUSH1 0xA0 DUP2 LT ISZERO PUSH2 0x1F4 JUMPI PUSH1 0x0 DUP1 REVERT JUMPDEST PUSH1 0x1 PUSH1 0x1 PUSH1 0xA0 SHL SUB DUP3 CALLDATALOAD DUP2 AND SWAP3 PUSH1 0x20 DUP2 ADD CALLDATALOAD SWAP1 SWAP2 AND SWAP2 DUP2 ADD SWAP1 PUSH1 0x60 DUP2 ADD PUSH1 0x40 DUP3 ADD CALLDATALOAD PUSH1 0x1 PUSH1 0x20 SHL DUP2 GT ISZERO PUSH2 0x227 JUMPI PUSH1 0x0 DUP1 REVERT JUMPDEST DUP3 ADD DUP4 PUSH1 0x20 DUP3 ADD GT ISZERO PUSH2 0x239 JUMPI PUSH1 0x0 DUP1 REVERT JUMPDEST DUP1 CALLDATALOAD SWAP1 PUSH1 0x20 ADD SWAP2 DUP5 PUSH1 0x20 DUP4 MUL DUP5 ADD GT PUSH1 0x1 PUSH1 0x20 SHL DUP4 GT OR ISZERO PUSH2 0x25A JUMPI PUSH1 0x0 DUP1 REVERT JUMPDEST SWAP2 SWAP1 DUP1 DUP1 PUSH1 0x20 MUL PUSH1 0x20 ADD PUSH1 0x40 MLOAD SWAP1 DUP2 ADD PUSH1 0x40 MSTORE DUP1 SWAP4 SWAP3 SWAP2 SWAP1 DUP2 DUP2 MSTORE PUSH1 0x20 ADD DUP4 DUP4 PUSH1 0x20 MUL DUP1 DUP3 DUP5 CALLDATACOPY PUSH1 0x0 SWAP3 ADD SWAP2 SWAP1 SWAP2 MSTORE POP SWAP3 SWAP6 SWAP5 SWAP4 PUSH1 0x20 DUP2 ADD SWAP4 POP CALLDATALOAD SWAP2 POP POP PUSH1 0x1 PUSH1 0x20 SHL DUP2 GT ISZERO PUSH2 0x2A9 JUMPI PUSH1 0x0 DUP1 REVERT JUMPDEST DUP3 ADD DUP4 PUSH1 0x20 DUP3 ADD GT ISZERO PUSH2 0x2BB JUMPI PUSH1 0x0 DUP1 REVERT JUMPDEST DUP1 CALLDATALOAD SWAP1 PUSH1 0x20 ADD SWAP2 DUP5 PUSH1 0x20 DUP4 MUL DUP5 ADD GT PUSH1 0x1 PUSH1 0x20 SHL DUP4 GT OR ISZERO PUSH2 0x2DC JUMPI PUSH1 0x0 DUP1 REVERT JUMPDEST SWAP2 SWAP1 DUP1 DUP1 PUSH1 0x20 MUL PUSH1 0x20 ADD PUSH1 0x40 MLOAD SWAP1 DUP2 ADD PUSH1 0x40 MSTORE DUP1 SWAP4 SWAP3 SWAP2 SWAP1 DUP2 DUP2 MSTORE PUSH1 0x20 ADD DUP4 DUP4 PUSH1 0x20 MUL DUP1 DUP3 DUP5 CALLDATACOPY PUSH1 0x0 SWAP3 ADD SWAP2 SWAP1 SWAP2 MSTORE POP SWAP3 SWAP6 SWAP5 SWAP4 PUSH1 0x20 DUP2 ADD SWAP4 POP CALLDATALOAD SWAP2 POP POP PUSH1 0x1 PUSH1 0x20 SHL DUP2 GT ISZERO PUSH2 0x32B JUMPI PUSH1 0x0 DUP1 REVERT JUMPDEST DUP3 ADD DUP4 PUSH1 0x20 DUP3 ADD GT ISZERO PUSH2 0x33D JUMPI PUSH1 0x0 DUP1 REVERT JUMPDEST DUP1 CALLDATALOAD SWAP1 PUSH1 0x20 ADD SWAP2 DUP5 PUSH1 0x1 DUP4 MUL DUP5 ADD GT PUSH1 0x1 PUSH1 0x20 SHL DUP4 GT OR ISZERO PUSH2 0x35E JUMPI PUSH1 0x0 DUP1 REVERT JUMPDEST SWAP2 SWAP1 DUP1 DUP1 PUSH1 0x1F ADD PUSH1 0x20 DUP1 SWAP2 DIV MUL PUSH1 0x20 ADD PUSH1 0x40 MLOAD SWAP1 DUP2 ADD PUSH1 0x40 MSTORE DUP1 SWAP4 SWAP3 SWAP2 SWAP1 DUP2 DUP2 MSTORE PUSH1 0x20 ADD DUP4 DUP4 DUP1 DUP3 DUP5 CALLDATACOPY PUSH1 0x0 SWAP3 ADD SWAP2 SWAP1 SWAP2 MSTORE POP SWAP3 SWAP6 POP PUSH2 0x83B SWAP5 POP POP POP POP POP JUMP JUMPDEST STOP JUMPDEST PUSH2 0x39F PUSH1 0x4 DUP1 CALLDATASIZE SUB PUSH1 0x40 DUP2 LT ISZERO PUSH2 0x3B7 JUMPI PUSH1 0x0 DUP1 REVERT JUMPDEST POP PUSH1 0x1 PUSH1 0x1 PUSH1 0xA0 SHL SUB DUP2 CALLDATALOAD AND SWAP1 PUSH1 0x20 ADD CALLDATALOAD PUSH2 0xB39 JUMP JUMPDEST PUSH2 0x4F0 PUSH1 0x4 DUP1 CALLDATASIZE SUB PUSH1 0x40 DUP2 LT ISZERO PUSH2 0x3E3 JUMPI PUSH1 0x0 DUP1 REVERT JUMPDEST DUP2 ADD SWAP1 PUSH1 0x20 DUP2 ADD DUP2 CALLDATALOAD PUSH1 0x1 PUSH1 0x20 SHL DUP2 GT ISZERO PUSH2 0x3FD JUMPI PUSH1 0x0 DUP1 REVERT JUMPDEST DUP3 ADD DUP4 PUSH1 0x20 DUP3 ADD GT ISZERO PUSH2 0x40F JUMPI PUSH1 0x0 DUP1 REVERT JUMPDEST DUP1 CALLDATALOAD SWAP1 PUSH1 0x20 ADD SWAP2 DUP5 PUSH1 0x20 DUP4 MUL DUP5 ADD GT PUSH1 0x1 PUSH1 0x20 SHL DUP4 GT OR ISZERO PUSH2 0x430 JUMPI PUSH1 0x0 DUP1 REVERT JUMPDEST SWAP2 SWAP1 DUP1 DUP1 PUSH1 0x20 MUL PUSH1 0x20 ADD PUSH1 0x40 MLOAD SWAP1 DUP2 ADD PUSH1 0x40 MSTORE DUP1 SWAP4 SWAP3 SWAP2 SWAP1 DUP2 DUP2 MSTORE PUSH1 0x20 ADD DUP4 DUP4 PUSH1 0x20 MUL DUP1 DUP3 DUP5 CALLDATACOPY PUSH1 0x0 SWAP3 ADD SWAP2 SWAP1 SWAP2 MSTORE POP SWAP3 SWAP6 SWAP5 SWAP4 PUSH1 0x20 DUP2 ADD SWAP4 POP CALLDATALOAD SWAP2 POP POP PUSH1 0x1 PUSH1 0x20 SHL DUP2 GT ISZERO PUSH2 0x47F JUMPI PUSH1 0x0 DUP1 REVERT JUMPDEST DUP3 ADD DUP4 PUSH1 0x20 DUP3 ADD GT ISZERO PUSH2 0x491 JUMPI PUSH1 0x0 DUP1 REVERT JUMPDEST DUP1 CALLDATALOAD SWAP1 PUSH1 0x20 ADD SWAP2 DUP5 PUSH1 0x20 DUP4 MUL DUP5 ADD GT PUSH1 0x1 PUSH1 0x20 SHL DUP4 GT OR ISZERO PUSH2 0x4B2 JUMPI PUSH1 0x0 DUP1 REVERT JUMPDEST SWAP2 SWAP1 DUP1 DUP1 PUSH1 0x20 MUL PUSH1 0x20 ADD PUSH1 0x40 MLOAD SWAP1 DUP2 ADD PUSH1 0x40 MSTORE DUP1 SWAP4 SWAP3 SWAP2 SWAP1 DUP2 DUP2 MSTORE PUSH1 0x20 ADD DUP4 DUP4 PUSH1 0x20 MUL DUP1 DUP3 DUP5 CALLDATACOPY PUSH1 0x0 SWAP3 ADD SWAP2 SWAP1 SWAP2 MSTORE POP SWAP3 SWAP6 POP PUSH2 0xCE0 SWAP5 POP POP POP POP POP JUMP JUMPDEST PUSH1 0x40 DUP1 MLOAD PUSH1 0x20 DUP1 DUP3 MSTORE DUP4 MLOAD DUP2 DUP4 ADD MSTORE DUP4 MLOAD SWAP2 SWAP3 DUP4 SWAP3 SWAP1 DUP4 ADD SWAP2 DUP6 DUP2 ADD SWAP2 MUL DUP1 DUP4 DUP4 PUSH1 0x0 JUMPDEST DUP4 DUP2 LT ISZERO PUSH2 0x52C JUMPI DUP2 DUP2 ADD MLOAD DUP4 DUP3 ADD MSTORE PUSH1 0x20 ADD PUSH2 0x514 JUMP JUMPDEST POP POP POP POP SWAP1 POP ADD SWAP3 POP POP POP PUSH1 0x40 MLOAD DUP1 SWAP2 SUB SWAP1 RETURN JUMPDEST PUSH2 0xFF PUSH1 0x4 DUP1 CALLDATASIZE SUB PUSH1 0x40 DUP2 LT ISZERO PUSH2 0x556 JUMPI PUSH1 0x0 DUP1 REVERT JUMPDEST POP PUSH1 0x1 PUSH1 0x1 PUSH1 0xA0 SHL SUB DUP2 CALLDATALOAD DUP2 AND SWAP2 PUSH1 0x20 ADD CALLDATALOAD AND PUSH2 0xDCC JUMP JUMPDEST PUSH2 0x39F PUSH1 0x4 DUP1 CALLDATASIZE SUB PUSH1 0x40 DUP2 LT ISZERO PUSH2 0x584 JUMPI PUSH1 0x0 DUP1 REVERT JUMPDEST POP PUSH1 0x1 PUSH1 0x1 PUSH1 0xA0 SHL SUB DUP2 CALLDATALOAD AND SWAP1 PUSH1 0x20 ADD CALLDATALOAD PUSH2 0xDE8 JUMP JUMPDEST PUSH2 0x39F PUSH1 0x4 DUP1 CALLDATASIZE SUB PUSH1 0x40 DUP2 LT ISZERO PUSH2 0x5B0 JUMPI PUSH1 0x0 DUP1 REVERT JUMPDEST POP PUSH1 0x1 PUSH1 0x1 PUSH1 0xA0 SHL SUB DUP2 CALLDATALOAD AND SWAP1 PUSH1 0x20 ADD CALLDATALOAD ISZERO ISZERO PUSH2 0xE76 JUMP JUMPDEST PUSH2 0x5E5 PUSH1 0x4 DUP1 CALLDATASIZE SUB PUSH1 0x20 DUP2 LT ISZERO PUSH2 0x5DE JUMPI PUSH1 0x0 DUP1 REVERT JUMPDEST POP CALLDATALOAD PUSH2 0xF65 JUMP JUMPDEST PUSH1 0x40 DUP1 MLOAD PUSH1 0x1 PUSH1 0x1 PUSH1 0xA0 SHL SUB SWAP1 SWAP3 AND DUP3 MSTORE MLOAD SWAP1 DUP2 SWAP1 SUB PUSH1 0x20 ADD SWAP1 RETURN JUMPDEST PUSH2 0xFF PUSH1 0x4 DUP1 CALLDATASIZE SUB PUSH1 0x20 DUP2 LT ISZERO PUSH2 0x617 JUMPI PUSH1 0x0 DUP1 REVERT JUMPDEST POP CALLDATALOAD PUSH2 0xFB9 JUMP JUMPDEST PUSH2 0x138 PUSH1 0x4 DUP1 CALLDATASIZE SUB PUSH1 0x40 DUP2 LT ISZERO PUSH2 0x634 JUMPI PUSH1 0x0 DUP1 REVERT JUMPDEST POP PUSH1 0x1 PUSH1 0x1 PUSH1 0xA0 SHL SUB DUP2 CALLDATALOAD DUP2 AND SWAP2 PUSH1 0x20 ADD CALLDATALOAD AND PUSH2 0xFC2 JUMP JUMPDEST PUSH2 0x39F PUSH1 0x4 DUP1 CALLDATASIZE SUB PUSH1 0xA0 DUP2 LT ISZERO PUSH2 0x662 JUMPI PUSH1 0x0 DUP1 REVERT JUMPDEST PUSH1 0x1 PUSH1 0x1 PUSH1 0xA0 SHL SUB DUP3 CALLDATALOAD DUP2 AND SWAP3 PUSH1 0x20 DUP2 ADD CALLDATALOAD SWAP1 SWAP2 AND SWAP2 PUSH1 0x40 DUP3 ADD CALLDATALOAD SWAP2 PUSH1 0x60 DUP2 ADD CALLDATALOAD SWAP2 DUP2 ADD SWAP1 PUSH1 0xA0 DUP2 ADD PUSH1 0x80 DUP3 ADD CALLDATALOAD PUSH1 0x1 PUSH1 0x20 SHL DUP2 GT ISZERO PUSH2 0x6A1 JUMPI PUSH1 0x0 DUP1 REVERT JUMPDEST DUP3 ADD DUP4 PUSH1 0x20 DUP3 ADD GT ISZERO PUSH2 0x6B3 JUMPI PUSH1 0x0 DUP1 REVERT JUMPDEST DUP1 CALLDATALOAD SWAP1 PUSH1 0x20 ADD SWAP2 DUP5 PUSH1 0x1 DUP4 MUL DUP5 ADD GT PUSH1 0x1 PUSH1 0x20 SHL DUP4 GT OR ISZERO PUSH2 0x6D4 JUMPI PUSH1 0x0 DUP1 REVERT JUMPDEST SWAP2 SWAP1 DUP1 DUP1 PUSH1 0x1F ADD PUSH1 0x20 DUP1 SWAP2 DIV MUL PUSH1 0x20 ADD PUSH1 0x40 MLOAD SWAP1 DUP2 ADD PUSH1 0x40 MSTORE DUP1 SWAP4 SWAP3 SWAP2 SWAP1 DUP2 DUP2 MSTORE PUSH1 0x20 ADD DUP4 DUP4 DUP1 DUP3 DUP5 CALLDATACOPY PUSH1 0x0 SWAP3 ADD SWAP2 SWAP1 SWAP2 MSTORE POP SWAP3 SWAP6 POP PUSH2 0xFF0 SWAP5 POP POP POP POP POP JUMP JUMPDEST PUSH1 0x0 PUSH1 0x1 PUSH1 0x1 PUSH1 0xA0 SHL SUB DUP4 AND PUSH2 0x75C JUMPI PUSH1 0x40 MLOAD PUSH3 0x461BCD PUSH1 0xE5 SHL DUP2 MSTORE PUSH1 0x4 ADD DUP1 DUP1 PUSH1 0x20 ADD DUP3 DUP2 SUB DUP3 MSTORE PUSH1 0x2B DUP2 MSTORE PUSH1 0x20 ADD DUP1 PUSH2 0x1DCC PUSH1 0x2B SWAP2 CODECOPY PUSH1 0x40 ADD SWAP2 POP POP PUSH1 0x40 MLOAD DUP1 SWAP2 SUB SWAP1 REVERT JUMPDEST POP PUSH1 0x0 SWAP1 DUP2 MSTORE PUSH1 0x1 PUSH1 0x20 SWAP1 DUP2 MSTORE PUSH1 0x40 DUP1 DUP4 KECCAK256 PUSH1 0x1 PUSH1 0x1 PUSH1 0xA0 SHL SUB SWAP5 SWAP1 SWAP5 AND DUP4 MSTORE SWAP3 SWAP1 MSTORE KECCAK256 SLOAD SWAP1 JUMP JUMPDEST PUSH1 0x1 PUSH1 0x1 PUSH1 0xE0 SHL SUB NOT AND PUSH1 0x0 SWAP1 DUP2 MSTORE PUSH1 0x20 DUP2 SWAP1 MSTORE PUSH1 0x40 SWAP1 KECCAK256 SLOAD PUSH1 0xFF AND SWAP1 JUMP JUMPDEST PUSH1 0x3 DUP1 SLOAD PUSH1 0x40 DUP1 MLOAD PUSH1 0x20 PUSH1 0x1F PUSH1 0x2 PUSH1 0x0 NOT PUSH2 0x100 PUSH1 0x1 DUP9 AND ISZERO MUL ADD SWAP1 SWAP6 AND SWAP5 SWAP1 SWAP5 DIV SWAP4 DUP5 ADD DUP2 SWAP1 DIV DUP2 MUL DUP3 ADD DUP2 ADD SWAP1 SWAP3 MSTORE DUP3 DUP2 MSTORE PUSH1 0x60 SWAP4 SWAP1 SWAP3 SWAP1 SWAP2 DUP4 ADD DUP3 DUP3 DUP1 ISZERO PUSH2 0x82F JUMPI DUP1 PUSH1 0x1F LT PUSH2 0x804 JUMPI PUSH2 0x100 DUP1 DUP4 SLOAD DIV MUL DUP4 MSTORE SWAP2 PUSH1 0x20 ADD SWAP2 PUSH2 0x82F JUMP JUMPDEST DUP3 ADD SWAP2 SWAP1 PUSH1 0x0 MSTORE PUSH1 0x20 PUSH1 0x0 KECCAK256 SWAP1 JUMPDEST DUP2 SLOAD DUP2 MSTORE SWAP1 PUSH1 0x1 ADD SWAP1 PUSH1 0x20 ADD DUP1 DUP4 GT PUSH2 0x812 JUMPI DUP3 SWAP1 SUB PUSH1 0x1F AND DUP3 ADD SWAP2 JUMPDEST POP POP POP POP POP SWAP1 POP SWAP2 SWAP1 POP JUMP JUMPDEST DUP2 MLOAD DUP4 MLOAD EQ PUSH2 0x87B JUMPI PUSH1 0x40 MLOAD PUSH3 0x461BCD PUSH1 0xE5 SHL DUP2 MSTORE PUSH1 0x4 ADD DUP1 DUP1 PUSH1 0x20 ADD DUP3 DUP2 SUB DUP3 MSTORE PUSH1 0x28 DUP2 MSTORE PUSH1 0x20 ADD DUP1 PUSH2 0x1F8A PUSH1 0x28 SWAP2 CODECOPY PUSH1 0x40 ADD SWAP2 POP POP PUSH1 0x40 MLOAD DUP1 SWAP2 SUB SWAP1 REVERT JUMPDEST PUSH1 0x1 PUSH1 0x1 PUSH1 0xA0 SHL SUB DUP5 AND PUSH2 0x8C0 JUMPI PUSH1 0x40 MLOAD PUSH3 0x461BCD PUSH1 0xE5 SHL DUP2 MSTORE PUSH1 0x4 ADD DUP1 DUP1 PUSH1 0x20 ADD DUP3 DUP2 SUB DUP3 MSTORE PUSH1 0x25 DUP2 MSTORE PUSH1 0x20 ADD DUP1 PUSH2 0x1E6A PUSH1 0x25 SWAP2 CODECOPY PUSH1 0x40 ADD SWAP2 POP POP PUSH1 0x40 MLOAD DUP1 SWAP2 SUB SWAP1 REVERT JUMPDEST PUSH2 0x8C8 PUSH2 0x11BB JUMP JUMPDEST PUSH1 0x1 PUSH1 0x1 PUSH1 0xA0 SHL SUB AND DUP6 PUSH1 0x1 PUSH1 0x1 PUSH1 0xA0 SHL SUB AND EQ DUP1 PUSH2 0x8F3 JUMPI POP PUSH2 0x8F3 DUP6 PUSH2 0x8EE PUSH2 0x11BB JUMP JUMPDEST PUSH2 0xFC2 JUMP JUMPDEST PUSH2 0x92E JUMPI PUSH1 0x40 MLOAD PUSH3 0x461BCD PUSH1 0xE5 SHL DUP2 MSTORE PUSH1 0x4 ADD DUP1 DUP1 PUSH1 0x20 ADD DUP3 DUP2 SUB DUP3 MSTORE PUSH1 0x32 DUP2 MSTORE PUSH1 0x20 ADD DUP1 PUSH2 0x1E8F PUSH1 0x32 SWAP2 CODECOPY PUSH1 0x40 ADD SWAP2 POP POP PUSH1 0x40 MLOAD DUP1 SWAP2 SUB SWAP1 REVERT JUMPDEST PUSH1 0x0 PUSH2 0x938 PUSH2 0x11BB JUMP JUMPDEST SWAP1 POP PUSH2 0x948 DUP2 DUP8 DUP8 DUP8 DUP8 DUP8 PUSH2 0xB31 JUMP JUMPDEST PUSH1 0x0 JUMPDEST DUP5 MLOAD DUP2 LT ISZERO PUSH2 0xA49 JUMPI PUSH1 0x0 DUP6 DUP3 DUP2 MLOAD DUP2 LT PUSH2 0x962 JUMPI INVALID JUMPDEST PUSH1 0x20 MUL PUSH1 0x20 ADD ADD MLOAD SWAP1 POP PUSH1 0x0 DUP6 DUP4 DUP2 MLOAD DUP2 LT PUSH2 0x97A JUMPI INVALID JUMPDEST PUSH1 0x20 MUL PUSH1 0x20 ADD ADD MLOAD SWAP1 POP PUSH2 0x9E7 DUP2 PUSH1 0x40 MLOAD DUP1 PUSH1 0x60 ADD PUSH1 0x40 MSTORE DUP1 PUSH1 0x2A DUP2 MSTORE PUSH1 0x20 ADD PUSH2 0x1EE4 PUSH1 0x2A SWAP2 CODECOPY PUSH1 0x1 PUSH1 0x0 DUP7 DUP2 MSTORE PUSH1 0x20 ADD SWAP1 DUP2 MSTORE PUSH1 0x20 ADD PUSH1 0x0 KECCAK256 PUSH1 0x0 DUP14 PUSH1 0x1 PUSH1 0x1 PUSH1 0xA0 SHL SUB AND PUSH1 0x1 PUSH1 0x1 PUSH1 0xA0 SHL SUB AND DUP2 MSTORE PUSH1 0x20 ADD SWAP1 DUP2 MSTORE PUSH1 0x20 ADD PUSH1 0x0 KECCAK256 SLOAD PUSH2 0x11C0 SWAP1 SWAP3 SWAP2 SWAP1 PUSH4 0xFFFFFFFF AND JUMP JUMPDEST PUSH1 0x0 DUP4 DUP2 MSTORE PUSH1 0x1 PUSH1 0x20 SWAP1 DUP2 MSTORE PUSH1 0x40 DUP1 DUP4 KECCAK256 PUSH1 0x1 PUSH1 0x1 PUSH1 0xA0 SHL SUB DUP15 DUP2 AND DUP6 MSTORE SWAP3 MSTORE DUP1 DUP4 KECCAK256 SWAP4 SWAP1 SWAP4 SSTORE DUP11 AND DUP2 MSTORE KECCAK256 SLOAD PUSH2 0xA1E SWAP1 DUP3 PUSH2 0x1257 JUMP JUMPDEST PUSH1 0x0 SWAP3 DUP4 MSTORE PUSH1 0x1 PUSH1 0x20 DUP2 DUP2 MSTORE PUSH1 0x40 DUP1 DUP7 KECCAK256 PUSH1 0x1 PUSH1 0x1 PUSH1 0xA0 SHL SUB DUP14 AND DUP8 MSTORE SWAP1 SWAP2 MSTORE SWAP1 SWAP4 KECCAK256 SSTORE POP ADD PUSH2 0x94B JUMP JUMPDEST POP DUP5 PUSH1 0x1 PUSH1 0x1 PUSH1 0xA0 SHL SUB AND DUP7 PUSH1 0x1 PUSH1 0x1 PUSH1 0xA0 SHL SUB AND DUP3 PUSH1 0x1 PUSH1 0x1 PUSH1 0xA0 SHL SUB AND PUSH32 0x4A39DC06D4C0DBC64B70AF90FD698A233A518AA5D07E595D983B8C0526C8F7FB DUP8 DUP8 PUSH1 0x40 MLOAD DUP1 DUP1 PUSH1 0x20 ADD DUP1 PUSH1 0x20 ADD DUP4 DUP2 SUB DUP4 MSTORE DUP6 DUP2 DUP2 MLOAD DUP2 MSTORE PUSH1 0x20 ADD SWAP2 POP DUP1 MLOAD SWAP1 PUSH1 0x20 ADD SWAP1 PUSH1 0x20 MUL DUP1 DUP4 DUP4 PUSH1 0x0 JUMPDEST DUP4 DUP2 LT ISZERO PUSH2 0xACF JUMPI DUP2 DUP2 ADD MLOAD DUP4 DUP3 ADD MSTORE PUSH1 0x20 ADD PUSH2 0xAB7 JUMP JUMPDEST POP POP POP POP SWAP1 POP ADD DUP4 DUP2 SUB DUP3 MSTORE DUP5 DUP2 DUP2 MLOAD DUP2 MSTORE PUSH1 0x20 ADD SWAP2 POP DUP1 MLOAD SWAP1 PUSH1 0x20 ADD SWAP1 PUSH1 0x20 MUL DUP1 DUP4 DUP4 PUSH1 0x0 JUMPDEST DUP4 DUP2 LT ISZERO PUSH2 0xB0E JUMPI DUP2 DUP2 ADD MLOAD DUP4 DUP3 ADD MSTORE PUSH1 0x20 ADD PUSH2 0xAF6 JUMP JUMPDEST POP POP POP POP SWAP1 POP ADD SWAP5 POP POP POP POP POP PUSH1 0x40 MLOAD DUP1 SWAP2 SUB SWAP1 LOG4 PUSH2 0xB31 DUP2 DUP8 DUP8 DUP8 DUP8 DUP8 PUSH2 0x12B1 JUMP JUMPDEST POP POP POP POP POP POP JUMP JUMPDEST PUSH1 0x2 PUSH1 0x4 SLOAD EQ ISZERO PUSH2 0xB91 JUMPI PUSH1 0x40 DUP1 MLOAD PUSH3 0x461BCD PUSH1 0xE5 SHL DUP2 MSTORE PUSH1 0x20 PUSH1 0x4 DUP3 ADD MSTORE PUSH1 0x1F PUSH1 0x24 DUP3 ADD MSTORE PUSH32 0x5265656E7472616E637947756172643A207265656E7472616E742063616C6C00 PUSH1 0x44 DUP3 ADD MSTORE SWAP1 MLOAD SWAP1 DUP2 SWAP1 SUB PUSH1 0x64 ADD SWAP1 REVERT JUMPDEST PUSH1 0x2 PUSH1 0x4 DUP2 SWAP1 SSTORE POP PUSH1 0x0 DUP3 PUSH1 0x1 PUSH1 0x1 PUSH1 0xA0 SHL SUB AND PUSH4 0x70A08231 ADDRESS PUSH1 0x40 MLOAD DUP3 PUSH4 0xFFFFFFFF AND PUSH1 0xE0 SHL DUP2 MSTORE PUSH1 0x4 ADD DUP1 DUP3 PUSH1 0x1 PUSH1 0x1 PUSH1 0xA0 SHL SUB AND DUP2 MSTORE PUSH1 0x20 ADD SWAP2 POP POP PUSH1 0x20 PUSH1 0x40 MLOAD DUP1 DUP4 SUB DUP2 DUP7 DUP1 EXTCODESIZE ISZERO DUP1 ISZERO PUSH2 0xBE8 JUMPI PUSH1 0x0 DUP1 REVERT JUMPDEST POP GAS STATICCALL ISZERO DUP1 ISZERO PUSH2 0xBFC JUMPI RETURNDATASIZE PUSH1 0x0 DUP1 RETURNDATACOPY RETURNDATASIZE PUSH1 0x0 REVERT JUMPDEST POP POP POP POP PUSH1 0x40 MLOAD RETURNDATASIZE PUSH1 0x20 DUP2 LT ISZERO PUSH2 0xC12 JUMPI PUSH1 0x0 DUP1 REVERT JUMPDEST POP MLOAD SWAP1 POP PUSH2 0xC2B PUSH1 0x1 PUSH1 0x1 PUSH1 0xA0 SHL SUB DUP5 AND CALLER ADDRESS DUP6 PUSH2 0x1530 JUMP JUMPDEST PUSH1 0x0 DUP4 PUSH1 0x1 PUSH1 0x1 PUSH1 0xA0 SHL SUB AND PUSH4 0x70A08231 ADDRESS PUSH1 0x40 MLOAD DUP3 PUSH4 0xFFFFFFFF AND PUSH1 0xE0 SHL DUP2 MSTORE PUSH1 0x4 ADD DUP1 DUP3 PUSH1 0x1 PUSH1 0x1 PUSH1 0xA0 SHL SUB AND DUP2 MSTORE PUSH1 0x20 ADD SWAP2 POP POP PUSH1 0x20 PUSH1 0x40 MLOAD DUP1 DUP4 SUB DUP2 DUP7 DUP1 EXTCODESIZE ISZERO DUP1 ISZERO PUSH2 0xC7A JUMPI PUSH1 0x0 DUP1 REVERT JUMPDEST POP GAS STATICCALL ISZERO DUP1 ISZERO PUSH2 0xC8E JUMPI RETURNDATASIZE PUSH1 0x0 DUP1 RETURNDATACOPY RETURNDATASIZE PUSH1 0x0 REVERT JUMPDEST POP POP POP POP PUSH1 0x40 MLOAD RETURNDATASIZE PUSH1 0x20 DUP2 LT ISZERO PUSH2 0xCA4 JUMPI PUSH1 0x0 DUP1 REVERT JUMPDEST POP MLOAD SWAP1 POP PUSH2 0xCD5 CALLER PUSH1 0x1 PUSH1 0x1 PUSH1 0xA0 SHL SUB DUP7 AND PUSH2 0xCC0 DUP5 DUP7 PUSH2 0x1590 JUMP JUMPDEST PUSH1 0x40 MLOAD DUP1 PUSH1 0x20 ADD PUSH1 0x40 MSTORE DUP1 PUSH1 0x0 DUP2 MSTORE POP PUSH2 0x15ED JUMP JUMPDEST POP POP PUSH1 0x1 PUSH1 0x4 SSTORE POP POP JUMP JUMPDEST PUSH1 0x60 DUP2 MLOAD DUP4 MLOAD EQ PUSH2 0xD22 JUMPI PUSH1 0x40 MLOAD PUSH3 0x461BCD PUSH1 0xE5 SHL DUP2 MSTORE PUSH1 0x4 ADD DUP1 DUP1 PUSH1 0x20 ADD DUP3 DUP2 SUB DUP3 MSTORE PUSH1 0x29 DUP2 MSTORE PUSH1 0x20 ADD DUP1 PUSH2 0x1F61 PUSH1 0x29 SWAP2 CODECOPY PUSH1 0x40 ADD SWAP2 POP POP PUSH1 0x40 MLOAD DUP1 SWAP2 SUB SWAP1 REVERT JUMPDEST PUSH1 0x60 DUP4 MLOAD PUSH8 0xFFFFFFFFFFFFFFFF DUP2 GT DUP1 ISZERO PUSH2 0xD3C JUMPI PUSH1 0x0 DUP1 REVERT JUMPDEST POP PUSH1 0x40 MLOAD SWAP1 DUP1 DUP3 MSTORE DUP1 PUSH1 0x20 MUL PUSH1 0x20 ADD DUP3 ADD PUSH1 0x40 MSTORE DUP1 ISZERO PUSH2 0xD66 JUMPI DUP2 PUSH1 0x20 ADD PUSH1 0x20 DUP3 MUL DUP1 CALLDATASIZE DUP4 CALLDATACOPY ADD SWAP1 POP JUMPDEST POP SWAP1 POP PUSH1 0x0 JUMPDEST DUP5 MLOAD DUP2 LT ISZERO PUSH2 0xDC4 JUMPI PUSH2 0xDA5 DUP6 DUP3 DUP2 MLOAD DUP2 LT PUSH2 0xD84 JUMPI INVALID JUMPDEST PUSH1 0x20 MUL PUSH1 0x20 ADD ADD MLOAD DUP6 DUP4 DUP2 MLOAD DUP2 LT PUSH2 0xD98 JUMPI INVALID JUMPDEST PUSH1 0x20 MUL PUSH1 0x20 ADD ADD MLOAD PUSH2 0x715 JUMP JUMPDEST DUP3 DUP3 DUP2 MLOAD DUP2 LT PUSH2 0xDB1 JUMPI INVALID JUMPDEST PUSH1 0x20 SWAP1 DUP2 MUL SWAP2 SWAP1 SWAP2 ADD ADD MSTORE PUSH1 0x1 ADD PUSH2 0xD6C JUMP JUMPDEST POP SWAP4 SWAP3 POP POP POP JUMP JUMPDEST PUSH1 0x0 PUSH2 0xDE1 DUP3 DUP5 PUSH1 0x1 PUSH1 0x1 PUSH1 0xA0 SHL SUB AND PUSH2 0x715 JUMP JUMPDEST SWAP4 SWAP3 POP POP POP JUMP JUMPDEST PUSH1 0x2 PUSH1 0x4 SLOAD EQ ISZERO PUSH2 0xE40 JUMPI PUSH1 0x40 DUP1 MLOAD PUSH3 0x461BCD PUSH1 0xE5 SHL DUP2 MSTORE PUSH1 0x20 PUSH1 0x4 DUP3 ADD MSTORE PUSH1 0x1F PUSH1 0x24 DUP3 ADD MSTORE PUSH32 0x5265656E7472616E637947756172643A207265656E7472616E742063616C6C00 PUSH1 0x44 DUP3 ADD MSTORE SWAP1 MLOAD SWAP1 DUP2 SWAP1 SUB PUSH1 0x64 ADD SWAP1 REVERT JUMPDEST PUSH1 0x2 PUSH1 0x4 SSTORE PUSH2 0xE59 CALLER PUSH1 0x1 PUSH1 0x1 PUSH1 0xA0 SHL SUB DUP5 AND DUP4 PUSH2 0x16F5 JUMP JUMPDEST PUSH2 0xE6D PUSH1 0x1 PUSH1 0x1 PUSH1 0xA0 SHL SUB DUP4 AND CALLER DUP4 PUSH2 0x1828 JUMP JUMPDEST POP POP PUSH1 0x1 PUSH1 0x4 SSTORE JUMP JUMPDEST DUP2 PUSH1 0x1 PUSH1 0x1 PUSH1 0xA0 SHL SUB AND PUSH2 0xE88 PUSH2 0x11BB JUMP JUMPDEST PUSH1 0x1 PUSH1 0x1 PUSH1 0xA0 SHL SUB AND EQ ISZERO PUSH2 0xECE JUMPI PUSH1 0x40 MLOAD PUSH3 0x461BCD PUSH1 0xE5 SHL DUP2 MSTORE PUSH1 0x4 ADD DUP1 DUP1 PUSH1 0x20 ADD DUP3 DUP2 SUB DUP3 MSTORE PUSH1 0x29 DUP2 MSTORE PUSH1 0x20 ADD DUP1 PUSH2 0x1F0E PUSH1 0x29 SWAP2 CODECOPY PUSH1 0x40 ADD SWAP2 POP POP PUSH1 0x40 MLOAD DUP1 SWAP2 SUB SWAP1 REVERT JUMPDEST DUP1 PUSH1 0x2 PUSH1 0x0 PUSH2 0xEDB PUSH2 0x11BB JUMP JUMPDEST PUSH1 0x1 PUSH1 0x1 PUSH1 0xA0 SHL SUB SWAP1 DUP2 AND DUP3 MSTORE PUSH1 0x20 DUP1 DUP4 ADD SWAP4 SWAP1 SWAP4 MSTORE PUSH1 0x40 SWAP2 DUP3 ADD PUSH1 0x0 SWAP1 DUP2 KECCAK256 SWAP2 DUP8 AND DUP1 DUP3 MSTORE SWAP2 SWAP1 SWAP4 MSTORE SWAP2 KECCAK256 DUP1 SLOAD PUSH1 0xFF NOT AND SWAP3 ISZERO ISZERO SWAP3 SWAP1 SWAP3 OR SWAP1 SWAP2 SSTORE PUSH2 0xF1F PUSH2 0x11BB JUMP JUMPDEST PUSH1 0x1 PUSH1 0x1 PUSH1 0xA0 SHL SUB AND PUSH32 0x17307EAB39AB6107E8899845AD3D59BD9653F200F220920489CA2B5937696C31 DUP4 PUSH1 0x40 MLOAD DUP1 DUP3 ISZERO ISZERO DUP2 MSTORE PUSH1 0x20 ADD SWAP2 POP POP PUSH1 0x40 MLOAD DUP1 SWAP2 SUB SWAP1 LOG3 POP POP JUMP JUMPDEST PUSH1 0x0 DUP2 PUSH1 0x1 PUSH1 0x1 PUSH1 0xA0 SHL SUB DUP2 AND DUP2 EQ PUSH2 0xFB3 JUMPI PUSH1 0x40 DUP1 MLOAD PUSH3 0x461BCD PUSH1 0xE5 SHL DUP2 MSTORE PUSH1 0x20 PUSH1 0x4 DUP3 ADD MSTORE PUSH1 0xB PUSH1 0x24 DUP3 ADD MSTORE PUSH11 0x6964206F766572666C6F77 PUSH1 0xA8 SHL PUSH1 0x44 DUP3 ADD MSTORE SWAP1 MLOAD SWAP1 DUP2 SWAP1 SUB PUSH1 0x64 ADD SWAP1 REVERT JUMPDEST SWAP3 SWAP2 POP POP JUMP JUMPDEST POP PUSH1 0x1 PUSH1 0x70 SHL SWAP1 JUMP JUMPDEST PUSH1 0x1 PUSH1 0x1 PUSH1 0xA0 SHL SUB SWAP2 DUP3 AND PUSH1 0x0 SWAP1 DUP2 MSTORE PUSH1 0x2 PUSH1 0x20 SWAP1 DUP2 MSTORE PUSH1 0x40 DUP1 DUP4 KECCAK256 SWAP4 SWAP1 SWAP5 AND DUP3 MSTORE SWAP2 SWAP1 SWAP2 MSTORE KECCAK256 SLOAD PUSH1 0xFF AND SWAP1 JUMP JUMPDEST PUSH1 0x1 PUSH1 0x1 PUSH1 0xA0 SHL SUB DUP5 AND PUSH2 0x1035 JUMPI PUSH1 0x40 MLOAD PUSH3 0x461BCD PUSH1 0xE5 SHL DUP2 MSTORE PUSH1 0x4 ADD DUP1 DUP1 PUSH1 0x20 ADD DUP3 DUP2 SUB DUP3 MSTORE PUSH1 0x25 DUP2 MSTORE PUSH1 0x20 ADD DUP1 PUSH2 0x1E6A PUSH1 0x25 SWAP2 CODECOPY PUSH1 0x40 ADD SWAP2 POP POP PUSH1 0x40 MLOAD DUP1 SWAP2 SUB SWAP1 REVERT JUMPDEST PUSH2 0x103D PUSH2 0x11BB JUMP JUMPDEST PUSH1 0x1 PUSH1 0x1 PUSH1 0xA0 SHL SUB AND DUP6 PUSH1 0x1 PUSH1 0x1 PUSH1 0xA0 SHL SUB AND EQ DUP1 PUSH2 0x1063 JUMPI POP PUSH2 0x1063 DUP6 PUSH2 0x8EE PUSH2 0x11BB JUMP JUMPDEST PUSH2 0x109E JUMPI PUSH1 0x40 MLOAD PUSH3 0x461BCD PUSH1 0xE5 SHL DUP2 MSTORE PUSH1 0x4 ADD DUP1 DUP1 PUSH1 0x20 ADD DUP3 DUP2 SUB DUP3 MSTORE PUSH1 0x29 DUP2 MSTORE PUSH1 0x20 ADD DUP1 PUSH2 0x1E1B PUSH1 0x29 SWAP2 CODECOPY PUSH1 0x40 ADD SWAP2 POP POP PUSH1 0x40 MLOAD DUP1 SWAP2 SUB SWAP1 REVERT JUMPDEST PUSH1 0x0 PUSH2 0x10A8 PUSH2 0x11BB JUMP JUMPDEST SWAP1 POP PUSH2 0x10C8 DUP2 DUP8 DUP8 PUSH2 0x10B9 DUP9 PUSH2 0x187F JUMP JUMPDEST PUSH2 0x10C2 DUP9 PUSH2 0x187F JUMP JUMPDEST DUP8 PUSH2 0xB31 JUMP JUMPDEST PUSH2 0x110F DUP4 PUSH1 0x40 MLOAD DUP1 PUSH1 0x60 ADD PUSH1 0x40 MSTORE DUP1 PUSH1 0x2A DUP2 MSTORE PUSH1 0x20 ADD PUSH2 0x1EE4 PUSH1 0x2A SWAP2 CODECOPY PUSH1 0x0 DUP8 DUP2 MSTORE PUSH1 0x1 PUSH1 0x20 SWAP1 DUP2 MSTORE PUSH1 0x40 DUP1 DUP4 KECCAK256 PUSH1 0x1 PUSH1 0x1 PUSH1 0xA0 SHL SUB DUP14 AND DUP5 MSTORE SWAP1 SWAP2 MSTORE SWAP1 KECCAK256 SLOAD SWAP2 SWAP1 PUSH2 0x11C0 JUMP JUMPDEST PUSH1 0x0 DUP6 DUP2 MSTORE PUSH1 0x1 PUSH1 0x20 SWAP1 DUP2 MSTORE PUSH1 0x40 DUP1 DUP4 KECCAK256 PUSH1 0x1 PUSH1 0x1 PUSH1 0xA0 SHL SUB DUP12 DUP2 AND DUP6 MSTORE SWAP3 MSTORE DUP1 DUP4 KECCAK256 SWAP4 SWAP1 SWAP4 SSTORE DUP8 AND DUP2 MSTORE KECCAK256 SLOAD PUSH2 0x1146 SWAP1 DUP5 PUSH2 0x1257 JUMP JUMPDEST PUSH1 0x0 DUP6 DUP2 MSTORE PUSH1 0x1 PUSH1 0x20 SWAP1 DUP2 MSTORE PUSH1 0x40 DUP1 DUP4 KECCAK256 PUSH1 0x1 PUSH1 0x1 PUSH1 0xA0 SHL SUB DUP1 DUP12 AND DUP1 DUP7 MSTORE SWAP2 DUP5 MSTORE SWAP4 DUP3 SWAP1 KECCAK256 SWAP5 SWAP1 SWAP5 SSTORE DUP1 MLOAD DUP9 DUP2 MSTORE SWAP2 DUP3 ADD DUP8 SWAP1 MSTORE DUP1 MLOAD DUP11 DUP5 AND SWAP4 DUP7 AND SWAP3 PUSH32 0xC3D58168C5AE7397731D063D5BBF3D657854427343F4C083240F7AACAA2D0F62 SWAP3 SWAP1 DUP3 SWAP1 SUB ADD SWAP1 LOG4 PUSH2 0xB31 DUP2 DUP8 DUP8 DUP8 DUP8 DUP8 PUSH2 0x18C3 JUMP JUMPDEST CALLER JUMPDEST SWAP1 JUMP JUMPDEST PUSH1 0x0 DUP2 DUP5 DUP5 GT ISZERO PUSH2 0x124F JUMPI PUSH1 0x40 MLOAD PUSH3 0x461BCD PUSH1 0xE5 SHL DUP2 MSTORE PUSH1 0x4 ADD DUP1 DUP1 PUSH1 0x20 ADD DUP3 DUP2 SUB DUP3 MSTORE DUP4 DUP2 DUP2 MLOAD DUP2 MSTORE PUSH1 0x20 ADD SWAP2 POP DUP1 MLOAD SWAP1 PUSH1 0x20 ADD SWAP1 DUP1 DUP4 DUP4 PUSH1 0x0 JUMPDEST DUP4 DUP2 LT ISZERO PUSH2 0x1214 JUMPI DUP2 DUP2 ADD MLOAD DUP4 DUP3 ADD MSTORE PUSH1 0x20 ADD PUSH2 0x11FC JUMP JUMPDEST POP POP POP POP SWAP1 POP SWAP1 DUP2 ADD SWAP1 PUSH1 0x1F AND DUP1 ISZERO PUSH2 0x1241 JUMPI DUP1 DUP3 SUB DUP1 MLOAD PUSH1 0x1 DUP4 PUSH1 0x20 SUB PUSH2 0x100 EXP SUB NOT AND DUP2 MSTORE PUSH1 0x20 ADD SWAP2 POP JUMPDEST POP SWAP3 POP POP POP PUSH1 0x40 MLOAD DUP1 SWAP2 SUB SWAP1 REVERT JUMPDEST POP POP POP SWAP1 SUB SWAP1 JUMP JUMPDEST PUSH1 0x0 DUP3 DUP3 ADD DUP4 DUP2 LT ISZERO PUSH2 0xDE1 JUMPI PUSH1 0x40 DUP1 MLOAD PUSH3 0x461BCD PUSH1 0xE5 SHL DUP2 MSTORE PUSH1 0x20 PUSH1 0x4 DUP3 ADD MSTORE PUSH1 0x1B PUSH1 0x24 DUP3 ADD MSTORE PUSH32 0x536166654D6174683A206164646974696F6E206F766572666C6F770000000000 PUSH1 0x44 DUP3 ADD MSTORE SWAP1 MLOAD SWAP1 DUP2 SWAP1 SUB PUSH1 0x64 ADD SWAP1 REVERT JUMPDEST PUSH2 0x12C3 DUP5 PUSH1 0x1 PUSH1 0x1 PUSH1 0xA0 SHL SUB AND PUSH2 0x1A34 JUMP JUMPDEST ISZERO PUSH2 0xB31 JUMPI DUP4 PUSH1 0x1 PUSH1 0x1 PUSH1 0xA0 SHL SUB AND PUSH4 0xBC197C81 DUP8 DUP8 DUP7 DUP7 DUP7 PUSH1 0x40 MLOAD DUP7 PUSH4 0xFFFFFFFF AND PUSH1 0xE0 SHL DUP2 MSTORE PUSH1 0x4 ADD DUP1 DUP7 PUSH1 0x1 PUSH1 0x1 PUSH1 0xA0 SHL SUB AND DUP2 MSTORE PUSH1 0x20 ADD DUP6 PUSH1 0x1 PUSH1 0x1 PUSH1 0xA0 SHL SUB AND DUP2 MSTORE PUSH1 0x20 ADD DUP1 PUSH1 0x20 ADD DUP1 PUSH1 0x20 ADD DUP1 PUSH1 0x20 ADD DUP5 DUP2 SUB DUP5 MSTORE DUP8 DUP2 DUP2 MLOAD DUP2 MSTORE PUSH1 0x20 ADD SWAP2 POP DUP1 MLOAD SWAP1 PUSH1 0x20 ADD SWAP1 PUSH1 0x20 MUL DUP1 DUP4 DUP4 PUSH1 0x0 JUMPDEST DUP4 DUP2 LT ISZERO PUSH2 0x1351 JUMPI DUP2 DUP2 ADD MLOAD DUP4 DUP3 ADD MSTORE PUSH1 0x20 ADD PUSH2 0x1339 JUMP JUMPDEST POP POP POP POP SWAP1 POP ADD DUP5 DUP2 SUB DUP4 MSTORE DUP7 DUP2 DUP2 MLOAD DUP2 MSTORE PUSH1 0x20 ADD SWAP2 POP DUP1 MLOAD SWAP1 PUSH1 0x20 ADD SWAP1 PUSH1 0x20 MUL DUP1 DUP4 DUP4 PUSH1 0x0 JUMPDEST DUP4 DUP2 LT ISZERO PUSH2 0x1390 JUMPI DUP2 DUP2 ADD MLOAD DUP4 DUP3 ADD MSTORE PUSH1 0x20 ADD PUSH2 0x1378 JUMP JUMPDEST POP POP POP POP SWAP1 POP ADD DUP5 DUP2 SUB DUP3 MSTORE DUP6 DUP2 DUP2 MLOAD DUP2 MSTORE PUSH1 0x20 ADD SWAP2 POP DUP1 MLOAD SWAP1 PUSH1 0x20 ADD SWAP1 DUP1 DUP4 DUP4 PUSH1 0x0 JUMPDEST DUP4 DUP2 LT ISZERO PUSH2 0x13CC JUMPI DUP2 DUP2 ADD MLOAD DUP4 DUP3 ADD MSTORE PUSH1 0x20 ADD PUSH2 0x13B4 JUMP JUMPDEST POP POP POP POP SWAP1 POP SWAP1 DUP2 ADD SWAP1 PUSH1 0x1F AND DUP1 ISZERO PUSH2 0x13F9 JUMPI DUP1 DUP3 SUB DUP1 MLOAD PUSH1 0x1 DUP4 PUSH1 0x20 SUB PUSH2 0x100 EXP SUB NOT AND DUP2 MSTORE PUSH1 0x20 ADD SWAP2 POP JUMPDEST POP SWAP9 POP POP POP POP POP POP POP POP POP PUSH1 0x20 PUSH1 0x40 MLOAD DUP1 DUP4 SUB DUP2 PUSH1 0x0 DUP8 DUP1 EXTCODESIZE ISZERO DUP1 ISZERO PUSH2 0x141E JUMPI PUSH1 0x0 DUP1 REVERT JUMPDEST POP GAS CALL SWAP3 POP POP POP DUP1 ISZERO PUSH2 0x1443 JUMPI POP PUSH1 0x40 MLOAD RETURNDATASIZE PUSH1 0x20 DUP2 LT ISZERO PUSH2 0x143E JUMPI PUSH1 0x0 DUP1 REVERT JUMPDEST POP MLOAD PUSH1 0x1 JUMPDEST PUSH2 0x14D8 JUMPI PUSH2 0x144F PUSH2 0x1CCA JUMP JUMPDEST DUP1 PUSH2 0x145A JUMPI POP PUSH2 0x14A1 JUMP JUMPDEST PUSH1 0x40 MLOAD PUSH3 0x461BCD PUSH1 0xE5 SHL DUP2 MSTORE PUSH1 0x20 PUSH1 0x4 DUP3 ADD DUP2 DUP2 MSTORE DUP4 MLOAD PUSH1 0x24 DUP5 ADD MSTORE DUP4 MLOAD DUP5 SWAP4 SWAP2 SWAP3 DUP4 SWAP3 PUSH1 0x44 ADD SWAP2 SWAP1 DUP6 ADD SWAP1 DUP1 DUP4 DUP4 PUSH1 0x0 DUP4 ISZERO PUSH2 0x1214 JUMPI DUP2 DUP2 ADD MLOAD DUP4 DUP3 ADD MSTORE PUSH1 0x20 ADD PUSH2 0x11FC JUMP JUMPDEST PUSH1 0x40 MLOAD PUSH3 0x461BCD PUSH1 0xE5 SHL DUP2 MSTORE PUSH1 0x4 ADD DUP1 DUP1 PUSH1 0x20 ADD DUP3 DUP2 SUB DUP3 MSTORE PUSH1 0x34 DUP2 MSTORE PUSH1 0x20 ADD DUP1 PUSH2 0x1D70 PUSH1 0x34 SWAP2 CODECOPY PUSH1 0x40 ADD SWAP2 POP POP PUSH1 0x40 MLOAD DUP1 SWAP2 SUB SWAP1 REVERT JUMPDEST PUSH1 0x1 PUSH1 0x1 PUSH1 0xE0 SHL SUB NOT DUP2 AND PUSH4 0xBC197C81 PUSH1 0xE0 SHL EQ PUSH2 0x1527 JUMPI PUSH1 0x40 MLOAD PUSH3 0x461BCD PUSH1 0xE5 SHL DUP2 MSTORE PUSH1 0x4 ADD DUP1 DUP1 PUSH1 0x20 ADD DUP3 DUP2 SUB DUP3 MSTORE PUSH1 0x28 DUP2 MSTORE PUSH1 0x20 ADD DUP1 PUSH2 0x1DA4 PUSH1 0x28 SWAP2 CODECOPY PUSH1 0x40 ADD SWAP2 POP POP PUSH1 0x40 MLOAD DUP1 SWAP2 SUB SWAP1 REVERT JUMPDEST POP POP POP POP POP POP POP JUMP JUMPDEST PUSH1 0x40 DUP1 MLOAD PUSH1 0x1 PUSH1 0x1 PUSH1 0xA0 SHL SUB DUP1 DUP7 AND PUSH1 0x24 DUP4 ADD MSTORE DUP5 AND PUSH1 0x44 DUP3 ADD MSTORE PUSH1 0x64 DUP1 DUP3 ADD DUP5 SWAP1 MSTORE DUP3 MLOAD DUP1 DUP4 SUB SWAP1 SWAP2 ADD DUP2 MSTORE PUSH1 0x84 SWAP1 SWAP2 ADD SWAP1 SWAP2 MSTORE PUSH1 0x20 DUP2 ADD DUP1 MLOAD PUSH1 0x1 PUSH1 0x1 PUSH1 0xE0 SHL SUB AND PUSH4 0x23B872DD PUSH1 0xE0 SHL OR SWAP1 MSTORE PUSH2 0x158A SWAP1 DUP6 SWAP1 PUSH2 0x1A3A JUMP JUMPDEST POP POP POP POP JUMP JUMPDEST PUSH1 0x0 DUP3 DUP3 GT ISZERO PUSH2 0x15E7 JUMPI PUSH1 0x40 DUP1 MLOAD PUSH3 0x461BCD PUSH1 0xE5 SHL DUP2 MSTORE PUSH1 0x20 PUSH1 0x4 DUP3 ADD MSTORE PUSH1 0x1E PUSH1 0x24 DUP3 ADD MSTORE PUSH32 0x536166654D6174683A207375627472616374696F6E206F766572666C6F770000 PUSH1 0x44 DUP3 ADD MSTORE SWAP1 MLOAD SWAP1 DUP2 SWAP1 SUB PUSH1 0x64 ADD SWAP1 REVERT JUMPDEST POP SWAP1 SUB SWAP1 JUMP JUMPDEST PUSH1 0x1 PUSH1 0x1 PUSH1 0xA0 SHL SUB DUP5 AND PUSH2 0x1632 JUMPI PUSH1 0x40 MLOAD PUSH3 0x461BCD PUSH1 0xE5 SHL DUP2 MSTORE PUSH1 0x4 ADD DUP1 DUP1 PUSH1 0x20 ADD DUP3 DUP2 SUB DUP3 MSTORE PUSH1 0x21 DUP2 MSTORE PUSH1 0x20 ADD DUP1 PUSH2 0x1FB2 PUSH1 0x21 SWAP2 CODECOPY PUSH1 0x40 ADD SWAP2 POP POP PUSH1 0x40 MLOAD DUP1 SWAP2 SUB SWAP1 REVERT JUMPDEST PUSH1 0x0 PUSH2 0x163C PUSH2 0x11BB JUMP JUMPDEST SWAP1 POP PUSH2 0x164E DUP2 PUSH1 0x0 DUP8 PUSH2 0x10B9 DUP9 PUSH2 0x187F JUMP JUMPDEST PUSH1 0x0 DUP5 DUP2 MSTORE PUSH1 0x1 PUSH1 0x20 SWAP1 DUP2 MSTORE PUSH1 0x40 DUP1 DUP4 KECCAK256 PUSH1 0x1 PUSH1 0x1 PUSH1 0xA0 SHL SUB DUP10 AND DUP5 MSTORE SWAP1 SWAP2 MSTORE SWAP1 KECCAK256 SLOAD PUSH2 0x167B SWAP1 DUP5 PUSH2 0x1257 JUMP JUMPDEST PUSH1 0x0 DUP6 DUP2 MSTORE PUSH1 0x1 PUSH1 0x20 SWAP1 DUP2 MSTORE PUSH1 0x40 DUP1 DUP4 KECCAK256 PUSH1 0x1 PUSH1 0x1 PUSH1 0xA0 SHL SUB DUP1 DUP12 AND DUP1 DUP7 MSTORE SWAP2 DUP5 MSTORE DUP3 DUP6 KECCAK256 SWAP6 SWAP1 SWAP6 SSTORE DUP2 MLOAD DUP10 DUP2 MSTORE SWAP3 DUP4 ADD DUP9 SWAP1 MSTORE DUP2 MLOAD SWAP1 SWAP5 DUP7 AND SWAP3 PUSH32 0xC3D58168C5AE7397731D063D5BBF3D657854427343F4C083240F7AACAA2D0F62 SWAP3 SWAP1 DUP3 SWAP1 SUB ADD SWAP1 LOG4 PUSH2 0x16EE DUP2 PUSH1 0x0 DUP8 DUP8 DUP8 DUP8 PUSH2 0x18C3 JUMP JUMPDEST POP POP POP POP POP JUMP JUMPDEST PUSH1 0x1 PUSH1 0x1 PUSH1 0xA0 SHL SUB DUP4 AND PUSH2 0x173A JUMPI PUSH1 0x40 MLOAD PUSH3 0x461BCD PUSH1 0xE5 SHL DUP2 MSTORE PUSH1 0x4 ADD DUP1 DUP1 PUSH1 0x20 ADD DUP3 DUP2 SUB DUP3 MSTORE PUSH1 0x23 DUP2 MSTORE PUSH1 0x20 ADD DUP1 PUSH2 0x1EC1 PUSH1 0x23 SWAP2 CODECOPY PUSH1 0x40 ADD SWAP2 POP POP PUSH1 0x40 MLOAD DUP1 SWAP2 SUB SWAP1 REVERT JUMPDEST PUSH1 0x0 PUSH2 0x1744 PUSH2 0x11BB JUMP JUMPDEST SWAP1 POP PUSH2 0x1774 DUP2 DUP6 PUSH1 0x0 PUSH2 0x1756 DUP8 PUSH2 0x187F JUMP JUMPDEST PUSH2 0x175F DUP8 PUSH2 0x187F JUMP JUMPDEST PUSH1 0x40 MLOAD DUP1 PUSH1 0x20 ADD PUSH1 0x40 MSTORE DUP1 PUSH1 0x0 DUP2 MSTORE POP PUSH2 0xB31 JUMP JUMPDEST PUSH2 0x17BB DUP3 PUSH1 0x40 MLOAD DUP1 PUSH1 0x60 ADD PUSH1 0x40 MSTORE DUP1 PUSH1 0x24 DUP2 MSTORE PUSH1 0x20 ADD PUSH2 0x1DF7 PUSH1 0x24 SWAP2 CODECOPY PUSH1 0x0 DUP7 DUP2 MSTORE PUSH1 0x1 PUSH1 0x20 SWAP1 DUP2 MSTORE PUSH1 0x40 DUP1 DUP4 KECCAK256 PUSH1 0x1 PUSH1 0x1 PUSH1 0xA0 SHL SUB DUP12 AND DUP5 MSTORE SWAP1 SWAP2 MSTORE SWAP1 KECCAK256 SLOAD SWAP2 SWAP1 PUSH2 0x11C0 JUMP JUMPDEST PUSH1 0x0 DUP5 DUP2 MSTORE PUSH1 0x1 PUSH1 0x20 SWAP1 DUP2 MSTORE PUSH1 0x40 DUP1 DUP4 KECCAK256 PUSH1 0x1 PUSH1 0x1 PUSH1 0xA0 SHL SUB DUP1 DUP11 AND DUP1 DUP7 MSTORE SWAP2 DUP5 MSTORE DUP3 DUP6 KECCAK256 SWAP6 SWAP1 SWAP6 SSTORE DUP2 MLOAD DUP9 DUP2 MSTORE SWAP3 DUP4 ADD DUP8 SWAP1 MSTORE DUP2 MLOAD SWAP4 SWAP5 SWAP1 SWAP4 SWAP1 DUP7 AND SWAP3 PUSH32 0xC3D58168C5AE7397731D063D5BBF3D657854427343F4C083240F7AACAA2D0F62 SWAP3 SWAP1 DUP3 SWAP1 SUB ADD SWAP1 LOG4 POP POP POP POP JUMP JUMPDEST PUSH1 0x40 DUP1 MLOAD PUSH1 0x1 PUSH1 0x1 PUSH1 0xA0 SHL SUB DUP5 AND PUSH1 0x24 DUP3 ADD MSTORE PUSH1 0x44 DUP1 DUP3 ADD DUP5 SWAP1 MSTORE DUP3 MLOAD DUP1 DUP4 SUB SWAP1 SWAP2 ADD DUP2 MSTORE PUSH1 0x64 SWAP1 SWAP2 ADD SWAP1 SWAP2 MSTORE PUSH1 0x20 DUP2 ADD DUP1 MLOAD PUSH1 0x1 PUSH1 0x1 PUSH1 0xE0 SHL SUB AND PUSH4 0xA9059CBB PUSH1 0xE0 SHL OR SWAP1 MSTORE PUSH2 0x187A SWAP1 DUP5 SWAP1 PUSH2 0x1A3A JUMP JUMPDEST POP POP POP JUMP JUMPDEST PUSH1 0x40 DUP1 MLOAD PUSH1 0x1 DUP1 DUP3 MSTORE DUP2 DUP4 ADD SWAP1 SWAP3 MSTORE PUSH1 0x60 SWAP2 DUP3 SWAP2 SWAP1 PUSH1 0x20 DUP1 DUP4 ADD SWAP1 DUP1 CALLDATASIZE DUP4 CALLDATACOPY ADD SWAP1 POP POP SWAP1 POP DUP3 DUP2 PUSH1 0x0 DUP2 MLOAD DUP2 LT PUSH2 0x18B2 JUMPI INVALID JUMPDEST PUSH1 0x20 SWAP1 DUP2 MUL SWAP2 SWAP1 SWAP2 ADD ADD MSTORE SWAP3 SWAP2 POP POP JUMP JUMPDEST PUSH2 0x18D5 DUP5 PUSH1 0x1 PUSH1 0x1 PUSH1 0xA0 SHL SUB AND PUSH2 0x1A34 JUMP JUMPDEST ISZERO PUSH2 0xB31 JUMPI DUP4 PUSH1 0x1 PUSH1 0x1 PUSH1 0xA0 SHL SUB AND PUSH4 0xF23A6E61 DUP8 DUP8 DUP7 DUP7 DUP7 PUSH1 0x40 MLOAD DUP7 PUSH4 0xFFFFFFFF AND PUSH1 0xE0 SHL DUP2 MSTORE PUSH1 0x4 ADD DUP1 DUP7 PUSH1 0x1 PUSH1 0x1 PUSH1 0xA0 SHL SUB AND DUP2 MSTORE PUSH1 0x20 ADD DUP6 PUSH1 0x1 PUSH1 0x1 PUSH1 0xA0 SHL SUB AND DUP2 MSTORE PUSH1 0x20 ADD DUP5 DUP2 MSTORE PUSH1 0x20 ADD DUP4 DUP2 MSTORE PUSH1 0x20 ADD DUP1 PUSH1 0x20 ADD DUP3 DUP2 SUB DUP3 MSTORE DUP4 DUP2 DUP2 MLOAD DUP2 MSTORE PUSH1 0x20 ADD SWAP2 POP DUP1 MLOAD SWAP1 PUSH1 0x20 ADD SWAP1 DUP1 DUP4 DUP4 PUSH1 0x0 JUMPDEST DUP4 DUP2 LT ISZERO PUSH2 0x1964 JUMPI DUP2 DUP2 ADD MLOAD DUP4 DUP3 ADD MSTORE PUSH1 0x20 ADD PUSH2 0x194C JUMP JUMPDEST POP POP POP POP SWAP1 POP SWAP1 DUP2 ADD SWAP1 PUSH1 0x1F AND DUP1 ISZERO PUSH2 0x1991 JUMPI DUP1 DUP3 SUB DUP1 MLOAD PUSH1 0x1 DUP4 PUSH1 0x20 SUB PUSH2 0x100 EXP SUB NOT AND DUP2 MSTORE PUSH1 0x20 ADD SWAP2 POP JUMPDEST POP SWAP7 POP POP POP POP POP POP POP PUSH1 0x20 PUSH1 0x40 MLOAD DUP1 DUP4 SUB DUP2 PUSH1 0x0 DUP8 DUP1 EXTCODESIZE ISZERO DUP1 ISZERO PUSH2 0x19B4 JUMPI PUSH1 0x0 DUP1 REVERT JUMPDEST POP GAS CALL SWAP3 POP POP POP DUP1 ISZERO PUSH2 0x19D9 JUMPI POP PUSH1 0x40 MLOAD RETURNDATASIZE PUSH1 0x20 DUP2 LT ISZERO PUSH2 0x19D4 JUMPI PUSH1 0x0 DUP1 REVERT JUMPDEST POP MLOAD PUSH1 0x1 JUMPDEST PUSH2 0x19E5 JUMPI PUSH2 0x144F PUSH2 0x1CCA JUMP JUMPDEST PUSH1 0x1 PUSH1 0x1 PUSH1 0xE0 SHL SUB NOT DUP2 AND PUSH4 0xF23A6E61 PUSH1 0xE0 SHL EQ PUSH2 0x1527 JUMPI PUSH1 0x40 MLOAD PUSH3 0x461BCD PUSH1 0xE5 SHL DUP2 MSTORE PUSH1 0x4 ADD DUP1 DUP1 PUSH1 0x20 ADD DUP3 DUP2 SUB DUP3 MSTORE PUSH1 0x28 DUP2 MSTORE PUSH1 0x20 ADD DUP1 PUSH2 0x1DA4 PUSH1 0x28 SWAP2 CODECOPY PUSH1 0x40 ADD SWAP2 POP POP PUSH1 0x40 MLOAD DUP1 SWAP2 SUB SWAP1 REVERT JUMPDEST EXTCODESIZE ISZERO ISZERO SWAP1 JUMP JUMPDEST PUSH1 0x60 PUSH2 0x1A8F DUP3 PUSH1 0x40 MLOAD DUP1 PUSH1 0x40 ADD PUSH1 0x40 MSTORE DUP1 PUSH1 0x20 DUP2 MSTORE PUSH1 0x20 ADD PUSH32 0x5361666545524332303A206C6F772D6C6576656C2063616C6C206661696C6564 DUP2 MSTORE POP DUP6 PUSH1 0x1 PUSH1 0x1 PUSH1 0xA0 SHL SUB AND PUSH2 0x1AEB SWAP1 SWAP3 SWAP2 SWAP1 PUSH4 0xFFFFFFFF AND JUMP JUMPDEST DUP1 MLOAD SWAP1 SWAP2 POP ISZERO PUSH2 0x187A JUMPI DUP1 DUP1 PUSH1 0x20 ADD SWAP1 MLOAD PUSH1 0x20 DUP2 LT ISZERO PUSH2 0x1AAE JUMPI PUSH1 0x0 DUP1 REVERT JUMPDEST POP MLOAD PUSH2 0x187A JUMPI PUSH1 0x40 MLOAD PUSH3 0x461BCD PUSH1 0xE5 SHL DUP2 MSTORE PUSH1 0x4 ADD DUP1 DUP1 PUSH1 0x20 ADD DUP3 DUP2 SUB DUP3 MSTORE PUSH1 0x2A DUP2 MSTORE PUSH1 0x20 ADD DUP1 PUSH2 0x1F37 PUSH1 0x2A SWAP2 CODECOPY PUSH1 0x40 ADD SWAP2 POP POP PUSH1 0x40 MLOAD DUP1 SWAP2 SUB SWAP1 REVERT JUMPDEST PUSH1 0x60 PUSH2 0x1AFA DUP5 DUP5 PUSH1 0x0 DUP6 PUSH2 0x1B02 JUMP JUMPDEST SWAP5 SWAP4 POP POP POP POP JUMP JUMPDEST PUSH1 0x60 DUP3 SELFBALANCE LT ISZERO PUSH2 0x1B43 JUMPI PUSH1 0x40 MLOAD PUSH3 0x461BCD PUSH1 0xE5 SHL DUP2 MSTORE PUSH1 0x4 ADD DUP1 DUP1 PUSH1 0x20 ADD DUP3 DUP2 SUB DUP3 MSTORE PUSH1 0x26 DUP2 MSTORE PUSH1 0x20 ADD DUP1 PUSH2 0x1E44 PUSH1 0x26 SWAP2 CODECOPY PUSH1 0x40 ADD SWAP2 POP POP PUSH1 0x40 MLOAD DUP1 SWAP2 SUB SWAP1 REVERT JUMPDEST PUSH2 0x1B4C DUP6 PUSH2 0x1A34 JUMP JUMPDEST PUSH2 0x1B9D JUMPI PUSH1 0x40 DUP1 MLOAD PUSH3 0x461BCD PUSH1 0xE5 SHL DUP2 MSTORE PUSH1 0x20 PUSH1 0x4 DUP3 ADD MSTORE PUSH1 0x1D PUSH1 0x24 DUP3 ADD MSTORE PUSH32 0x416464726573733A2063616C6C20746F206E6F6E2D636F6E7472616374000000 PUSH1 0x44 DUP3 ADD MSTORE SWAP1 MLOAD SWAP1 DUP2 SWAP1 SUB PUSH1 0x64 ADD SWAP1 REVERT JUMPDEST PUSH1 0x0 PUSH1 0x60 DUP7 PUSH1 0x1 PUSH1 0x1 PUSH1 0xA0 SHL SUB AND DUP6 DUP8 PUSH1 0x40 MLOAD DUP1 DUP3 DUP1 MLOAD SWAP1 PUSH1 0x20 ADD SWAP1 DUP1 DUP4 DUP4 JUMPDEST PUSH1 0x20 DUP4 LT PUSH2 0x1BDC JUMPI DUP1 MLOAD DUP3 MSTORE PUSH1 0x1F NOT SWAP1 SWAP3 ADD SWAP2 PUSH1 0x20 SWAP2 DUP3 ADD SWAP2 ADD PUSH2 0x1BBD JUMP JUMPDEST PUSH1 0x1 DUP4 PUSH1 0x20 SUB PUSH2 0x100 EXP SUB DUP1 NOT DUP3 MLOAD AND DUP2 DUP5 MLOAD AND DUP1 DUP3 OR DUP6 MSTORE POP POP POP POP POP POP SWAP1 POP ADD SWAP2 POP POP PUSH1 0x0 PUSH1 0x40 MLOAD DUP1 DUP4 SUB DUP2 DUP6 DUP8 GAS CALL SWAP3 POP POP POP RETURNDATASIZE DUP1 PUSH1 0x0 DUP2 EQ PUSH2 0x1C3E JUMPI PUSH1 0x40 MLOAD SWAP2 POP PUSH1 0x1F NOT PUSH1 0x3F RETURNDATASIZE ADD AND DUP3 ADD PUSH1 0x40 MSTORE RETURNDATASIZE DUP3 MSTORE RETURNDATASIZE PUSH1 0x0 PUSH1 0x20 DUP5 ADD RETURNDATACOPY PUSH2 0x1C43 JUMP JUMPDEST PUSH1 0x60 SWAP2 POP JUMPDEST POP SWAP2 POP SWAP2 POP PUSH2 0x1C53 DUP3 DUP3 DUP7 PUSH2 0x1C5E JUMP JUMPDEST SWAP8 SWAP7 POP POP POP POP POP POP POP JUMP JUMPDEST PUSH1 0x60 DUP4 ISZERO PUSH2 0x1C6D JUMPI POP DUP2 PUSH2 0xDE1 JUMP JUMPDEST DUP3 MLOAD ISZERO PUSH2 0x1C7D JUMPI DUP3 MLOAD DUP1 DUP5 PUSH1 0x20 ADD REVERT JUMPDEST PUSH1 0x40 MLOAD PUSH3 0x461BCD PUSH1 0xE5 SHL DUP2 MSTORE PUSH1 0x20 PUSH1 0x4 DUP3 ADD DUP2 DUP2 MSTORE DUP5 MLOAD PUSH1 0x24 DUP5 ADD MSTORE DUP5 MLOAD DUP6 SWAP4 SWAP2 SWAP3 DUP4 SWAP3 PUSH1 0x44 ADD SWAP2 SWAP1 DUP6 ADD SWAP1 DUP1 DUP4 DUP4 PUSH1 0x0 DUP4 ISZERO PUSH2 0x1214 JUMPI DUP2 DUP2 ADD MLOAD DUP4 DUP3 ADD MSTORE PUSH1 0x20 ADD PUSH2 0x11FC JUMP JUMPDEST PUSH1 0xE0 SHR SWAP1 JUMP JUMPDEST PUSH1 0x0 PUSH1 0x44 RETURNDATASIZE LT ISZERO PUSH2 0x1CDA JUMPI PUSH2 0x11BD JUMP JUMPDEST PUSH1 0x4 DUP2 DUP3 RETURNDATACOPY PUSH4 0x8C379A0 PUSH2 0x1CEE DUP3 MLOAD PUSH2 0x1CC4 JUMP JUMPDEST EQ PUSH2 0x1CF8 JUMPI PUSH2 0x11BD JUMP JUMPDEST PUSH1 0x40 MLOAD RETURNDATASIZE PUSH1 0x3 NOT ADD PUSH1 0x4 DUP3 RETURNDATACOPY DUP1 MLOAD RETURNDATASIZE PUSH8 0xFFFFFFFFFFFFFFFF DUP2 PUSH1 0x24 DUP5 ADD GT DUP2 DUP5 GT OR ISZERO PUSH2 0x1D28 JUMPI POP POP POP POP PUSH2 0x11BD JUMP JUMPDEST DUP3 DUP5 ADD SWAP3 POP DUP3 MLOAD SWAP2 POP DUP1 DUP3 GT ISZERO PUSH2 0x1D42 JUMPI POP POP POP POP PUSH2 0x11BD JUMP JUMPDEST POP RETURNDATASIZE DUP4 ADD PUSH1 0x20 DUP3 DUP5 ADD ADD GT ISZERO PUSH2 0x1D5A JUMPI POP POP POP PUSH2 0x11BD JUMP JUMPDEST PUSH1 0x1F ADD PUSH1 0x1F NOT AND DUP2 ADD PUSH1 0x20 ADD PUSH1 0x40 MSTORE SWAP2 POP POP SWAP1 JUMP INVALID GASLIMIT MSTORE NUMBER BALANCE BALANCE CALLDATALOAD CALLDATALOAD GASPRICE KECCAK256 PUSH21 0x72616E7366657220746F206E6F6E20455243313135 CALLDATALOAD MSTORE PUSH6 0x636569766572 KECCAK256 PUSH10 0x6D706C656D656E746572 GASLIMIT MSTORE NUMBER BALANCE BALANCE CALLDATALOAD CALLDATALOAD GASPRICE KECCAK256 GASLIMIT MSTORE NUMBER BALANCE BALANCE CALLDATALOAD CALLDATALOAD MSTORE PUSH6 0x636569766572 KECCAK256 PUSH19 0x656A656374656420746F6B656E734552433131 CALLDATALOAD CALLDATALOAD GASPRICE KECCAK256 PUSH3 0x616C61 PUSH15 0x636520717565727920666F72207468 PUSH6 0x207A65726F20 PUSH2 0x6464 PUSH19 0x657373455243313135353A206275726E20616D PUSH16 0x756E7420657863656564732062616C61 PUSH15 0x6365455243313135353A2063616C6C PUSH6 0x72206973206E PUSH16 0x74206F776E6572206E6F722061707072 PUSH16 0x766564416464726573733A20696E7375 PUSH7 0x66696369656E74 KECCAK256 PUSH3 0x616C61 PUSH15 0x636520666F722063616C6C45524331 BALANCE CALLDATALOAD CALLDATALOAD GASPRICE KECCAK256 PUSH21 0x72616E7366657220746F20746865207A65726F2061 PUSH5 0x6472657373 GASLIMIT MSTORE NUMBER BALANCE BALANCE CALLDATALOAD CALLDATALOAD GASPRICE KECCAK256 PUSH21 0x72616E736665722063616C6C6572206973206E6F74 KECCAK256 PUSH16 0x776E6572206E6F7220617070726F7665 PUSH5 0x4552433131 CALLDATALOAD CALLDATALOAD GASPRICE KECCAK256 PUSH3 0x75726E KECCAK256 PUSH7 0x726F6D20746865 KECCAK256 PUSH27 0x65726F2061646472657373455243313135353A20696E7375666669 PUSH4 0x69656E74 KECCAK256 PUSH3 0x616C61 PUSH15 0x636520666F72207472616E73666572 GASLIMIT MSTORE NUMBER BALANCE BALANCE CALLDATALOAD CALLDATALOAD GASPRICE KECCAK256 PUSH20 0x657474696E6720617070726F76616C2073746174 PUSH22 0x7320666F722073656C665361666545524332303A2045 MSTORE NUMBER ORIGIN ADDRESS KECCAK256 PUSH16 0x7065726174696F6E20646964206E6F74 KECCAK256 PUSH20 0x756363656564455243313135353A206163636F75 PUSH15 0x747320616E6420696473206C656E67 PUSH21 0x68206D69736D61746368455243313135353A206964 PUSH20 0x20616E6420616D6F756E7473206C656E67746820 PUSH14 0x69736D6174636845524331313535 GASPRICE KECCAK256 PUSH14 0x696E7420746F20746865207A6572 PUSH16 0x2061646472657373A264697066735822 SLT KECCAK256 0xB8 SDIV DUP12 0xDD 0xBC 0xFB 0x5F RETURNDATASIZE DUP14 0xDE PUSH28 0x8287A46D9D1B463E2A15CAAEAC9893C539EBB3087764736F6C634300 MOD 0xC STOP CALLER ",
  "sha1": "0f4d3a42b5e5f5b72d7e505729a95b66df391982",
  "source": "// SPDX-License-Identifier: MIT\n\npragma solidity 0.6.12;\n\nimport 'OpenZeppelin/openzeppelin-contracts@3.4.0/contracts/token/ERC1155/ERC1155.sol';\nimport 'OpenZeppelin/openzeppelin-contracts@3.4.0/contracts/token/ERC20/SafeERC20.sol';\nimport 'OpenZeppelin/openzeppelin-contracts@3.4.0/contracts/utils/ReentrancyGuard.sol';\n\nimport '../../interfaces/IWERC20.sol';\n\ncontract WERC20 is ERC1155('WERC20'), ReentrancyGuard, IWERC20 {\n  using SafeERC20 for IERC20;\n\n  /// @dev Return the underlying ERC-20 for the given ERC-1155 token id.\n  /// @param id token id (corresponds to token address for wrapped ERC20)\n  function getUnderlyingToken(uint id) external view override returns (address) {\n    address token = address(id);\n    require(uint(token) == id, 'id overflow');\n    return token;\n  }\n\n  /// @dev Return the conversion rate from ERC-1155 to ERC-20, multiplied by 2**112.\n  function getUnderlyingRate(uint) external view override returns (uint) {\n    return 2**112;\n  }\n\n  /// @dev Return the underlying ERC20 balance for the user.\n  /// @param token token address to get balance of\n  /// @param user user address to get balance of\n  function balanceOfERC20(address token, address user) external view override returns (uint) {\n    return balanceOf(user, uint(token));\n  }\n\n  /// @dev Mint ERC1155 token for the given ERC20 token.\n  /// @param token token address to wrap\n  /// @param amount token amount to wrap\n  function mint(address token, uint amount) external override nonReentrant {\n    uint balanceBefore = IERC20(token).balanceOf(address(this));\n    IERC20(token).safeTransferFrom(msg.sender, address(this), amount);\n    uint balanceAfter = IERC20(token).balanceOf(address(this));\n    _mint(msg.sender, uint(token), balanceAfter.sub(balanceBefore), '');\n  }\n\n  /// @dev Burn ERC1155 token to redeem ERC20 token back.\n  /// @param token token address to burn\n  /// @param amount token amount to burn\n  function burn(address token, uint amount) external override nonReentrant {\n    _burn(msg.sender, uint(token), amount);\n    IERC20(token).safeTransfer(msg.sender, amount);\n  }\n}\n",
  "sourcePath": "contracts/wrapper/WERC20.sol",
  "type": "contract"
}